:020000040000FA
:1000000080311028FF3FFF3F80312000111C09285C
:100010000A280F2811101810250016100F280900A3
:1000200088019131712900347C34A23492348A34AD
:100030007C3400348434FE3480340034E43492342C
:10004000923492348C3444348234923492346C340A
:10005000303428342434FE3420344E348A348A3404
:100060008A34723478349434923492346034023462
:10007000E23412340A3406346C34923492349234BA
:100080006C340C349234923452343C3400340034A6
:100090000034003400341C347E34FC347E341C3490
:1000A000103428344434823400342834283428343A
:1000B0002834283482344434283410340034403412
:1000C00020341034083404340034C034C0340034D4
:1000D0000034F834243422342434F8348234FE34A6
:1000E000923492346C347C3482348234823444349A
:1000F0008234FE34823482347C34FE34923492343E
:1001000082348234FE3412341234023402347C34A9
:100110008234923492347434FE34103410341034F7
:10012000FE3400348234FE3482340034403480346F
:1001300082347E340234FE34103428344434823421
:10014000FE348034803480348034FE3404341834F7
:100150000434FE34FE34043408341034FE347C3469
:100160008234823482347C34FE34123412341234B9
:100170000C347C348234A2344234BC34FE34123425
:10018000323452348C344C34923492349234643459
:1001900002340234FE34023402347E34803480343B
:1001A00080347E340E343034C03430340E34FE3477
:1001B000403430344034FE34C634283410342834CB
:1001C000C63406340834F03408340634C234A23459
:1001D00092348A348634543445344D3450340034A7
:1001E00020342034203400342200E9010230690236
:1001F000031CFB28FC28FE281E291E290330210091
:10020000D6005608F6002200690891319D21803100
:100210006A3E8600013087000030C03F0030C13F99
:100220000030C23F01302100D60056082200E90705
:1002300002306902031C1D291E29FE28E9010A302B
:100240006902031C24292529272951295129033012
:100250002100D6005608F6002200690891319D2140
:100260008031A03E860087010030C03F0030C13F92
:100270000030C23F220069080907BE3E86008701A0
:100280000030C03F0030C13F01302100D600560889
:100290002200E9070A306902031C4F295029272947
:1002A00051290030C1000030C2000030C300FF30CF
:1002B000C400FF30C5007F30C6000030C7000030EA
:1002C000C8000030C900FF30CA00FF30CB007F30CB
:1002D000CC000030CD000030CE000030CF00FF3029
:1002E000D500FF30D6007F30D7000030B20000309C
:1002F000B1000030B0000030AF000030B600003078
:10030000B5000030B4000030B300D901DA01DB01E0
:100310000030A3008030A4000130A5004030A600CA
:100320000030A7000030A8009331762380312200EE
:10033000E201E301D001BA01E701E80168302100E0
:10034000D60056082000CE003B302100D7005708C9
:100350002000CF0003302100D80058082000D00032
:1003600067308331752380312200E701033021009B
:10037000D60056082200E80068302100D600560852
:100380002000CE004F302100D70057082000CF00BA
:1003900003302100D80058082000D0006730833196
:1003A0007523803105302100D6005608F1000A304F
:1003B00092319B228031FA0120309631ED26803136
:1003C00005302100D6005608F1000B3092319B22F7
:1003D0008031FA0132309631ED2680312200E7017A
:1003E00006302100D60056082200E80068302100BF
:1003F000D60056082000E500EB302100D700570852
:100400002000E60002302100D80058082000E70054
:10041000673092314A22803106302100D6005608DA
:10042000F100643092319B228031FA014F309631D5
:10043000ED2680316A302100D60056082200E70000
:1004400006302100D60056082200E800683021005E
:10045000D60056082000CE0043302100D7005708B0
:100460002000CF0002302100D80058082000D00022
:1004700067308331752380312200D4010314D40DF9
:1004800091318521803188313B2820004108C70007
:100490004208C8004308C9000310480D490DCA00AE
:1004A0004A08CD004408C7004508C8004608C900EE
:1004B0000310480D490DCA004A08CC004D08031D21
:1004C000622A732A4C084D020318672A682A7B2A7D
:1004D0004D03FF3A4C07C70019304702031C712A2D
:1004E000722A7B2A732A4408C1004508C2004608C4
:1004F000C300742B742B4C08031D7F2A8F2A4D08D0
:100500004C020318842A852A902A4C03FF3A4D078F
:10051000C70019304702031C8E2A8F2A902A742B99
:100520000630C7004708CB00C31F972A982A992A8C
:10053000CB17C61F9C2A9D2A9E2A4B17C217FF3035
:10054000C105FF30C2050030C305C517FF30C40523
:10055000FF30C5050030C6054C084D020318B12A0E
:10056000B22ADF2AB32A0130C435C50DC60D890B66
:10057000B42A0130CC024C084D060319C02AC12A06
:10058000D72A0130CB024B080739031DC82AC92AD4
:10059000B32AD72AD72AD72A0130C336C20CC10CB6
:1005A000890BCD2A0130C7004708CD07D72A4D084F
:1005B0004C06031DDC2ADD2ACC2A122B122B4D08F7
:1005C0004C020318E42AE52A122BE62A0130C13531
:1005D000C20DC30D890BE72A0130CD024C084D0630
:1005E0000319F32AF42A0A2B0130CB024B080739EE
:1005F000031DFB2AFC2AE62A0A2B0A2B0A2B0130B0
:10060000C636C50CC40C890B002B0130C700470847
:10061000CC070A2B4D084C06031D0F2B102BFF2A6D
:10062000122B122BCB1F152B162B272BFF30C1069D
:10063000FF30C206FF30C3060130C1070030031887
:100640000130C207003003180130C307272B4B1FAE
:100650002A2B2B2B3C2BFF30C406FF30C506FF3066
:10066000C6060130C407003003180130C50700304A
:1006700003180130C6073C2BCB014108C4074208D0
:10068000C53D4308C63DC61F462B472B5B2BFF309D
:10069000C406FF30C506FF30C6060130C40700306F
:1006A00003180130C507003003180130C607CB011D
:1006B0000314CB0D5B2B4408F0004508F1004608FD
:1006C000F2004D08C7004708F3004B08C80048086F
:1006D000F40096317A26823170082000C10071083A
:1006E000C2007208C300742B08002000DF004F080E
:1006F000203A031D7C2B7D2B822B3A30D1005108F0
:10070000CF00822B3030CF025F0886000130870097
:100710000108D1005108E0004E0886000130870032
:100720000108D1005108DE00E10105306102031C1F
:100730009A2B9B2B9D2B532C532C0530D100510809
:10074000F6004F0891319D218331143E200061074E
:1007500080310A008331D2005208DD00E401362CDA
:10076000E2015E08D1005108F100600892319B223D
:1007700083312000E30108306302031CC02BC12B2E
:10078000C32B0F2C0F2C5D08D100D2010130D300F8
:100790000030D4005008D500D6015508F0005608A6
:1007A000F1006308D700D8016408D900DA010330EA
:1007B000D935DA0D890BD82B57085907F20058089C
:1007C0005A3DF30095319F2583317008890A200036
:1007D000EB2BD335D40D890BE92B51085305DB00E6
:1007E00052085405DC005C085B040319F82BF92B54
:1007F000042C0130D100630AFE2BD135890BFD2B6F
:100800005108D2005208E2040130D1005108E30738
:1008100008306302031C0D2C0E2CC32B0F2C9131BE
:100820002F21833178309131502183314030913103
:100830005021833120006208913150218331200002
:10084000620891315021833120006208913150219A
:10085000833188310020833101302000D1005108DC
:10086000DE070130D1005108E407362C500864023D
:10087000031C3B2C3C2CB02B3D2C4E088600013039
:1008800087000108D1005108DE005008D10051084E
:10089000E0070130D1005108E10705306102031C77
:1008A000522C532C9D2BE4016F2C4E0886000130F6
:1008B000870001086407D1005108F10060089231F7
:1008C0009B228331F1010314F10D00309131EF21AE
:1008D000833101302000D1005108E4076F2C50080B
:1008E0006402031C742C752C552C762C0530D10019
:1008F0005108F600500891319D218331013E2000BE
:10090000D2005F0886000130870052088107080086
:1009100020003108B7003208B8003308B9000310CE
:10092000380D390DBA003A08BB00BB08031D992CDD
:100930009A2CA22C0030B1000030B2000030B3007D
:10094000512D512D3408B7003508B8003608B900CC
:100950000310380D390DBA003A08C000C008031D55
:10096000B22CB32CBB2C0030B1000030B2000030F0
:10097000B300512D512D40087B3EB7003708BB070F
:100980003108B7003208B8003308B9001030B93662
:10099000B80CB70C890BC72C3708BA003A08C0004E
:1009A0003408B7003508B8003608B9001030B93639
:1009B000B80CB70C890BD72C3708BA003A08C00618
:1009C0008030B7003708C005B217B517FF30B4053F
:1009D000FF30B5050030B6050030BC000030BD006A
:1009E0000030BE000730B7003708BF00F72C311CBD
:1009F000FA2CFB2C022D3408BC073508BD3D360807
:100A0000BE3D022D0130B336B20CB10C890B032D63
:100A10000130B435B50DB60D890B092D0130BF027B
:100A2000031D132D142DF72C152D0930B700370891
:100A3000BF001A2D311C1D2D1E2D252D3408BC077D
:100A40003508BD3D3608BE3D252D0130B336B20C0C
:100A5000B10C890B262D0130BE36BD0CBC0C890BA8
:100A60002C2D0130BF02031D362D372D1A2D382DA8
:100A70003C08F0003D08F1003E08F2003B08B700DA
:100A80003708F3004008B8003808F40096317A2699
:100A9000843170082000B1007108B2007208B30000
:100AA000512D08002100D3006430F0000030F10027
:100AB00020006608E800E9016808F2006908F30010
:100AC00095319F25853170082000EA006A082100D1
:100AD000D5000A30F0000030F10020006608E80080
:100AE000E9016808F2006908F30095319F25853116
:100AF00070082000EA007108EB000A30EC006C0876
:100B0000F6002100550891319D218531FF3A013EC3
:100B100020006A07ED006D082100D4006430200039
:100B2000E8006808F6002100550891319D218531C3
:100B30002000E9000A30EA006A08F60021005408A3
:100B400091319D21853120006907FF3A013E6607FA
:100B5000EB006B082100D20030302000E80068086C
:100B60002100D5075508303A031DB72DB82DBF2DEC
:100B70003A302000E80068082100D500BF2D303051
:100B80002000E80068082100D40755083A3A031D00
:100B9000CA2DCB2DD82D5408303A031DD02DD12D80
:100BA000D82D3A302000E80068082100D400D82D64
:100BB00020006508E8006808CE00210055082000E4
:100BC000E9006908CF006708EA006A08D000210040
:100BD000530883317523853120006508E8006808D3
:100BE000CE00210054082000E9006908CF00670802
:100BF000EA006A08D000210053088331752385314B
:100C000020006508E8006808CE0021005208303E48
:100C10002000E9006908CF006708EA006A08D000F0
:100C200021005308833175238531080020004408D2
:100C3000C7004508C8004608C9000310480D490D03
:100C4000CA004A08CF00CF08031D272E282E302EB9
:100C50000030C1000030C2000030C300CD2ECD2EC8
:100C60004108C7004208C8004308C9000310480DE6
:100C7000490DCA004A08D000D008031D402E412E5D
:100C8000492E0030C1000030C2000030C300CD2E1C
:100C9000CD2E0030CC000030CD000030CE008930A9
:100CA0005007C7004708CF024408C7004508C800DE
:100CB0004608C9001030C936C80CC70C890B5B2E1A
:100CC0004708CA004A08D0004108C7004208C800C7
:100CD0004308C9001030C936C80CC70C890B6B2EED
:100CE0004708CA004A08D0068030C7004708D00528
:100CF000C517FF30C405FF30C5050030C605C21753
:100D0000FF30C105FF30C2050030C3051830C700F1
:100D10004708CB008B2E0130CC35CD0DCE0D890B85
:100D20008C2E43084602031D9B2E42084502031DDC
:100D30009B2E41084402031C9E2E9F2EA72E410885
:100D4000C4024208C53B4308C63B4C14A72E0130E1
:100D5000C435C50DC60D890BA82E0130CB02031D6D
:100D6000B22EB32E8B2EB42E4C08F0004D08F1009D
:100D70004E08F2004F08C7004708F3005008C800AB
:100D80004808F40096317A26863170082000C100A8
:100D90007108C2007208C300CD2E0800FA00FA08DC
:100DA000031DD32ED42EDC2E7408F500F601750831
:100DB0002000EE007608EF007408F500F6017608D2
:100DC00020006F02031DE62E75086E020318E92E3F
:100DD000EA2EF42E7408F5007508F8006E08013E3E
:100DE000F5007508F900152F7408F500F6016F0875
:100DF0007602031DFD2E6E0875020318002F012FC9
:100E00000B2F7408F5007508F9006E08FF3EF50019
:100E10007508F800152F7408F5007508F9006E08BC
:100E2000F5007508F800152F152FFC0106307C021F
:100E3000031C1B2F1C2F1E2F732F732FF701FD0177
:100E400008307D02031C252F262F282F582F582FBE
:100E50007C03FF3AF5000330F535890B2C2F7D0319
:100E6000FF3A75072F3EF6007608FB0079087B02F3
:100E7000031C3B2F3C2F4D2F7B087802031C412F76
:100E8000422F4D2F0130F5007D0A472FF535890B94
:100E9000462F7508F6007608F7040130F50075084E
:100EA000FD0708307D02031C562F572F282F582F7F
:100EB0007C08F5007508F1007A08403E92319B22CB
:100EC0008631F1010314F10D77089131EF2186315C
:100ED0000130F5007508FC0706307C02031C712FF9
:100EE000722F1E2F732F7408F500F601750820006D
:100EF000EE007608EF000800F801F21F802F812F26
:100F00008D2FF009F109F209F00A0319F10A03190A
:100F1000F20AF8010314F80D8D2FF51F902F912F71
:100F20009E2FF309F409F509F30A0319F40A0319CA
:100F3000F50A0130F6007608F8069E2F0030F90019
:100F40000030FA000030FB007208710470040319CD
:100F5000AA2FAB2FEA2FF7010314F70DBA2F013098
:100F6000F035F10DF20D890BB02F0130F600760847
:100F7000F707BA2FF21FBD2FBE2FAF2FC02FC02FE4
:100F80000130F935FA0DFB0D890BC12F720875027E
:100F9000031DD02F71087402031DD02F7008730237
:100FA000031CD32FD42FDC2F7008F3027108F43BFD
:100FB0007208F53B7914DC2F0130F236F10CF00C9D
:100FC000890BDD2F0130F702031DE72FE82FC02F1B
:100FD000EA2FEA2F7808031DEE2FF72FF909FA09F7
:100FE000FB09F90A0319FA0A0319FB0AF72F790812
:100FF000F0007A08F1007B08F200FE2F0800FF3FA6
:10100000240016150328161906280728032808287F
:101010000800F800F1010314F10DAE3092312922DD
:1010200088310239F6007608F9007908031D19287D
:1010300038281F30F6007608F100AE3092312922B0
:101040008831F70078088600013087007708810032
:101050002030F6007608F100AE3092312922883136
:10106000F70075088600013087007708810038286E
:1010700079083A28080029309331B72388312100B4
:10108000D60056082200E900E908031D482849282F
:101090004B283B283B28640022002B082100D60067
:1010A000D701D80122002A082100D900DA01DB018A
:1010B0000830D935DA0DDB0D890B592822002908B3
:1010C0002100DC00DD01DE011030DC35DD0DDE0D40
:1010D000890B65285C08D9045D08DA045E08DB0426
:1010E0005908D6045A08D7045B08D80456082200C9
:1010F000E400210057082200E500210058082200E2
:10110000E6002E082100D600D701D80122002D08C4
:101110002100D900DA01DB010830D935DA0DDB0D09
:10112000890B8D2822002C082100DC00DD01DE0166
:101130001030DC35DD0DDE0D890B99285C08D904F3
:101140005D08DA045E08DB045908D6045A08D7049F
:101150005B08D80456082200DC0021005708220052
:10116000DD00210058082200DE002608F0002708D4
:10117000F1002808F20064082100D600220065086A
:101180002100D700220066082100D8002200230990
:101190002100D900220024092100DA0022002509BB
:1011A0002100DB00D90A0319DA0A0319DB0A5908FE
:1011B000D6075A08D73D5B08D83D5608F3005708B4
:1011C000F4005808F50087317C2788310830700713
:1011D0002200D1000030713DD2000030723DD300BA
:1011E000D31FF328F428F628B90117295308803AA9
:1011F000FF000030803A7F02031D042900305202B4
:10120000031D042930305102031C072908290F2926
:101210002F302100D60056082200B90017295108A6
:101220002100D60056082200B900172917296208A4
:101230003F392100D60056082200D8003908210085
:10124000D6005608F400220058088631CE26883190
:1012500022004F08803AFF006608803A7F02031D93
:10126000372965084E02031D372964084D0203180B
:101270003A293B2942296408CD006508CE0066085A
:10128000CF0042296608803AFF005708803A7F0263
:10129000031D502956086502031D50295508640294
:1012A0000318532954295B296408D5006508D60022
:1012B0006608D7005B296608803AFF000030803A54
:1012C0007F02031D692940306502031D6929013031
:1012D0006402031C6C296D29162B5E08803AFF00FE
:1012E0000030803A7F02031D7B2940305D02031DE0
:1012F0007B2901305C02031C7E297F29162B5008B4
:101300002100D60056082200BA00B701B801E90151
:1013100002306902031C8D298E299029592A592AE5
:101320006908031D9429DF2903302100D6005608DF
:10133000F60022006903FF3A6207013991319D21CD
:1013400088316A3E860001308700403F2100D70087
:10135000413FD800423FD9000330DA005A08F60076
:1013600022006908013EFF3A013E620701399131CE
:101370009D2188316A3E860001308700403F210070
:10138000DB00413FDC00423FDD00DB09DC09DD0919
:10139000DB0A0319DC0A0319DD0A5B08D7075C08BE
:1013A000D83D5D08D93D57082200BB0021005808F0
:1013B0002200BC00210059082200BD001A2A64083E
:1013C0002100D600220065082100D700220066080F
:1013D0002100D8000330D9005908F6002200620825
:1013E000FF3E013991319D2188316A3E86000130EE
:1013F0008700403F2100DA00413FDB00423FDC0034
:10140000DA09DB09DC09DA0A0319DB0A0319DC0A49
:101410005A08D6075B08D73D5C08D83D560822001D
:10142000BB00210057082200BC0021005808220000
:10143000BD001A2A3D08803AFF000030803A7F0242
:10144000031D282A00303C02031D282A0B303B02D2
:10145000031C2B2A2C2A332A01302100D6005608DF
:101460002200B7074C2A3D08803AFF00FF30803A3F
:101470007F02031D412AFF303C02031D412AE23056
:101480003B020318442A452A4C2A01302100D60089
:1014900056082200B8074C2A01302100D600560811
:1014A0002200E90702306902031C572A582A9029B2
:1014B000592A3708023A031D5E2A5F2A632AD0019F
:1014C0000314D00D702A3808023A031D682A692ACD
:1014D000702A02302100D60056082200D000702A5F
:1014E00064082100D600220065082100D7002200F0
:1014F00066082100D8000030D81BFF30D9005608FC
:101500002200AF07210057082200B03D21005808F3
:101510002200B13D210059082200B23D4308803A23
:10152000FF006608803A7F02031D9C2A650842027C
:10153000031D9C2A6408410203189F2AA02AA72A97
:101540006408C1006508C2006608C300A72A6608CF
:10155000803AFF004608803A7F02031DB52A4508FD
:101560006502031DB52A440864020318B82AB92A83
:10157000BF2A6408C4006508C5006608C6005C0888
:101580002100D60022005D082100D70022005E085D
:101590002100D8000030D81BFF30D90056082200A7
:1015A000B307210057082200B43D2100580822004B
:1015B000B53D210059082200B63D4908803AFF0098
:1015C0005E08803A7F02031DEB2A5D084802031D76
:1015D000EB2A5C0847020318EE2AEF2AF62A5C0879
:1015E000C7005D08C8005E08C900F62A5E08803A98
:1015F000FF004C08803A7F02031D042B4B085D025C
:10160000031D042B4A085C020318072B082B0F2B21
:101610005C08CA005D08CB005E08CC000F2B0130CF
:101620002100D60056082200D907632BDA01DB011E
:10163000D408031D1C2B1D2B612B10302100D6005C
:1016400056082200E700E80168302100D60056085D
:101650002000E500F0302100D70057082000E60008
:1016600003302100D80058082000E700673092318D
:101670004A22883110302100D60056082200E700A7
:1016800003302100D60056082200E800683021000F
:10169000D60056082000E500F0302100D70057089A
:1016A0002000E60003302100D80058082000E700A1
:1016B000673092314A2288312200D4010314D40DBC
:1016C000612BBA01632B03302100D6005608F600C7
:1016D00022006208013991319D2188316A3E8600DD
:1016E0000130870022006408C03F6508C13F6608DA
:1016F000C23F5008023A031D7E2B7F2B762F3A08FB
:10170000013A031D842B852B762F2500161420000B
:1017100018148B172200E701E80168302100D60079
:1017200056082000CE003A302100D700570820008C
:10173000CF0003302100D80058082000D0006730C7
:10174000833175238831220059082100D600D70142
:10175000D801D9015908F3005808F2005708F100E0
:101760005608F00022003208F7003108F600300871
:10177000F5002F08F40095313D25883173082000CD
:10178000A3007208A2007108A1007008A0009231A5
:10179000C8228831200020082200BE002000210835
:1017A0002200BF00200022082200C0003E082000C6
:1017B000C10022003F082000C20022004008200093
:1017C000C300220041082100D60022004208210067
:1017D000D700220043082100D8002200440921003C
:1017E000D900220045092100DA0022004609210023
:1017F000DB00D90A0319DA0A0319DB0A5908D607EC
:101800005A08D73D5B08D83D5608F8005708F9003C
:101810005808FA0092317122883178082000C400FB
:101820007908C5007A08C60086311626883120005E
:1018300041082200BE00200042082200BF00200014
:1018400043082200C00059082100D600D701D80162
:10185000D9015908F3005808F2005708F10056085A
:10186000F00022003608F7003508F6003408F500CD
:101870003308F40095313D25883173082000A3001A
:101880007208A2007108A1007008A0009231C8225D
:101890008831200020082200DF00200021082200DB
:1018A000E000200022082200E1005F082000C100C3
:1018B000220060082000C200220061082000C3004E
:1018C000220047082100D600220048082100D70046
:1018D000220049082100D80022004A092100D9002D
:1018E00022004B092100DA0022004C092100DB0014
:1018F000D90A0319DA0A0319DB0A5908D6075A0864
:10190000D73D5B08D83D5608F8005708F90058083D
:10191000FA0092317122883178082000C4007908D9
:10192000C5007A08C6008631162688312000410895
:101930002200DF00200042082200E00020004308CF
:101940002200E10003302100D6005608F6002200F4
:101950005B08F301F3075A08F201F2070A30F000BE
:101960000030F1009231F8228831700891319D21C8
:101970008831A03E8600870122003E082000C10079
:1019800022003F082000C200220040082000C300BF
:1019900022005F082000C400220060082000C5006B
:1019A000220061082000C6008631162688312000FA
:1019B0004108C03F4208C13F4308C23F0A30F0001F
:1019C0000030F10022005B08F301F3075A08F2012E
:1019D000F2079231F822883170080907BE3E86006E
:1019E000870122006208C03F6308C13F0130DA0767
:1019F0000030DB3D00305B020F3003195A02031C3C
:101A0000022D032D582E00302000C4001630C500D2
:101A10004430C60022005A08FF3EF200FF305B3D12
:101A2000F3000A30F0000030F1009231F8228831E2
:101A300070080907BE3E8600870122005A08F63E5C
:101A4000F200FF305B3DF3000A30F0000030F1009F
:101A50009231F822883170080907BE3E8400850162
:101A6000003F2100D600013FD700D609D709D60A8A
:101A70000319D70A403F56072000AA00413F210022
:101A8000573D2000AB00AC01AD019331FB23883101
:101A900020002A08B4002B08B5002C08B600CD3071
:101AA000B1004C30B2003D30B3008431882488311D
:101AB00020003108C1003208C2003308C30086315B
:101AC0001626883120004108F8004208F900430832
:101AD000FA0097316127883178082100D80058082A
:101AE0002200D90010302100D60056082200E7005D
:101AF000E80168302100D60056082000E5002200E9
:101B000059082100D70057082000E60003302100C3
:101B1000D80058082000E700673085315225883109
:101B200000302200DF000030E0000030E100E90179
:101B30000A306902031C9D2D9E2DA02DDC2DDC2D6D
:101B400003302100D6005608F600220069089131C2
:101B50009D218831A03E86008701403F2000C100C2
:101B6000413FC200423FC30022005F082000C40082
:101B7000220060082000C500220061082000C60085
:101B8000823145228831200041082200DF002000F8
:101B900042082200E000200043082200E10001305A
:101BA0002100D60056082200E9070A306902031C0A
:101BB000DA2DDB2DA02DDC2D00302000C1002030DF
:101BC000C2004130C30022005F082000C400220090
:101BD00060082000C500220061082000C600863190
:101BE00016268831200041082200DF00200042082C
:101BF0002200E000200043082200E1005F082000EE
:101C0000B400220060082000B50022006108200016
:101C1000B600BF30B1000530B200C230B30084312D
:101C20008824883120003108C4003208C5003308F8
:101C3000C600CD30C100E530C2004230C300823161
:101C40004522883120004108F8004208F900430885
:101C5000FA0097316127883178082100D6005608AC
:101C60002200D90010302100D60056082200E700DB
:101C700003302100D60056082200E8006830210019
:101C8000D60056082000E500220059082100D700A0
:101C900057082000E60003302100D8005808200033
:101CA000E70067308531522588312200D401A22E09
:101CB000D408031D5C2E5D2EA22E10302100D6000C
:101CC00056082200E700E80168302100D6005608D7
:101CD0002000E500F0302100D70057082000E60082
:101CE00003302100D80058082000E7006730923107
:101CF0004A22883110302100D60056082200E70021
:101D000003302100D60056082200E8006830210088
:101D1000D60056082000E500F0302100D700570813
:101D20002000E60003302100D80058082000E7001A
:101D3000673092314A2288312200D4010314D40D35
:101D4000A22EA22E58302100D6005608F500693088
:101D5000883109208831003A0319AF2EB02E322F76
:101D600032302100D60056082200E700063021005C
:101D7000D60056082200E80068302100D600560838
:101D80002000E500220069082100D7005708200044
:101D9000E60002302100D80058082000E700673034
:101DA00094314224883168302100D6005608200042
:101DB000CE0040302100D70057082000CF0002306D
:101DC0002100D80058082000D000673083317523E7
:101DD000883168302100D60056082000CE0022004D
:101DE000580892310C22883120002A08B4002B08B0
:101DF000B5002C08B6000030B1002030B2003F30F2
:101E0000B30084318824883120003108C4003208AE
:101E1000C5003308C6000030C1004030C200423067
:101E2000C30082314522883120004108F800420871
:101E3000F9004308FA0097316127883178082100BA
:101E4000D70057082000CF0002302100D8005808E2
:101E50002000D0006730833175238831913185218E
:101E60008831322F2200E701E80168302100D600D6
:101E700056082000CE003B302100D7005708200034
:101E8000CF0003302100D80058082000D000673070
:101E900083317523883100302200B2000030B10058
:101EA0000030B0000030AF000030B6000030B500A8
:101EB0000030B4000030B300D9010030C100003060
:101EC000C2000030C300FF30C400FF30C5007F30C7
:101ED000C6000030C7000030C8000030C900FF3025
:101EE000CA00FF30CB007F30CC00762F0130E207F4
:101EF0000030E33D3F3062052100D6000030220073
:101F000063052100D70057085604031D882F892F29
:101F10003B2822005508A3005608A4005708A50036
:101F20004D082100D60022004E082100D7002200D3
:101F30004F082100D800220055092100D9002200B5
:101F400056092100DA00220057092100DB00D90AD6
:101F50000319DA0A0319DB0A5908D6075A08D73DCC
:101F60005B08D83D5608F3005708F4005808F50000
:101F70003030F0000030F1000030F20087317C2773
:101F8000883170082100DC007108DD007208DE0075
:101F90000630DC35DD0DDE0D890BC92F5C08220013
:101FA000A00021005D082200A10021005E0822009F
:101FB000A2003030F0000030F1000030F2002008C4
:101FC000F3002108F4002208F50087317C278831CE
:101FD00070082200A6007108A7007208A80000304F
:101FE000CD000030CE000030CF00FF30D500FF30F4
:101FF000D6007F30D7003B283B283B288031102873
:10200000FF3FFF3FFF3FFF3FFF3FFF3FFF3FFF3FE0
:10201000FF3FFF3FFF3FFF3FFF3FFF3FFF3FFF3FD0
:10202000FF3FFF3FFF3FFF3FFF3FFF3FFF3FFF3FC0
:10203000FF3FFF3FFF3FFF3FFF3FFF3FFF3FFF3FB0
:10225000FF3F640080010131890B2A2900342400EA
:10226000161432291618352936293229372908003B
:1022700020009111240096143D29961840294129E7
:102280003D294229080024000E148E1421000E144A
:102290008E14133024009200940128309500080019
:1022A000F0002000911170082400910057291419A2
:1022B0005A295B2957295C290800F30091312F2105
:1022C0009131730891315021913171089131502130
:1022D0009131720891315021913188310020913132
:1022E0000800EE01EF01A03084000030850032309C
:1022F0009131292191312200EA01EB01EC01ED013C
:10230000EE01EF0120008031F4280330F40074085E
:10231000F1000230F5007508F200AE3091315D2118
:1023200091312130F4007408F100F2010314F20D30
:10233000AE3091315D2191310800F900F801A029FA
:10234000791CA329A429A9297608F7007708F8079A
:10235000A9290310F60D0310F90CF908031DB12982
:10236000B229A029B3297808B5290800F000200077
:10237000911124009615BC299619BF29C029BC29A2
:10238000C1297008031DC529C7299616C8299612A8
:102390001616CA29161ACD29CE29CA29CF291108FD
:1023A000D1290800F001F10104307102A1300319B4
:1023B0007002031CDC29DD29DF29EE29EE2900004B
:1023C0000130F0070030F13D04307102A1300319F3
:1023D0007002031CEC29ED29DF29EE290800F20028
:1023E00091312F2191317830913150219131710803
:1023F000031DFB29002A4030913150219131042ADC
:102400000030913150219131720891315021913138
:102410008831002091310800FC007C082000AD00CC
:10242000AE01AF012D08F0002E08F1002F08F200D8
:102430008E30B0003008F300F40196317A269231E4
:1024400070082000AA007108AB007208AC00282AAE
:102450000800F40091312F219231740891315021FC
:10246000923171089131502192319131382192315C
:102470007408013891315021923101309131B621E7
:102480009231F2007208F300883100209231730813
:10249000492A08002000EB00662A6508E800680861
:1024A000CE00660880310A009231E9006908CF0049
:1024B0006708EA006A08D0006B08833175239231FF
:1024C00001302000E8006808E607662A66088031C7
:1024D0000A0092310038031D6E2A6F2A4D2A702A95
:1024E0000800FD01FA1F752A762A822AF809F909DF
:1024F000FA09F80A0319F90A0319FA0AFD01031483
:10250000FD0D822A7808F0007908F1007A08F200BF
:102510008E30FB007B08F3007D08FC007C08F40093
:1025200096317A2692317008F8007108F900720825
:10253000FA009A2A0800F30091312F219231783065
:10254000913150219231003091315021923120301F
:1025500091315021923100309131502192317108E6
:10256000B0389131502192317308F2000430F236C4
:10257000890BB72A720810389131502192317308B3
:102580000F39913150219231883100209231080069
:102590008E302000A4002408A500DA2A0130A336DA
:1025A000A20CA10CA00C890BCF2A0130A400240896
:1025B000A507DA2AFF302305031DDF2AE02ACE2AE9
:1025C000E12A2008F0002108F1002208F200250885
:1025D000A4002408F300F40196317A2692317008A1
:1025E0002000A0007108A1007208A200F72A0800CC
:1025F000710870040319FD2AFE2A2E2BF50103141D
:10260000F50D0C2B0130F035F10D890B032B01304A
:10261000F4007408F5070C2BF11F0F2B102B022B65
:10262000122B122B71087302031D182B70087202F3
:10263000031C1B2B1C2B212B7008F2027108F33B8F
:10264000212B0130F136F00C890B222B0130F502E1
:10265000031D2B2B2C2B122B2E2B2E2B7308F10151
:10266000F1077208F001F007352B0800F8009131EE
:102670002F21933178089131502193317108913194
:1026800050219331913138219331780801389131BB
:1026900050219331F9016B2B7308FF3EF400FF309A
:1026A00003180030F500790874067504003003192A
:1026B00001309131B6219331F60079087207F700A5
:1026C0007708860001308700760881000130F40029
:1026D0007408F9076B2B73087902031C702B712B9C
:1026E0004C2B722B883100209331080023008C0181
:1026F0008E0124008E018C01210095139910191070
:10270000191799161916991199178E1225009E10EE
:102710001E10193020009B000C3025009100200075
:102720009C141C141C1525009313131393151315D7
:10273000931013101610961016119611200099136D
:10274000181018139813181698169701960121005F
:1027500011140B1791314321933196310B2693318C
:1027600094318A2493319431E1249331080020007C
:10277000A1000430FA007A08F100AE30923129222B
:102780009331FB000630FC007C08F100AE30923142
:1027900029229331FF3A013E7B07FD007D0820008E
:1027A000A0002008031DD52BF82B0730FA007A086B
:1027B000F1002108FB007B08F2000630FC007C08D9
:1027C000F300AE309331362393310330FA0020000A
:1027D00021088600013087007A0881050330FA005D
:1027E0002108033E8600013087007A088105F82B16
:1027F0002008FA2B08002000AF018E30FC007C0876
:10280000AE00AD1F042C052C212CAA09AB09AC0984
:10281000AD09AA0A0319AB0A0319AC0A0319AD0AD8
:10282000AF010314AF0D212C212C0130AD36AC0CBF
:10283000AB0CAA0C890B162C0130FC007C08AE07EF
:10284000212CFF302D05031D262C272C152C282C80
:102850002A08F0002B08F1002C08F2002E08FC00DA
:102860007C08F3002F08FD007D08F40096317A26DD
:10287000933170082000AA007108AB007208AC0008
:10288000412C08002000EC000A30F0000030F1007C
:102890006608E800E9016808F2006908F30095316C
:1028A0009F25943170082000EA006A08ED000A3084
:1028B000E8006808F6006D0891319D219431FF3AD7
:1028C000013E20006607E9006908EB006508E800A2
:1028D0006808CE006D08303EE9006908CF0067083F
:1028E000EA006A08D0006C08833175239431200017
:1028F0006508E8006808CE006B08303EE90069080A
:10290000CF006708EA006A08D0006C08833175239D
:102910009431080091312F21943178309131502138
:1029200094310030913150219431A83091315021AF
:1029300094313F30913150219431D3309131502135
:1029400094310030913150219431403091315021F7
:102950009431A130913150219431C83091315021BE
:102960009431DA309131502194311230913150212B
:10297000943181309131502194317F309131502107
:102980009431A430913150219431A63091315021AD
:102990009431D53091315021943180309131502192
:1029A00094318D3091315021943114309131502136
:1029B0009431AF30913150219431883100209431DD
:1029C000080091312F219431783091315021943188
:1029D0000030913150219431203091315021943187
:1029E0000030913150219431213091315021943176
:1029F00000309131502194317F3091315021943108
:102A00002230913150219431003091315021943154
:102A10000730913150219431883100209431913127
:102A20002F219431783091315021943140309131BF
:102A300050219431F101F201043072020030031987
:102A40007102031C242D252D272D392D392D003001
:102A50009131502194310130F1070030F23D0430C2
:102A60007202003003197102031C372D382D272DF7
:102A7000392D88310020943108000030FC000030EE
:102A8000FB000030FA000030F90073087204710492
:102A9000700403194C2D4D2D952DFD010314FD0DD2
:102AA0005D2D0130F035F10DF20DF30D890B522D36
:102AB0000130F8007808FD075D2DF31F602D612DB2
:102AC000512D632D632D0130F935FA0DFB0DFC0DF1
:102AD000890B642D73087702031D782D7208760226
:102AE000031D782D71087502031D782D700874027E
:102AF000031C7B2D7C2D862D7008F4027108F53B9C
:102B00007208F63B7308F73B7914862D0130F336D3
:102B1000F20CF10CF00C890B872D0130FD02031D26
:102B2000922D932D632D952D952D7C08F3007B0818
:102B3000F2007A08F1007908F0009E2D0800F601F5
:102B4000F11FA32DA42DAD2DF009F109F00A0319F1
:102B5000F10AF6010314F60DAD2DF31FB02DB12DC2
:102B6000BB2DF209F309F20A0319F30A0130F4004C
:102B70007408F606BB2DF701F801710870040319FB
:102B8000C22DC32DF92DF5010314F50DD12D013002
:102B9000F035F10D890BC82D0130F4007408F507EC
:102BA000D12DF11FD42DD52DC72DD72DD72D0130E7
:102BB000F735F80D890BD82D71087302031DE22D2E
:102BC00070087202031CE52DE62DEC2D7008F20250
:102BD0007108F33B7714EC2D0130F136F00C890BC2
:102BE000ED2D0130F502031DF62DF72DD72DF92D12
:102BF000F92D7608031DFD2D032EF709F809F70AB4
:102C00000319F80A032E7808F101F1077708F0019B
:102C1000F0070A2E0800FF30F5007508F100AE300D
:102C2000923129229631153A0319172E182E1A2E91
:102C3000792E792E0930F5007508F1004030F60044
:102C40007608F200AE3091315D219631F7017708B8
:102C5000FF3A031D2C2E2D2E2F2E3D2E3D2E913171
:102C6000D22196310130F5007508F7077708FF3A51
:102C7000031D3B2E3C2E2F2E3D2E0830F5007508EF
:102C8000F1004030F6007608F200AE3091315D215F
:102C900096310930F5007508F1000330F60076082A
:102CA000F200AE3091315D2196310A30F5007508A1
:102CB000F1002730F6007608F200AE3091315D2148
:102CC00096310C30F5007508F1001F30F6007608DB
:102CD000F200AE3091315D2196310D30F50075086E
:102CE000F1001F30F6007608F200AE3091315D2120
:102CF000963108007308031D7E2E862E720871041B
:102D00007004031D842E852E9A2E862E0030F0002E
:102D10000030F1000030F200EC2EEC2E9A2E013043
:102D2000F5007508F3070130F236F10CF00C890B51
:102D3000942E9A2EFE307205031D9F2EA02E8F2EEC
:102D4000B62EB62E0130F5007508F3070130F007F6
:102D5000003003180130F107003003180130F2078A
:102D60000130F236F10CF00C890BB12EFF307205F8
:102D7000031DBB2EBC2EA22EC72EC72E0130F30280
:102D80000130F035F10DF20D890BC12EC72EF11F68
:102D9000CA2ECB2EBE2E7318CE2ECF2ED52EFF30A0
:102DA000F0057F30F105FF30F2050310F30C7308D6
:102DB000F500F601F7011030F535F60DF70D890B2A
:102DC000DC2E7508F0047608F1047708F204740824
:102DD000031DEB2EEC2EF2170800FC0091312F2181
:102DE00096317830913150219631403091315021D7
:102DF00096317C08203A031DFE2EFF2E042F3A3018
:102E0000FB007B08FC00042F3030FC027A08031D15
:102E10000A2F342FFD0105307D02031C102F112FC6
:102E2000132F2F2F2F2F0530FB007B08F6007C0877
:102E300091319D219631143E7D0780310A009731F2
:102E4000FF3A9131502196310130FB007B08FD079C
:102E500005307D02031C2D2F2E2F132F2F2FFF3017
:102E60009131502196315D2FFD0105307D02031C0B
:102E70003A2F3B2F3D2F582F582F0530FB007B0852
:102E8000F6007C0891319D219631143E7D078031FA
:102E90000A0097319131502196310130FB007B08B7
:102EA000FD0705307D02031C562F572F3D2F582F4D
:102EB00000309131502196315D2F883100209631BC
:102EC000080078082000A0007908A1007A08A20074
:102ED0000310210D220DA3002308A900A908031D3A
:102EE000722F732F7D2F0030FB000030FA0000306E
:102EF000F9000030F800FF2FFF2F7808A0007908B4
:102F0000A1007A08A2001730A236A10CA00C890BF0
:102F1000842F2008A3002308A400F917FF30F80528
:102F2000FF30F9050030FA057808A5007908A600F9
:102F30007A08A700A8018E30A902A91FA02FA12FEF
:102F4000C42F2908803A8F3E0318A72FA82FB32F2C
:102F50000030FB000030FA000030F9000030F800CB
:102F6000FF2FFF2FB32F0130A836A70CA60CA50CFE
:102F7000890BB42F0130A0002008A907031DC12F21
:102F8000C22FB32FE62FE62F18302902031CC92FBA
:102F9000CA2FDF2F0030FB000030FA000030F900AC
:102FA0000030F800FF2FFF2FDF2F0130A535A60DD1
:102FB000A70DA80D890BD62F0130A902DF2FA90874
:102FC000031DE32FE42FD52FE62FE62F2408031D42
:102FD000EA2FF62FA509A609A709A809A50A03192A
:102FE000A60A0319A70A0319A80AF62F2808FB0046
:102FF0002708FA002608F9002508F800FF2F080026
:10300000FF3FFF3FFF3FFF3FFF3FFF3FFF3FFF3FD0
:10301000FF3FFF3FFF3FFF3FFF3FFF3FFF3FFF3FC0
:10302000FF3FFF3FFF3FFF3FFF3FFF3FFF3FFF3FB0
:10303000FF3FFF3FFF3FFF3FFF3FFF3FFF3FFF3FA0
:020000040001F9
:04000E00FC3FFFFFB5
:00000001FF
