:020000040000FA
:1000000080311028FF3FFF3F80312000111C09285C
:100010000A280F2811101810250016100F280900A3
:1000200088019131602900347C34A23492348A34BE
:100030007C3400348434FE3480340034E43492342C
:10004000923492348C3444348234923492346C340A
:10005000303428342434FE3420344E348A348A3404
:100060008A34723478349434923492346034023462
:10007000E23412340A3406346C34923492349234BA
:100080006C340C349234923452343C3400340034A6
:100090000034003400341C347E34FC347E341C3490
:1000A000103428344434823400342834283428343A
:1000B0002834283482344434283410340034403412
:1000C00020341034083404340034C034C0340034D4
:1000D0000034F834243422342434F8348234FE34A6
:1000E000923492346C347C3482348234823444349A
:1000F0008234FE34823482347C34FE34923492343E
:1001000082348234FE3412341234023402347C34A9
:100110008234923492347434FE34103410341034F7
:10012000FE3400348234FE3482340034403480346F
:1001300082347E340234FE34103428344434823421
:10014000FE348034803480348034FE3404341834F7
:100150000434FE34FE34043408341034FE347C3469
:100160008234823482347C34FE34123412341234B9
:100170000C347C348234A2344234BC34FE34123425
:10018000323452348C344C34923492349234643459
:1001900002340234FE34023402347E34803480343B
:1001A00080347E340E343034C03430340E34FE3477
:1001B000403430344034FE34C634283410342834CB
:1001C000C63406340834F03408340634C234A23459
:1001D00092348A348634543445344D3450340034A7
:1001E00020342034203400342200E9010230690236
:1001F000031CFB28FC28FE281E291E290330210091
:10020000D6005608F6002200690891318C21803111
:100210006A3E8600013087000030C03F0030C13F99
:100220000030C23F01302100D60056082200E90705
:1002300002306902031C1D291E29FE28E9010A302B
:100240006902031C24292529272951295129033012
:100250002100D6005608F6002200690891318C2151
:100260008031A03E860087010030C03F0030C13F92
:100270000030C23F220069080907BE3E86008701A0
:100280000030C03F0030C13F01302100D600560889
:100290002200E9070A306902031C4F295029272947
:1002A00051290030C1000030C2000030C300FF30CF
:1002B000C400FF30C5007F30C6000030C7000030EA
:1002C000C8000030C900FF30CA00FF30CB007F30CB
:1002D000CC000030CD000030CE000030CF00FF3029
:1002E000D500FF30D6007F30D7000030B20000309C
:1002F000B1000030B0000030AF000030B600003078
:10030000B5000030B4000030B300D901DA01DB01E0
:100310000030A3008030A4000130A5004030A600CA
:100320000030A7000030A8009331A82380312200BC
:10033000E201E301D001BA01E701E80168302100E0
:10034000D60056082000CE003B302100D7005708C9
:100350002000CF0003302100D80058082000D00032
:10036000673083317B2380312200E7010330210095
:10037000D60056082200E80068302100D600560852
:100380002000CE004F302100D70057082000CF00BA
:1003900003302100D80058082000D0006730833196
:1003A0007B23803105302100D60056082000A000B4
:1003B0000A309131DE2180312000A00120309631B9
:1003C000C926803105302100D60056082000A00043
:1003D0000B309131DE2180312000A0013230963186
:1003E000C92680312200E70106302100D6005608D8
:1003F0002200E80068302100D60056082000E50001
:10040000EB302100D70057082000E6000230210021
:10041000D80058082000E700673092313922803137
:1004200006302100D60056082000A000643091312B
:10043000DE2180312000A0014F309631C926803165
:100440006A302100D60056082200E700063021005D
:10045000D60056082200E80068302100D600560871
:100460002000CE0043302100D70057082000CF00E5
:1004700002302100D80058082000D00067308331B6
:100480007B2380312200D4010314D40D91317421D7
:10049000803188313A2820004108C7004208C8004E
:1004A0004308C9000310480D490DCA004A08CD0091
:1004B0004408C7004508C8004608C9000310480D95
:1004C000490DCA004A08CC004D08031D682A792A44
:1004D0004C084D0203186D2A6E2A812A4D03FF3AFB
:1004E0004C07C70019304702031C772A782A812A53
:1004F000792A4408C1004508C2004608C3007A2B87
:100500007A2B4C08031D852A952A4D084C020318A6
:100510008A2A8B2A962A4C03FF3A4D07C7001930C6
:100520004702031C942A952A962A7A2B0630C70084
:100530004708CB00C31F9D2A9E2A9F2ACB17C61FA0
:10054000A22AA32AA42A4B17C217FF30C105FF30E5
:10055000C2050030C305C517FF30C405FF30C5050F
:100560000030C6054C084D020318B72AB82AE52A00
:10057000B92A0130C435C50DC60D890BBA2A013020
:10058000CC024C084D060319C62AC72ADD2A0130C1
:10059000CB024B080739031DCE2ACF2AB92ADD2A00
:1005A000DD2ADD2A0130C336C20CC10C890BD32AE7
:1005B0000130C7004708CD07DD2A4D084C06031D52
:1005C000E22AE32AD22A182B182B4D084C020318D2
:1005D000EA2AEB2A182BEC2A0130C135C20DC30DD3
:1005E000890BED2A0130CD024C084D060319F92A7A
:1005F000FA2A102B0130CB024B080739031D012BBF
:10060000022BEC2A102B102B102B0130C636C50CF8
:10061000C40C890B062B0130C7004708CC07102BF0
:100620004D084C06031D152B162B052B182B182BCC
:10063000CB1F1B2B1C2B2D2BFF30C106FF30C206FE
:10064000FF30C3060130C107003003180130C20774
:10065000003003180130C3072D2B4B1F302B312BDB
:10066000422BFF30C406FF30C506FF30C6060130FE
:10067000C407003003180130C507003003180130EB
:10068000C607422BCB014108C4074208C53D4308B9
:10069000C63DC61F4C2B4D2B612BFF30C406FF30CF
:1006A000C506FF30C6060130C4070030031801300C
:1006B000C507003003180130C607CB010314CB0D6A
:1006C000612B4408F0004508F1004608F2004D088F
:1006D000C7004708F3004B08C8004808F4009631EB
:1006E0005626823170082000C1007108C2007208CD
:1006F000C3007A2B08002000DF004F08203A031DBA
:10070000822B832B882B3A30D1005108CF00882BC5
:100710003030CF025F088600013087000108D10029
:100720005108E0004E088600013087000108D10022
:100730005108DE00E10105306102031CA02BA12B52
:10074000A32B532C532C0530D1005108F6004F0831
:1007500091318C218331143E2000610780310A00E1
:100760008331D2005208DD00E401362CE2015E083C
:10077000D1005108A00060089131DE2183312000B2
:10078000E30108306302031CC62BC72BC92B152CB1
:10079000152C5D08D100D2010130D3000030D40007
:1007A0005008D500D6015508F0005608F10063083E
:1007B000D700D8016408D900DA010330D935DA0D41
:1007C000890BDE2B57085907F20058085A3DF300F1
:1007D00095317B2583317008890A2000F12BD335B0
:1007E000D40D890BEF2B51085305DB00520854053B
:1007F000DC005C085B040319FE2BFF2B0A2C013084
:10080000D100630A042CD135890B032C5108D20086
:100810005208E2040130D1005108E30708306302B6
:10082000031C132C142CC92B152CFA010314FA0DDC
:100830006208883105208331FA010314FA0D200083
:100840006208883105208331FA010314FA0D200073
:10085000620888310520833101302000D100510821
:10086000DE070130D1005108E407362C500864023D
:10087000031C3B2C3C2CB62B3D2C4E088600013033
:1008800087000108D1005108DE005008D10051084E
:10089000E0070130D1005108E10705306102031C77
:1008A000522C532CA32BE4016F2C4E0886000130F0
:1008B000870001086407D1005108A0006008913149
:1008C000DE218331FA010314FA0D0030883105204E
:1008D000833101302000D1005108E4076F2C50080B
:1008E0006402031C742C752C552C762C0530D10019
:1008F0005108F600500891318C218331013E2000CF
:10090000D2005F0886000130870052088107080086
:1009100020003108B7003208B8003308B9000310CE
:10092000380D390DBA003A08BB00BB08031D992CDD
:100930009A2CA22C0030B1000030B2000030B3007D
:10094000512D512D3408B7003508B8003608B900CC
:100950000310380D390DBA003A08C000C008031D55
:10096000B22CB32CBB2C0030B1000030B2000030F0
:10097000B300512D512D40087B3EB7003708BB070F
:100980003108B7003208B8003308B9001030B93662
:10099000B80CB70C890BC72C3708BA003A08C0004E
:1009A0003408B7003508B8003608B9001030B93639
:1009B000B80CB70C890BD72C3708BA003A08C00618
:1009C0008030B7003708C005B217B517FF30B4053F
:1009D000FF30B5050030B6050030BC000030BD006A
:1009E0000030BE000730B7003708BF00F72C311CBD
:1009F000FA2CFB2C022D3408BC073508BD3D360807
:100A0000BE3D022D0130B336B20CB10C890B032D63
:100A10000130B435B50DB60D890B092D0130BF027B
:100A2000031D132D142DF72C152D0930B700370891
:100A3000BF001A2D311C1D2D1E2D252D3408BC077D
:100A40003508BD3D3608BE3D252D0130B336B20C0C
:100A5000B10C890B262D0130BE36BD0CBC0C890BA8
:100A60002C2D0130BF02031D362D372D1A2D382DA8
:100A70003C08F0003D08F1003E08F2003B08B700DA
:100A80003708F3004008B8003808F40096315626BD
:100A9000843170082000B1007108B2007208B30000
:100AA000512D08002100D3006430F0000030F10027
:100AB00020006608E800E9016808F2006908F30010
:100AC00095317B25853170082000EA006A082100F5
:100AD000D5000A30F0000030F10020006608E80080
:100AE000E9016808F2006908F30095317B2585313A
:100AF00070082000EA007108EB000A30EC006C0876
:100B0000F6002100550891318C218531FF3A013ED4
:100B100020006A07ED006D082100D4006430200039
:100B2000E8006808F6002100550891318C218531D4
:100B30002000E9000A30EA006A08F60021005408A3
:100B400091318C21853120006907FF3A013E66070B
:100B5000EB006B082100D20030302000E80068086C
:100B60002100D5075508303A031DB72DB82DBF2DEC
:100B70003A302000E80068082100D500BF2D303051
:100B80002000E80068082100D40755083A3A031D00
:100B9000CA2DCB2DD82D5408303A031DD02DD12D80
:100BA000D82D3A302000E80068082100D400D82D64
:100BB00020006508E8006808CE00210055082000E4
:100BC000E9006908CF006708EA006A08D000210040
:100BD000530883317B23853120006508E8006808CD
:100BE000CE00210054082000E9006908CF00670802
:100BF000EA006A08D0002100530883317B23853145
:100C000020006508E8006808CE0021005208303E48
:100C10002000E9006908CF006708EA006A08D000F0
:100C20002100530883317B238531080020004408CC
:100C3000C7004508C8004608C9000310480D490D03
:100C4000CA004A08CF00CF08031D272E282E302EB9
:100C50000030C1000030C2000030C300CD2ECD2EC8
:100C60004108C7004208C8004308C9000310480DE6
:100C7000490DCA004A08D000D008031D402E412E5D
:100C8000492E0030C1000030C2000030C300CD2E1C
:100C9000CD2E0030CC000030CD000030CE008930A9
:100CA0005007C7004708CF024408C7004508C800DE
:100CB0004608C9001030C936C80CC70C890B5B2E1A
:100CC0004708CA004A08D0004108C7004208C800C7
:100CD0004308C9001030C936C80CC70C890B6B2EED
:100CE0004708CA004A08D0068030C7004708D00528
:100CF000C517FF30C405FF30C5050030C605C21753
:100D0000FF30C105FF30C2050030C3051830C700F1
:100D10004708CB008B2E0130CC35CD0DCE0D890B85
:100D20008C2E43084602031D9B2E42084502031DDC
:100D30009B2E41084402031C9E2E9F2EA72E410885
:100D4000C4024208C53B4308C63B4C14A72E0130E1
:100D5000C435C50DC60D890BA82E0130CB02031D6D
:100D6000B22EB32E8B2EB42E4C08F0004D08F1009D
:100D70004E08F2004F08C7004708F3005008C800AB
:100D80004808F40096315626863170082000C100CC
:100D90007108C2007208C300CD2E08002000A9000F
:100DA000A908031DD42ED52EDC2E2308A400A501EE
:100DB0002408EE002508EF002308A400A50125085B
:100DC0006F02031DE52E24086E020318E82EE92E9B
:100DD000F32E2308A4002408A7006E08013EA400F7
:100DE0002408A800142F2308A400A5016F082502D9
:100DF000031DFC2E6E0824020318FF2E002F0A2F5D
:100E00002308A4002408A8006E08FF3EA4002408BC
:100E1000A700142F2308A4002408A8006E08A4002B
:100E20002408A700142F142FAB0106302B02031C3B
:100E30001A2F1B2F1D2F742F742FA601AC01083001
:100E40002C02031C242F252F272F572F572F2B031E
:100E5000FF3AA4000330A435890B2B2F2C03FF3A53
:100E600024072F3EA5002508AA0028082A02031CF3
:100E70003A2F3B2F4C2F2A082702031C402F412FCB
:100E80004C2F0130A4002C0A462FA435890B452F86
:100E90002408A5002508A6040130A4002408AC07F6
:100EA00008302C02031C552F562F272F572F2B08A5
:100EB000A4002408A0002908403E9131DE2186319B
:100EC000FA010314FA0D2000260888310520863126
:100ED00001302000A4002408AB0706302B02031CBD
:100EE000722F732F1D2F742F2308A400A50124082F
:100EF000EE002508EF000800F801F21F802F812F77
:100F00008D2FF009F109F209F00A0319F10A03190A
:100F1000F20AF8010314F80D8D2FF51F902F912F71
:100F20009E2FF309F409F509F30A0319F40A0319CA
:100F3000F50A0130F6007608F8069E2F0030F90019
:100F40000030FA000030FB007208710470040319CD
:100F5000AA2FAB2FEA2FF7010314F70DBA2F013098
:100F6000F035F10DF20D890BB02F0130F600760847
:100F7000F707BA2FF21FBD2FBE2FAF2FC02FC02FE4
:100F80000130F935FA0DFB0D890BC12F720875027E
:100F9000031DD02F71087402031DD02F7008730237
:100FA000031CD32FD42FDC2F7008F3027108F43BFD
:100FB0007208F53B7914DC2F0130F236F10CF00C9D
:100FC000890BDD2F0130F702031DE72FE82FC02F1B
:100FD000EA2FEA2F7808031DEE2FF72FF909FA09F7
:100FE000FB09F90A0319FA0A0319FB0AF72F790812
:100FF000F0007A08F1007B08F200FE2F0800FF3FA6
:10100000FF3FFF3FFF3FFF3FFF3FFC0022008C12EE
:101010007A08031D0C280E280C160F280C12FD014F
:1010200008307D02031C1528162818283728372871
:1010300000000030FC1B0130FB00FB0DFB0DFB0D25
:1010400022000E087B06F7397B068E000000220086
:101050000E120E1600000310FC0D0130FB007B0881
:10106000FD0708307D02031C362837281828220087
:101070008C16080029309331E92388312100D600ED
:1010800056082200E900E908031D472848284A2895
:101090003A283A28640022002B082100D600D70104
:1010A000D80122002A082100D900DA01DB0108302A
:1010B000D935DA0DDB0D890B5828220029082100CB
:1010C000DC00DD01DE011030DC35DD0DDE0D890BCD
:1010D00064285C08D9045D08DA045E08DB0459085A
:1010E000D6045A08D7045B08D80456082200E40046
:1010F000210057082200E500210058082200E600E0
:101100002E082100D600D701D80122002D08210089
:10111000D900DA01DB010830D935DA0DDB0D890B96
:101120008C2822002C082100DC00DD01DE011030BB
:10113000DC35DD0DDE0D890B98285C08D9045D08CF
:10114000DA045E08DB045908D6045A08D7045B08A1
:10115000D80456082200DC00210057082200DD00D8
:10116000210058082200DE002608F0002708F100C0
:101170002808F20064082100D6002200650821003A
:10118000D700220066082100D80022002309210090
:10119000D900220024092100DA00220025092100BB
:1011A000DB00D90A0319DA0A0319DB0A5908D60742
:1011B0005A08D73D5B08D83D5608F3005708F4009D
:1011C0005808F50087317C278831083070072200E5
:1011D000D1000030713DD2000030723DD300D31FEA
:1011E000F228F328F528B90116295308803AFF00A0
:1011F0000030803A7F02031D032900305202031D94
:10120000032930305102031C062907290E292F30EB
:101210002100D60056082200B900162951082100E5
:10122000D60056082200B9001629162962083F394F
:101230002100D60056082200D80039082100D60027
:1012400056082000A300220058088631CE26883197
:1012500022004F08803AFF006608803A7F02031D93
:10126000372965084E02031D372964084D0203180B
:101270003A293B2942296408CD006508CE0066085A
:10128000CF0042296608803AFF005708803A7F0263
:10129000031D502956086502031D50295508640294
:1012A0000318532954295B296408D5006508D60022
:1012B0006608D7005B296608803AFF000030803A54
:1012C0007F02031D692940306502031D6929013031
:1012D0006402031C6C296D29162B5E08803AFF00FE
:1012E0000030803A7F02031D7B2940305D02031DE0
:1012F0007B2901305C02031C7E297F29162B5008B4
:101300002100D60056082200BA00B701B801E90151
:1013100002306902031C8D298E299029592A592AE5
:101320006908031D9429DF2903302100D6005608DF
:10133000F60022006903FF3A6207013991318C21DE
:1013400088316A3E860001308700403F2100D70087
:10135000413FD800423FD9000330DA005A08F60076
:1013600022006908013EFF3A013E620701399131CE
:101370008C2188316A3E860001308700403F210081
:10138000DB00413FDC00423FDD00DB09DC09DD0919
:10139000DB0A0319DC0A0319DD0A5B08D7075C08BE
:1013A000D83D5D08D93D57082200BB0021005808F0
:1013B0002200BC00210059082200BD001A2A64083E
:1013C0002100D600220065082100D700220066080F
:1013D0002100D8000330D9005908F6002200620825
:1013E000FF3E013991318C2188316A3E86000130FF
:1013F0008700403F2100DA00413FDB00423FDC0034
:10140000DA09DB09DC09DA0A0319DB0A0319DC0A49
:101410005A08D6075B08D73D5C08D83D560822001D
:10142000BB00210057082200BC0021005808220000
:10143000BD001A2A3D08803AFF000030803A7F0242
:10144000031D282A00303C02031D282A0B303B02D2
:10145000031C2B2A2C2A332A01302100D6005608DF
:101460002200B7074C2A3D08803AFF00FF30803A3F
:101470007F02031D412AFF303C02031D412AE23056
:101480003B020318442A452A4C2A01302100D60089
:1014900056082200B8074C2A01302100D600560811
:1014A0002200E90702306902031C572A582A9029B2
:1014B000592A3708023A031D5E2A5F2A632AD0019F
:1014C0000314D00D702A3808023A031D682A692ACD
:1014D000702A02302100D60056082200D000702A5F
:1014E00064082100D600220065082100D7002200F0
:1014F00066082100D8000030D81BFF30D9005608FC
:101500002200AF07210057082200B03D21005808F3
:101510002200B13D210059082200B23D4308803A23
:10152000FF006608803A7F02031D9C2A650842027C
:10153000031D9C2A6408410203189F2AA02AA72A97
:101540006408C1006508C2006608C300A72A6608CF
:10155000803AFF004608803A7F02031DB52A4508FD
:101560006502031DB52A440864020318B82AB92A83
:10157000BF2A6408C4006508C5006608C6005C0888
:101580002100D60022005D082100D70022005E085D
:101590002100D8000030D81BFF30D90056082200A7
:1015A000B307210057082200B43D2100580822004B
:1015B000B53D210059082200B63D4908803AFF0098
:1015C0005E08803A7F02031DEB2A5D084802031D76
:1015D000EB2A5C0847020318EE2AEF2AF62A5C0879
:1015E000C7005D08C8005E08C900F62A5E08803A98
:1015F000FF004C08803A7F02031D042B4B085D025C
:10160000031D042B4A085C020318072B082B0F2B21
:101610005C08CA005D08CB005E08CC000F2B0130CF
:101620002100D60056082200D907632BDA01DB011E
:10163000D408031D1C2B1D2B612B10302100D6005C
:1016400056082200E700E80168302100D60056085D
:101650002000E500F0302100D70057082000E60008
:1016600003302100D80058082000E700673092318D
:101670003922883110302100D60056082200E700B8
:1016800003302100D60056082200E800683021000F
:10169000D60056082000E500F0302100D70057089A
:1016A0002000E60003302100D80058082000E700A1
:1016B00067309231392288312200D4010314D40DCD
:1016C000612BBA01632B03302100D6005608F600C7
:1016D00022006208013991318C2188316A3E8600EE
:1016E0000130870022006408C03F6508C13F6608DA
:1016F000C23F5008023A031D7E2B7F2B762F3A08FB
:10170000013A031D842B852B762F2500161420000B
:1017100018148B172200E701E80168302100D60079
:1017200056082000CE003A302100D700570820008C
:10173000CF0003302100D80058082000D0006730C7
:1017400083317B238831220059082100D600D7013C
:10175000D801D9015908F3005808F2005708F100E0
:101760005608F00022003208F7003108F600300871
:10177000F5002F08F40095311925883173082000F1
:10178000A3007208A2007108A1007008A0009231A5
:101790008A228831200020082200BE002000210873
:1017A0002200BF00200022082200C0003E082000C6
:1017B000C10022003F082000C20022004008200093
:1017C000C300220041082100D60022004208210067
:1017D000D700220043082100D8002200440921003C
:1017E000D900220045092100DA0022004609210023
:1017F000DB00D90A0319DA0A0319DB0A5908D607EC
:101800005A08D73D5B08D83D5608F8005708F9003C
:101810005808FA0092316022883178082000C4000C
:101820007908C5007A08C60086311626883120005E
:1018300041082200BE00200042082200BF00200014
:1018400043082200C00059082100D600D701D80162
:10185000D9015908F3005808F2005708F10056085A
:10186000F00022003608F7003508F6003408F500CD
:101870003308F40095311925883173082000A3003E
:101880007208A2007108A1007008A00092318A229B
:101890008831200020082200DF00200021082200DB
:1018A000E000200022082200E1005F082000C100C3
:1018B000220060082000C200220061082000C3004E
:1018C000220047082100D600220048082100D70046
:1018D000220049082100D80022004A092100D9002D
:1018E00022004B092100DA0022004C092100DB0014
:1018F000D90A0319DA0A0319DB0A5908D6075A0864
:10190000D73D5B08D83D5608F8005708F90058083D
:10191000FA0092316022883178082000C4007908EA
:10192000C5007A08C6008631162688312000410895
:101930002200DF00200042082200E00020004308CF
:101940002200E10003302100D6005608F6002200F4
:101950005B08F301F3075A08F201F2070A30F000BE
:101960000030F1009231EC228831700891318C21E5
:101970008831A03E8600870122003E082000C10079
:1019800022003F082000C200220040082000C300BF
:1019900022005F082000C400220060082000C5006B
:1019A000220061082000C6008631162688312000FA
:1019B0004108C03F4208C13F4308C23F0A30F0001F
:1019C0000030F10022005B08F301F3075A08F2012E
:1019D000F2079231EC22883170080907BE3E86007A
:1019E000870122006208C03F6308C13F0130DA0767
:1019F0000030DB3D00305B020F3003195A02031C3C
:101A0000022D032D582E00302000C4001630C500D2
:101A10004430C60022005A08FF3EF200FF305B3D12
:101A2000F3000A30F0000030F1009231EC228831EE
:101A300070080907BE3E8600870122005A08F63E5C
:101A4000F200FF305B3DF3000A30F0000030F1009F
:101A50009231EC22883170080907BE3E840085016E
:101A6000003F2100D600013FD700D609D709D60A8A
:101A70000319D70A403F56072000AA00413F210022
:101A8000573D2000AB00AC01AD0194312D248831CD
:101A900020002A08B4002B08B5002C08B600CD3071
:101AA000B1004C30B2003D30B3008431882488311D
:101AB00020003108C1003208C2003308C30086315B
:101AC0001626883120004108F8004208F900430832
:101AD000FA0097316127883178082100D80058082A
:101AE0002200D90010302100D60056082200E7005D
:101AF000E80168302100D60056082000E5002200E9
:101B000059082100D70057082000E60003302100C3
:101B1000D80058082000E700673085315225883109
:101B200000302200DF000030E0000030E100E90179
:101B30000A306902031C9D2D9E2DA02DDC2DDC2D6D
:101B400003302100D6005608F600220069089131C2
:101B50008C218831A03E86008701403F2000C100D3
:101B6000413FC200423FC30022005F082000C40082
:101B7000220060082000C500220061082000C60085
:101B800082314B228831200041082200DF002000F2
:101B900042082200E000200043082200E10001305A
:101BA0002100D60056082200E9070A306902031C0A
:101BB000DA2DDB2DA02DDC2D00302000C1002030DF
:101BC000C2004130C30022005F082000C400220090
:101BD00060082000C500220061082000C600863190
:101BE00016268831200041082200DF00200042082C
:101BF0002200E000200043082200E1005F082000EE
:101C0000B400220060082000B50022006108200016
:101C1000B600BF30B1000530B200C230B30084312D
:101C20008824883120003108C4003208C5003308F8
:101C3000C600CD30C100E530C2004230C300823161
:101C40004B22883120004108F8004208F90043087F
:101C5000FA0097316127883178082100D6005608AC
:101C60002200D90010302100D60056082200E700DB
:101C700003302100D60056082200E8006830210019
:101C8000D60056082000E500220059082100D700A0
:101C900057082000E60003302100D8005808200033
:101CA000E70067308531522588312200D401A22E09
:101CB000D408031D5C2E5D2EA22E10302100D6000C
:101CC00056082200E700E80168302100D6005608D7
:101CD0002000E500F0302100D70057082000E60082
:101CE00003302100D80058082000E7006730923107
:101CF0003922883110302100D60056082200E70032
:101D000003302100D60056082200E8006830210088
:101D1000D60056082000E500F0302100D700570813
:101D20002000E60003302100D80058082000E7001A
:101D300067309231392288312200D4010314D40D46
:101D4000A22EA22E58302100D6005608F500693088
:101D50009231BA228831003A0319AF2EB02E322FB9
:101D600032302100D60056082200E700063021005C
:101D7000D60056082200E80068302100D600560838
:101D80002000E500220069082100D7005708200044
:101D9000E60002302100D80058082000E700673034
:101DA00094317424883168302100D6005608200010
:101DB000CE0040302100D70057082000CF0002306D
:101DC0002100D80058082000D000673083317B23E1
:101DD000883168302100D60056082000CE0022004D
:101DE00058089131FB21883120002A08B4002B08C3
:101DF000B5002C08B6000030B1002030B2003F30F2
:101E0000B30084318824883120003108C4003208AE
:101E1000C5003308C6000030C1004030C200423067
:101E2000C30082314B22883120004108F80042086B
:101E3000F9004308FA0097316127883178082100BA
:101E4000D70057082000CF0002302100D8005808E2
:101E50002000D000673083317B2388319131742199
:101E60008831322F2200E701E80168302100D600D6
:101E700056082000CE003B302100D7005708200034
:101E8000CF0003302100D80058082000D000673070
:101E900083317B23883100302200B2000030B10052
:101EA0000030B0000030AF000030B6000030B500A8
:101EB0000030B4000030B300D9010030C100003060
:101EC000C2000030C300FF30C400FF30C5007F30C7
:101ED000C6000030C7000030C8000030C900FF3025
:101EE000CA00FF30CB007F30CC00762F0130E207F4
:101EF0000030E33D3F3062052100D6000030220073
:101F000063052100D70057085604031D882F892F29
:101F10003A2822005508A3005608A4005708A50037
:101F20004D082100D60022004E082100D7002200D3
:101F30004F082100D800220055092100D9002200B5
:101F400056092100DA00220057092100DB00D90AD6
:101F50000319DA0A0319DB0A5908D6075A08D73DCC
:101F60005B08D83D5608F3005708F4005808F50000
:101F70003030F0000030F1000030F20087317C2773
:101F8000883170082100DC007108DD007208DE0075
:101F90000630DC35DD0DDE0D890BC92F5C08220013
:101FA000A00021005D082200A10021005E0822009F
:101FB000A2003030F0000030F1000030F2002008C4
:101FC000F3002108F4002208F50087317C278831CE
:101FD00070082200A6007108A7007208A80000304F
:101FE000CD000030CE000030CF00FF30D500FF30F4
:101FF000D6007F30D7003A283A283A288031102876
:10200000FF3FFF3FFF3FFF3FFF3FFF3FFF3FFF3FE0
:10201000FF3FFF3FFF3FFF3FFF3FFF3FFF3FFF3FD0
:10202000FF3FFF3FFF3FFF3FFF3FFF3FFF3FFF3FC0
:10203000FF3FFF3FFF3FFF3FFF3FFF3FFF3FFF3FB0
:10221000FF3FFF3FFF3FFF3FFF3FFF3FFF3F6400A8
:1022200080010131890B102900342400161418296B
:1022300016181B291C2918291D2908002400161509
:1022400021291619242925292129262908002000B9
:102250009111240096142C2996182F2930292C2905
:102260003129080024000E148E1421000E148E143F
:102270001330240092009401283095000800F000EB
:102280002000911170082400910046291419492951
:102290004A2946294B290800F30091311521913133
:1022A000730891313F219131710891313F21913172
:1022B000720891313F21913191311E2191310800F5
:1022C000EE01EF01A0308400003085003230913102
:1022D0000F2191312200EA01EB01EC01ED01EE0149
:1022E000EF0120008031F4280330F4007408F1007D
:1022F0000230F5007508F200AE3091314C21913179
:102300002130F4007408F100F2010314F20DAE3034
:1023100091314C2191310800F900F8018F29791C85
:102320009229932998297608F7007708F8079829C1
:102330000310F60D0310F90CF908031DA029A129BB
:102340008F29A2297808A4290800F0002000911103
:1023500024009615AB299619AE29AF29AB29B029CF
:102360007008031DB429B6299616B72996121616B9
:10237000B929161ABC29BD29B929BE291108C029B5
:102380000800F001F10104307102A130031970025C
:10239000031CCB29CC29CE29DD29DD290000013001
:1023A000F0070030F13D04307102A13003197002D2
:1023B000031CDB29DC29CE29DD2908002000A2002E
:1023C000FA012008B038883105209131FA01200047
:1023D0002208A1000430A136890BEB29210810380E
:1023E000883105209131FA01200022080F39883107
:1023F000052091310800FC007C082000AD00AE01F2
:10240000AF012D08F0002E08F1002F08F2008E30E9
:10241000B0003008F300F40196315626913170086F
:102420002000AA007108AB007208AC00172A08004F
:10243000F400913115219231740891313F2192318C
:10244000710891313F2192319131272192317408E5
:10245000013891313F21923101309131A5219231E2
:10246000F2007208F30091311E2192317308382A6C
:1024700008002000EB00552A6508E8006808CE0037
:10248000660880310A009231E9006908CF006708C8
:10249000EA006A08D0006B0883317B239231013057
:1024A0002000E8006808E607552A660880310A001F
:1024B00092310038031D5D2A5E2A3C2A5F2A0800FB
:1024C000FD01FA1F642A652A712AF809F909FA0937
:1024D000F80A0319F90A0319FA0AFD010314FD0D9C
:1024E000712A7808F0007908F1007A08F2008E303D
:1024F000FB007B08F3007D08FC007C08F4009631AB
:10250000562692317008F8007108F9007208FA0036
:10251000892A08008E302000A4002408A5009C2AE7
:102520000130A336A20CA10CA00C890B912A01301A
:10253000A4002408A5079C2AFF302305031DA12A17
:10254000A22A902AA32A2008F0002108F1002208DC
:10255000F2002508A4002408F300F4019631562661
:10256000923170082000A0007108A1007208A2003A
:10257000B92A0800F800F1010314F10DAE309231D0
:10258000182292310239F6007608F9007908031D05
:10259000CA2AE92A1F30F6007608F100AE309231DF
:1025A00018229231F70078088600013087007708FA
:1025B00081002030F6007608F100AE30923118220A
:1025C0009231F70075088600013087007708810096
:1025D000E92A7908EB2A0800710870040319F12A26
:1025E000F22A222BF5010314F50D002B0130F035F2
:1025F000F10D890BF72A0130F4007408F507002B60
:10260000F11F032B042BF62A062B062B71087302ED
:10261000031D0C2B70087202031C0F2B102B152BA3
:102620007008F2027108F33B152B0130F136F00C03
:10263000890B162B0130F502031D1F2B202B062BB7
:10264000222B222B7308F101F1077208F001F00729
:10265000292B08009131C12193312000A5010830B8
:102660002502031C342B352B372B672B672B2508B2
:10267000A3002308A00000309131DE219331200017
:10268000A40180302402031C462B472B492B5C2BD2
:102690005C2BFA010314FA0D0030883105209331C8
:1026A00001302000A3002308A40780302402031C6B
:1026B0005A2B5B2B492B5C2B0130A3002308A50769
:1026C00008302502031C652B662B372B672B08006F
:1026D000F800913115219331780891313F219331E0
:1026E000710891313F21933191312721933178083D
:1026F000013891313F219331F9019D2B7308FF3E41
:10270000F400FF3003180030F500790874067504F2
:102710000030031901309131A5219331F600790879
:102720007207F7007708860001308700760881007D
:102730000130F4007408F9079D2B73087902031C1B
:10274000A22BA32B7E2BA42B91311E2193310800A9
:1027500023008C018E0124008E018C012100951331
:1027600099101910191799161916991199178E128F
:1027700025009E101E10193020009B000C302500F3
:10278000910020009C141C141C1525009313131396
:102790009315131593101310161096101611961109
:1027A00020009913181018139813181698169701EB
:1027B0009601210011140B1791313221933195317B
:1027C000E72593319431BC24933193312A239331FB
:1027D00008002000A1000430FA007A08F100AE30B1
:1027E000923118229331FB000630FC007C08F10086
:1027F000AE30923118229331FF3A013E7B07FD0043
:102800007D082000A0002008031D072C2A2C07307B
:10281000FA007A08F1002108FB007B08F20006307C
:10282000FC007C08F300AE30933168239331033011
:10283000FA00200021088600013087007A0881050F
:102840000330FA002108033E8600013087007A0831
:1028500081052A2C20082C2C08002000AF018E3086
:10286000FC007C08AE00AD1F362C372C532CAA0977
:10287000AB09AC09AD09AA0A0319AB0A0319AC0AE2
:102880000319AD0AAF010314AF0D532C532C0130C3
:10289000AD36AC0CAB0CAA0C890B482C0130FC00FB
:1028A0007C08AE07532CFF302D05031D582C592CE6
:1028B000472C5A2C2A08F0002B08F1002C08F200B3
:1028C0002E08FC007C08F3002F08FD007D08F400B2
:1028D00096315626943170082000AA007108AB008A
:1028E0007208AC00732C08002000EC000A30F000E5
:1028F0000030F1006608E800E9016808F2006908A4
:10290000F30095317B25943170082000EA006A08B5
:10291000ED000A30E8006808F6006D0891318C215E
:102920009431FF3A013E20006607E9006908EB0098
:102930006508E8006808CE006D08303EE9006908C7
:10294000CF006708EA006A08D0006C0883317B2357
:10295000943120006508E8006808CE006B08303E1E
:10296000E9006908CF006708EA006A08D0006C082F
:1029700083317B239431080022000C128E150E1631
:102980008C1621000C128E110E128C12FA01AE3030
:10299000883105209431FA01A03088310520943126
:1029A000FA01C830883105209431FA01A33088310A
:1029B00005209431FA012C30883105209431913171
:1029C000C1219431FA012E308831052094319131A2
:1029D000C1219431FA012F30883105209431FA0158
:1029E0002330883105209431FA0181308831052067
:1029F0009431FA011C30883105209431FA01A43059
:102A0000883105209431FA01403088310520943115
:102A1000FA01A630883105209431FA01AF308831AF
:102A2000052094319131C121943193312A2394317D
:102A300008000030FC000030FB000030FA000030DD
:102A4000F90073087204710470040319282D292DEC
:102A5000712DFD010314FD0D392D0130F035F10DFF
:102A6000F20DF30D890B2E2D0130F8007808FD07CB
:102A7000392DF31F3C2D3D2D2D2D3F2D3F2D0130A8
:102A8000F935FA0DFB0DFC0D890B402D730877020B
:102A9000031D542D72087602031D542D7108750212
:102AA000031D542D70087402031C572D582D622DE0
:102AB0007008F4027108F53B7208F63B7308F73BA7
:102AC0007914622D0130F336F20CF10CF00C890B05
:102AD000632D0130FD02031D6E2D6F2D3F2D712DD5
:102AE000712D7C08F3007B08F2007A08F100790868
:102AF000F0007A2D0800F601F11F7F2D802D892D21
:102B0000F009F109F00A0319F10AF6010314F60DB0
:102B1000892DF31F8C2D8D2D972DF209F309F20AC3
:102B20000319F30A0130F4007408F606972DF70133
:102B3000F8017108700403199E2D9F2DD52DF50104
:102B40000314F50DAD2D0130F035F10D890BA42DD9
:102B50000130F4007408F507AD2DF11FB02DB12D33
:102B6000A32DB32DB32D0130F735F80D890BB42DFE
:102B700071087302031DBE2D70087202031CC12D63
:102B8000C22DC82D7008F2027108F33B7714C82DCE
:102B90000130F136F00C890BC92D0130F502031D0F
:102BA000D22DD32DB32DD52DD52D7608031DD92D9E
:102BB000DF2DF709F809F70A0319F80ADF2D78085D
:102BC000F101F1077708F001F007E62D0800FF306A
:102BD000F5007508F100AE30923118229531153AA2
:102BE0000319F32DF42DF62D552E552E0930F50031
:102BF0007508F1004030F6007608F200AE309131F1
:102C00004C219531F7017708FF3A031D082E092E54
:102C10000B2E192E192E9131C12195310130F5005D
:102C20007508F7077708FF3A031D172E182E0B2E8D
:102C3000192E0830F5007508F1004030F6007608CE
:102C4000F200AE3091314C2195310930F500750814
:102C5000F1000330F6007608F200AE3091314C21DD
:102C600095310A30F5007508F1002730F600760836
:102C7000F200AE3091314C2195310C30F5007508E1
:102C8000F1001F30F6007608F200AE3091314C2191
:102C900095310D30F5007508F1001F30F60076080B
:102CA000F200AE3091314C21953108007308031DBC
:102CB0005A2E622E720871047004031D602E612E5C
:102CC000762E622E0030F0000030F1000030F2006D
:102CD000C82EC82E762E0130F5007508F307013096
:102CE000F236F10CF00C890B702E762EFE30720548
:102CF000031D7B2E7C2E6B2E922E922E0130F50022
:102D00007508F3070130F007003003180130F107B0
:102D1000003003180130F2070130F236F10CF00CEC
:102D2000890B8D2EFF307205031D972E982E7E2E57
:102D3000A32EA32E0130F3020130F035F10DF20D78
:102D4000890B9D2EA32EF11FA62EA72E9A2E731847
:102D5000AA2EAB2EB12EFF30F0057F30F105FF30EB
:102D6000F2050310F30C7308F500F601F7011030BB
:102D7000F535F60DF70D890BB82E7508F0047608B9
:102D8000F1047708F2047408031DC72EC82EF21749
:102D900008002000A2002208203A031DD02ED12EC8
:102DA000D62E3A30A1002108A200D62E3030A20241
:102DB0002008031DDC2E1E2FA301A4012408803A45
:102DC000FF0080307F02031DE72E05302302031C25
:102DD000EA2EEB2EED2E162F162FFA010314FA0D04
:102DE00005302000A1002108F600220891318C2135
:102DF0009631143E2000230780310A009631FF3AB5
:102E000088310520963101302000A3070030A43D11
:102E10002408803AFF0080307F02031D112F053007
:102E20002302031C142F152FED2E162FFA01031465
:102E3000FA0DFF30883105209631602F2000A30164
:102E4000A4012408803AFF0080307F02031D2A2F4E
:102E500005302302031C2D2F2E2F302F582F582FD3
:102E6000FA010314FA0D05302000A1002108F60034
:102E7000220891318C219631143E200023078031A5
:102E80000A00973188310520963101302000A307D0
:102E90000030A43D2408803AFF0080307F02031DEB
:102EA000532F05302302031C562F572F302F582F36
:102EB000FA010314FA0D0030883105209631602F95
:102EC000080078082000A0007908A1007A08A20074
:102ED0000310210D220DA3002308A900A908031D3A
:102EE000722F732F7D2F0030FB000030FA0000306E
:102EF000F9000030F800FF2FFF2F7808A0007908B4
:102F0000A1007A08A2001730A236A10CA00C890BF0
:102F1000842F2008A3002308A400F917FF30F80528
:102F2000FF30F9050030FA057808A5007908A600F9
:102F30007A08A700A8018E30A902A91FA02FA12FEF
:102F4000C42F2908803A8F3E0318A72FA82FB32F2C
:102F50000030FB000030FA000030F9000030F800CB
:102F6000FF2FFF2FB32F0130A836A70CA60CA50CFE
:102F7000890BB42F0130A0002008A907031DC12F21
:102F8000C22FB32FE62FE62F18302902031CC92FBA
:102F9000CA2FDF2F0030FB000030FA000030F900AC
:102FA0000030F800FF2FFF2FDF2F0130A535A60DD1
:102FB000A70DA80D890BD62F0130A902DF2FA90874
:102FC000031DE32FE42FD52FE62FE62F2408031D42
:102FD000EA2FF62FA509A609A709A809A50A03192A
:102FE000A60A0319A70A0319A80AF62F2808FB0046
:102FF0002708FA002608F9002508F800FF2F080026
:10300000FF3FFF3FFF3FFF3FFF3FFF3FFF3FFF3FD0
:10301000FF3FFF3FFF3FFF3FFF3FFF3FFF3FFF3FC0
:10302000FF3FFF3FFF3FFF3FFF3FFF3FFF3FFF3FB0
:10303000FF3FFF3FFF3FFF3FFF3FFF3FFF3FFF3FA0
:020000040001F9
:04000E00FC3FFFFFB5
:00000001FF
