:020000040000FA
:1000000080311028FF3FFF3F80312000111C09285C
:100010000A280F2811101810250016100F280900A3
:1000200088019331302B00347C34A23492348A34EA
:100030007C3400348434FE3480340034E43492342C
:10004000923492348C3444348234923492346C340A
:10005000303428342434FE3420344E348A348A3404
:100060008A34723478349434923492346034023462
:10007000E23412340A3406346C34923492349234BA
:100080006C340C349234923452343C3400340034A6
:100090000034003400341C347E34FC347E341C3490
:1000A000103428344434823400342834283428343A
:1000B0002834283482344434283410340034403412
:1000C00020341034083404340034C034C0340034D4
:1000D0000034F834243422342434F8348234FE34A6
:1000E000923492346C347C3482348234823444349A
:1000F0008234FE34823482347C34FE34923492343E
:1001000082348234FE3412341234023402347C34A9
:100110008234923492347434FE34103410341034F7
:10012000FE3400348234FE3482340034403480346F
:1001300082347E340234FE34103428344434823421
:10014000FE348034803480348034FE3404341834F7
:100150000434FE34FE34043408341034FE347C3469
:100160008234823482347C34FE34123412341234B9
:100170000C347C348234A2344234BC34FE34123425
:10018000323452348C344C34923492349234643459
:1001900002340234FE34023402347E34803480343B
:1001A00080347E340E343034C03430340E34FE3477
:1001B000403430344034FE34C634283410342834CB
:1001C000C63406340834F03408340634C234A23459
:1001D00092348A348634203420342034003432344B
:1001E00000344F3400346408CE006508CF00660840
:1001F000D000FA286608803AFF005808803A7F024B
:10020000031D082957086502031D082956086402C2
:1002100003180B290C2913296408D6006508D70098
:100220006608D80013296608803AFF000030803A3B
:100230007F02031D212940306502031D2129013061
:100240006402031C24292529CB2A5E08803AFF007A
:100250000030803A7F02031D332940305D02031DC8
:10026000332901305C02031C36293729CB2A510877
:100270002000D40054082100BB00B801B901E901F5
:1002800002306902031C4529462948290E2A0E2AF4
:100290006908031D4C29952903302000D400540817
:1002A000F60021006903FF3A5F07013993314423C7
:1002B0008031EA3E86008701403F2000D500413F63
:1002C000D600423FD7000330D8005808F60021007E
:1002D0006908013EFF3A013E5F070139933144232B
:1002E0008031EA3E86008701403F2000D900413F2F
:1002F000DA00423FDB00D909DA09DB09D90A031920
:10030000DA0A0319DB0A5908D5075A08D63D5B08F3
:10031000D73D55082100BC00200056082100BD0033
:10032000200057082100BE00CF2964082000D40017
:10033000210065082000D500210066082000D600B5
:100340000330D7005708F60021005F08FF3E01394F
:10035000933144238031EA3E86008701403F2000EC
:10036000D800413FD900423FDA00D809D909DA095B
:10037000D80A0319D90A0319DA0A5808D407590800
:10038000D53D5A08D63D54082100BC002000550830
:100390002100BD00200056082100BE00CF293E08E4
:1003A000803AFF000030803A7F02031DDD290030D3
:1003B0003D02031DDD290B303C02031CE029E1292D
:1003C000E82901302000D40054082100B807012A90
:1003D0003E08803AFF00FF30803A7F02031DF62975
:1003E000FF303D02031DF629E2303C020318F929D3
:1003F000FA29012A01302000D40054082100B9074D
:10040000012A01302000D40054082100E9070230FD
:100410006902031C0C2A0D2A48290E2A3808023AC0
:10042000031D132A142A182AD1010314D10D252AD9
:100430003908023A031D1D2A1E2A252A02302000EF
:10044000D40054082100D100252A64082000D400DB
:10045000210065082000D500210066082000D60094
:100460000030D61BFF30D70054082100B007200011
:1004700055082100B13D200056082100B23D200062
:1004800057082100B33D4408803AFF006608803ACF
:100490007F02031D512A65084302031D512A640887
:1004A00042020318542A552A5C2A6408C2006508CF
:1004B000C3006608C4005C2A6608803AFF0047084B
:1004C000803A7F02031D6A2A46086502031D6A2AD4
:1004D0004508640203186D2A6E2A742A6408C50050
:1004E0006508C6006608C7005C082000D40021002B
:1004F0005D082000D50021005E082000D6000030F5
:10050000D61BFF30D70054082100B407200055083F
:100510002100B53D200056082100B63D20005708B7
:100520002100B73D4A08803AFF005E08803A7F020A
:10053000031DA02A5D084902031DA02A5C08480289
:100540000318A32AA42AAB2A5C08C8005D08C900C6
:100550005E08CA00AB2A5E08803AFF004D08803A68
:100560007F02031DB92A4C085D02031DB92A4B08FE
:100570005C020318BC2ABD2AC42A5C08CB005D08B3
:10058000CC005E08CD00C42A01302000D4005408FD
:100590002100D9070E2BDA01DB01D508031DD12A72
:1005A000D22A0C2B10302000D40054082100E70080
:1005B000E801E8302000D4005408BA00EB30D50040
:1005C0005508BB000330D6005608BC00E730933115
:1005D000F223803110302000D40054082100E700BD
:1005E00003302000D40054082100E800E830200047
:1005F000D4005408BA00EB30D5005508BB000330D6
:10060000D6005608BC00E7309331F2238031210038
:10061000D5010314D50D0C2BBB010E2B033020008C
:10062000D4005408F60021005F08013993314423B7
:100630008031EA3E8600870121006408C03F6508DA
:10064000C13F6608C23F5108023A031D282B292BDF
:10065000BB2E3B08013A031D2E2B2F2BBB2E250052
:100660001614200018148B172100E701E801E83068
:100670002000D4005408A3003A30D5005508A40047
:100680000330D6005608A500E7308B31D3238031E4
:10069000210059082000D400D501D601D701570800
:1006A000F3005608F2005508F1005408F00021004C
:1006B0003308F7003208F6003108F5003008F4007E
:1006C00096312F26803173082000A3007208A20003
:1006D0007108A1007008A0009431432480312000EB
:1006E00020082100BF00200021082100C0002000B8
:1006F00022082100C1003F082000C400210040085A
:100700002000C500210041082000C6002100420849
:100710002000D400210043082000D5002100440817
:100720002000D600210045092000D70021004609FD
:100730002000D800210047092000D900D70A03195A
:10074000D80A0319D90A5708D4075808D53D5908BB
:10075000D63D5408F8005508F9005608FA009431BF
:100760001924803178082000C7007908C8007A0869
:10077000C900873146278031200044082100BF008E
:10078000200045082100C000200046082100C100CB
:1007900059082000D400D501D601D7015708F3002D
:1007A0005608F2005508F1005408F00021003708FF
:1007B000F7003608F6003508F5003408F4009631E5
:1007C0002F26803173082000A3007208A200710850
:1007D000A1007008A000943143248031200020083B
:1007E0002100E100200021082100E2002000220871
:1007F0002100E30061082000C400210062082000FD
:10080000C500210063082000C60021004808200020
:10081000D400210049082000D50021004A0820000A
:10082000D60021004B092000D70021004C092000F0
:10083000D80021004D092000D900D70A0319D80A91
:100840000319D90A5708D4075808D53D5908D63D89
:100850005408F8005508F9005608FA009431192494
:10086000803178082000C7007908C8007A08C900DC
:10087000873146278031200044082100E100200014
:1008800045082100E200200046082100E300033073
:100890002000D4005408F60021005B08F301F307A0
:1008A0005A08F201F2070A30F0000030F1009431EA
:1008B000DB2480317008933144238031203E860050
:1008C0000130870021003F082000C40021004008BB
:1008D0002000C500210041082000C6002100610859
:1008E0002000C700210062082000C8002100630822
:1008F0002000C90087314627803120004408C03FCE
:100900004508C13F4608C23F0A30F0000030F10000
:1009100021005B08F301F3075A08F201F207943152
:10092000DB248031700809073E3E860001308700D5
:1009300021005F08C03F6008C13F0130DA07003086
:10094000DB3D00305B020F3003195A02031CA92C57
:10095000AA2C3D2E00302000C7001630C8004430BD
:10096000C90021005A08FF3EF200FF305B3DF30052
:100970000A30F0000030F1009431DB24803170083F
:1009800009073E3E86000130870021005A08F63EE6
:10099000F200FF305B3DF3000A30F0000030F10060
:1009A0009431DB248031700809073E3E8400013019
:1009B0008500003F2000D400013FD500D409D509AF
:1009C000D40A0319D50A403F5407AE00413F553DB4
:1009D000AF00B001B10195319525803120002E087E
:1009E000B7002F08B8003008B900CD30B4004C3043
:1009F000B5003D30B6008B3109238031200034082A
:100A0000C4003508C5003608C60087314627803146
:100A100020004408A0004508A1004608A200893132
:100A20001F21803120002008D60056082100D9005F
:100A300010302000D40054082100E700E801E8301D
:100A40002000D4005408BA00210059082000D50025
:100A50005508BB000330D6005608BC00E7308A3189
:100A60006022803100302100E1000030E2000030DF
:100A7000E300E9010A306902031C3F2D402D422D9D
:100A80007F2D7F2D03302000D4005408F600210074
:100A90006908933144238031203E8600013087006D
:100AA000403F2000C400413FC500423FC600210036
:100AB00061082000C700210062082000C800210052
:100AC00063082000C9008C31DB24803120004408F9
:100AD0002100E100200045082100E2002000460836
:100AE0002100E30001302000D40054082100E90770
:100AF0000A306902031C7D2D7E2D422D7F2D003092
:100B00002000C4002030C5004130C600210061082B
:100B10002000C700210062082000C80021006308EF
:100B20002000C90087314627803120004408210079
:100B3000E100200045082100E200200046082100D5
:100B4000E30061082000B700210062082000B8001F
:100B5000210063082000B900210061082000B400D2
:100B6000210062082000B500210063082000B600C3
:100B70008B310923803120003408B7003508B800D4
:100B80003608B9004530B400CC30B5003F30B6006F
:100B90008B310923803120003408C7003508C80094
:100BA0003608C900210061082000B7002100620852
:100BB0002000B800210063082000B900A330B40071
:100BC0000A30B5004230B6008B3109238031200055
:100BD0003408F8003508F9003608FA009231F62298
:100BE000803178082000C4007908C5007A08C60062
:100BF0008C31DB24803120004408C7004508C80040
:100C00004608C9006130C400E130C5004230C6006A
:100C10008C31DB24803120004408A0004508A1006D
:100C20004608A20089311F21803120002008D4000D
:100C300054082100D90010302000D40054082100AD
:100C4000E70003302000D40054082100E800E83019
:100C50002000D4005408BA00210059082000D50013
:100C60005508BB000330D6005608BC00E7308A3177
:100C7000602280312100D5017D2ED508031D412E33
:100C8000422E7D2E10302000D40054082100E700B1
:100C9000E801E8302000D4005408BA00EB30D50059
:100CA0005508BB000330D6005608BC00E73093312E
:100CB000F223803110302000D40054082100E700D6
:100CC00003302000D40054082100E800E830200060
:100CD000D4005408BA00EB30D5005508BB000330EF
:100CE000D6005608BC00E7309331F2238031210052
:100CF000D5010314D50D7D2E7D2EE701E801E830E6
:100D00002000D4005408A3003B30D5005508A400AF
:100D10000330D6005608A500E7308B31D32380314D
:100D200000302100B3000030B2000030B1000030CC
:100D3000B0000030B7000030B6000030B500003021
:100D4000B400D9010030C2000030C3000030C4003C
:100D5000FF30C500FF30C6007F30C7000030C8003C
:100D60000030C9000030CA00FF30CB00FF30CC009B
:100D70007F30CD00BB2E0130DF070030E03D3F303B
:100D80005F052000D4000030210060052000D50060
:100D900055085404031DCD2ECF2E8F31032F210073
:100DA0005608A3005708A4005808A5004E082000C4
:100DB000D40021004F082000D50021005008200059
:100DC000D600210056092000D70021005709200035
:100DD000D800210058092000D900D70A0319D80AE1
:100DE0000319D90A5708D4075808D53D5908D63DE4
:100DF0005408F3005508F4005608F5003030F000B0
:100E00000030F1000030F200883104208031700899
:100E10002000DA007108DB007208DC000630DA35E9
:100E2000DB0DDC0D890B0F2F5A082100A0002000DC
:100E30005B082100A10020005C082100A2003030E6
:100E4000F0000030F1000030F2002008F30021082B
:100E5000F4002208F5008831042080317008210058
:100E6000A6007108A7007208A8000030CE0000306C
:100E7000CF000030D000FF30D600FF30D7007F30E9
:100E8000D800CD2ECD2ECD2E803110282000470841
:100E9000CA004808CB004908CC0003104B0D4C0D8C
:100EA000CD004D08D200D208031D572F582F602FB8
:100EB0000030C4000030C5000030C600FD2FFD2FFB
:100EC0004408CA004508CB004608CC0003104B0D6F
:100ED0004C0DCD004D08D300D308031D702F712F8A
:100EE000792F0030C4000030C5000030C600FD2F4F
:100EF000FD2F0030CF000030D0000030D10089300D
:100F00005307CA004A08D2024708CA004808CB0063
:100F10004908CC001030CC36CB0CCA0C890B8B2F77
:100F20004A08CD004D08D3004408CA004508CB004C
:100F30004608CC001030CC36CB0CCA0C890B9B2F4A
:100F40004A08CD004D08D3068030CA004A08D305B0
:100F5000C817FF30C705FF30C8050030C905C517E1
:100F6000FF30C405FF30C5050030C6051830CA0083
:100F70004A08CE00BB2F0130CF35D00DD10D890BE3
:100F8000BC2F46084902031DCB2F45084802031D0C
:100F9000CB2F44084702031CCE2FCF2FD72F440856
:100FA000C7024508C83B4608C93B4F14D72F01303C
:100FB000C735C80DC90D890BD82F0130CE02031DCE
:100FC000E22FE32FBB2FE42F4F08F0005008F10071
:100FD0005108F2005208CA004A08F3005308CB0037
:100FE0004B08F4009631FD26873170082000C400BC
:100FF0007108C5007208C600FD2F0800FF3FFF3FC3
:10100000FF3FFF3FFF3FFF3FF801F21F082809287D
:101010001528F009F109F209F00A0319F10A031978
:10102000F20AF8010314F80D1528F51F18281928DD
:101030002628F309F409F509F30A0319F40A031938
:10104000F50A0130F6007608F80626280030F90087
:101050000030FA000030FB007208710470040319BC
:10106000322833287228F7010314F70D4228013083
:10107000F035F10DF20D890B38280130F6007608B5
:10108000F7074228F21F45284628372848284828CD
:101090000130F935FA0DFB0D890B492872087502EC
:1010A000031D582871087402031D58287008730224
:1010B000031C5B285C2864287008F3027108F43B69
:1010C0007208F53B791464280130F236F10CF00C0B
:1010D000890B65280130F702031D6F287028482806
:1010E000722872287808031D76287F28F909FA09E2
:1010F000FB09F90A0319FA0A0319FB0A7F28790880
:10110000F0007A08F1007B08F20086280800200031
:10111000A2002208203A031D8E288F2894283A30F6
:10112000A1002108A20094283030A2022008031D4B
:101130009A28DC28A301A4012408803AFF0080300B
:101140007F02031DA52805302302031CA828A92817
:10115000AB28D428D428FA010314FA0D0530200056
:10116000A1002108F6002208933144238831143E5F
:101170002000230780310A008831FF3A9431A624E9
:10118000883101302000A3070030A43D2408803AB4
:10119000FF0080307F02031DCF2805302302031C8F
:1011A000D228D328AB28D428FA010314FA0DFF3033
:1011B0009431A62488311E292000A301A40124080B
:1011C000803AFF0080307F02031DE82805302302AB
:1011D000031CEB28EC28EE2816291629FA01031423
:1011E000FA0D05302000A1002108F60022089331F5
:1011F00044238831143E2000230780310A008831BF
:101200009431A624883101302000A3070030A43D8A
:101210002408803AFF0080307F02031D1129053029
:101220002302031C14291529EE281629FA01031498
:10123000FA0D00309431A62488311E2908002000C0
:101240002008A4002108A5002208A6000310250DEF
:10125000260DA7002708AD00AD08031D3029312950
:101260003B290030A3000030A2000030A100003074
:10127000A000BD29BD292008A4002108A50022083E
:10128000A6001730A636A50CA40C890B4229240809
:10129000A7002708A800A117FF30A005FF30A1056F
:1012A0000030A2052008A9002108AA002208AB00EE
:1012B000AC018E30AD02AD1F5E295F2982292D0859
:1012C000803A8F3E03186529662971290030A300F2
:1012D0000030A2000030A1000030A000BD29BD29CF
:1012E00071290130AC36AB0CAA0CA90C890B722900
:1012F0000130A4002408AD07031D7F29802971292E
:10130000A429A42918302D02031C872988299D2986
:101310000030A3000030A2000030A1000030A00087
:10132000BD29BD299D290130A935AA0DAB0DAC0DF4
:10133000890B94290130AD029D29AD08031DA12917
:10134000A2299329A429A4292808031DA829B4297E
:10135000A909AA09AB09AC09A90A0319AA0A031920
:10136000AB0A0319AC0AB4292C08A3002B08A2006D
:101370002A08A1002908A000BD2908002000A60015
:101380002308A400A50125085E02031DC92924081D
:101390005D020318CC29CD29D7292308A4002408ED
:1013A000A8005D08013EA4002408A900F82923082C
:1013B000A400A5015E082502031DE0295D082402A2
:1013C0000318E329E429EE292308A4002408A9002E
:1013D0005D08FF3EA4002408A800F8292308A40003
:1013E0002408A9005D08A4002408A800F829F82909
:1013F000AB0106302B02031CFE29FF29012A582AC3
:10140000582AA701AC0108302C02031C082A092A1B
:101410000B2A3B2A3B2A2B03FF3AA4000330A435B6
:10142000890B0F2A2C03FF3A24072F3EA50025081D
:10143000AA0029082A02031C1E2A1F2A302A2A0869
:101440002802031C242A252A302A0130A4002C0A51
:101450002A2AA435890B292A2408A5002508A704CF
:101460000130A4002408AC0708302C02031C392AE0
:101470003A2A0B2A3B2A2B08A4002408A00026089D
:10148000403E933196238931FA010314FA0D20006E
:1014900027089431A624893101302000A4002408B3
:1014A000AB0706302B02031C562A572A012A582A5A
:1014B0002308A400A5012408DD002508DE0008009B
:1014C0002000C4006430F0000030F1003B08BD0093
:1014D000BE013D08F2003E08F300963191268A31A4
:1014E00070082000BF003F08C6000A30F00000303E
:1014F000F1003B08BD00BE013D08F2003E08F300CC
:10150000963191268A3170082000BF007108C00012
:101510000A30C1004108F6004608933144238A315D
:10152000FF3A013E20003F07C2004208C500643078
:10153000BD003D08F6004608933144238A3120005F
:10154000BE000A30BF003F08F6004508933144232F
:101550008A3120003E07FF3A013E3B07C0004008A9
:10156000C3003030BD003D08C6074608303A031DB1
:10157000BA2ABB2AC02A3A30BD003D08C600C02A9C
:101580003030BD003D08C50746083A3A031DC92A58
:10159000CA2AD52A4508303A031DCF2AD02AD52A8F
:1015A0003A30BD003D08C500D52A3A08BD003D08C7
:1015B000A3004608BE003E08A4003C08BF003F0848
:1015C000A50044088B31D3238A3120003A08BD009E
:1015D0003D08A3004508BE003E08A4003C08BF002B
:1015E0003F08A50044088B31D3238A3120003A08F4
:1015F000BD003D08A3004308303EBE003E08A400E5
:101600003C08BF003F08A50044088B31D3238A3132
:10161000080020003408BA003508BB003608BC00BA
:1016200003103B0D3C0DBD003D08BE00BE08031D70
:101630001A2B1B2B232B0030B4000030B5000030D8
:10164000B600D22BD22B3708BA003808BB003908B5
:10165000BC0003103B0D3C0DBD003D08C300C3089A
:10166000031D332B342B3C2B0030B4000030B5006D
:101670000030B600D22BD22B43087B3EBA003A088A
:10168000BE073408BA003508BB003608BC0010306D
:10169000BC36BB0CBA0C890B482B3A08BD003D0880
:1016A000C3003708BA003808BB003908BC00103046
:1016B000BC36BB0CBA0C890B582B3A08BD003D0850
:1016C000C3068030BA003A08C305B517B817FF3013
:1016D000B705FF30B8050030B9050030BF00003055
:1016E000C0000030C1000730BA003A08C200782BB1
:1016F000341C7B2B7C2B832B3708BF073808C03D5D
:101700003908C13D832B0130B636B50CB40C890BBA
:10171000842B0130B735B80DB90D890B8A2B0130F8
:10172000C202031D942B952B782B962B0930BA00FF
:101730003A08C2009B2B341C9E2B9F2BA62B3708EC
:10174000BF073808C03D3908C13DA62B0130B63669
:10175000B50CB40C890BA72B0130C136C00CBF0CE3
:10176000890BAD2B0130C202031DB72BB82B9B2B6D
:10177000B92B3F08F0004008F1004108F2003E0894
:10178000BA003A08F3004308BB003B08F400963166
:10179000FD268B3170082000B4007108B500720876
:1017A000B600D22B08002000B4002408203A031D04
:1017B000DA2BDB2BE02B3A30A6002608A400E02B26
:1017C0003030A4023408860087010108A6002608EC
:1017D000B5002308860087010108A6002608B3008B
:1017E000B60105303602031CF62BF72BF92BA82C7B
:1017F000A82C0530A6002608F600240893314423BF
:101800008B31143E2000360780310A008C31A7004E
:101810002708B200B9018C2CB7013308A6002608AE
:10182000A0003508933196238B312000B801083091
:101830003802031C1C2C1D2C1F2C6B2C6B2C32080B
:10184000A600A7010130A8000030A9002508AA00C1
:10185000AB012A08F0002B08F1003808AC00AD01FC
:101860003908AE00AF010330AE35AF0D890B342C13
:101870002C082E07F2002D082F3DF30096319126FB
:101880008B317008890A2000472CA835A90D890BD7
:10189000452C26082805B00027082905B100310885
:1018A00030040319542C552C602C0130A600380A42
:1018B0005A2CA635890B592C2608A7002708B704EF
:1018C0000130A6002608B80708303802031C692C2E
:1018D0006A2C1F2C6B2CFA010314FA0D3708943173
:1018E000A6248B31FA010314FA0D20003708943135
:1018F000A6248B31FA010314FA0D20003708943125
:10190000A6248B3101302000A6002608B307013041
:10191000A6002608B9078C2C25083902031C912C37
:10192000922C0C2C932C2308860087010108A6001A
:101930002608B3002508A6002608B5070130A60032
:101940002608B60705303602031CA72CA82CF92B55
:10195000B901C32C23088600870101083907A600B6
:101960002608A0003508933196238B31FA01031421
:10197000FA0D00309431A6248B3101302000A600EE
:101980002608B907C32C25083902031CC82CC92C0A
:10199000AA2CCA2C0530A6002608F600250893318B
:1019A00044238B31013E2000A700340886008701C4
:1019B00027088107080020004408CA004508CB001A
:1019C0004608CC0003104B0D4C0DCD004D08D00047
:1019D0004708CA004808CB004908CC0003104B0D4B
:1019E0004C0DCD004D08CF005008031DF82C092DDB
:1019F0004F0850020318FD2CFE2C112D5003FF3A06
:101A00004F07CA0019304A02031C072D082D112D5B
:101A1000092D4708C4004808C5004908C6000A2E19
:101A20000A2E4F08031D152D252D50084F020318AF
:101A30001A2D1B2D262D4F03FF3A5007CA001930CF
:101A40004A02031C242D252D262D0A2E0630CA00FD
:101A50004A08CE00C61F2D2D2E2D2F2DCE17C91FA3
:101A6000322D332D342D4E17C517FF30C405FF30EE
:101A7000C5050030C605C817FF30C705FF30C805CB
:101A80000030C9054F0850020318472D482D752D09
:101A9000492D0130C735C80DC90D890B4A2D0130BC
:101AA000CF024F0850060319562D572D6D2D0130CA
:101AB000CE024E080739031D5E2D5F2D492D6D2D79
:101AC0006D2D6D2D0130C636C50CC40C890B632DF0
:101AD0000130CA004A08D0076D2D50084F06031D7B
:101AE000722D732D622DA82DA82D50084F020318BA
:101AF0007A2D7B2DA82D7C2D0130C435C50DC60D4A
:101B0000890B7D2D0130D0024F0850060319892D15
:101B10008A2DA02D0130CE024E080739031D912DCC
:101B2000922D7C2DA02DA02DA02D0130C936C80CE2
:101B3000C70C890B962D0130CA004A08CF07A02D8B
:101B400050084F06031DA52DA62D952DA82DA82DB7
:101B5000CE1FAB2DAC2DBD2DFF30C406FF30C5060A
:101B6000FF30C6060130C407003003180130C50736
:101B7000003003180130C607BD2D4E1FC02DC12DEA
:101B8000D22DFF30C706FF30C806FF30C90601302E
:101B9000C707003003180130C807003003180130B0
:101BA000C907D22DCE014408C7074508C83D4608DD
:101BB000C93DC91FDC2DDD2DF12DFF30C706FF30DB
:101BC000C806FF30C9060130C707003003180130CE
:101BD000C807003003180130C907CE010314CE0D29
:101BE000F12D4708F0004808F1004908F2005008BC
:101BF000CA004A08F3004E08CB004B08F4009631A7
:101C0000FD268C3170082000C4007108C5007208E0
:101C1000C6000A2E08002100E90102306902031CF7
:101C2000122E132E152E342E342E03302000D40005
:101C30005408F60021006908933144238E31EA3EAE
:101C4000860087010030C03F0030C13F0030C23FF6
:101C500001302000D40054082100E9070230690255
:101C6000031C332E342E152EE9010A306902031CA1
:101C70003A2E3B2E3D2E692E692E03302000D400D3
:101C80005408F60021006908933144238E31203E28
:101C90008600013087000030C03F0030C13F003077
:101CA000C23F2100690809073E3E860001308700D7
:101CB0000030C03F0030C13F01302000D400540844
:101CC0002100E9070A306902031C672E682E3D2EA9
:101CD000692E0030C2000030C3000030C400FF3065
:101CE000C500FF30C6007F30C7000030C80000309C
:101CF000C9000030CA00FF30CB00FF30CC007F307D
:101D0000CD000030CE000030CF000030D000FF30DA
:101D1000D600FF30D7007F30D8000030B30000304D
:101D2000B2000030B1000030B0000030B700003029
:101D3000B6000030B5000030B400D901DA01DB0193
:101D40000030A3008030A4000130A5004030A60080
:101D50000030A7000030A800973170278E31210095
:101D6000DF01E001D101BB01E701E801E83020001B
:101D7000D4005408A3003B30D5005508A40003301C
:101D8000D6005608A500E7308B31D3238E312100D1
:101D9000E70103302000D40054082100E800E830B7
:101DA0002000D4005408BA00F130D5005508BB001B
:101DB0000330D6005608BC00E7309331F2238E3151
:101DC00005302000D4005408A0000A309331962337
:101DD0008E312000A501ED309331B3238E310530D3
:101DE0002000D4005408A0000B30933196238E318C
:101DF0002000A501EF309331B3238E312100D501AE
:101E00000314D50D032FA930943173248E3100387B
:101E1000031D0B2F0C2F0E2F032F032F6400210007
:101E20002B082000D400D501D60121002A0820006B
:101E3000D700D801D9010830D735D80DD90D890B75
:101E40001C2F210029082000DA00DB01DC01103002
:101E5000DA35DB0DDC0D890B282F5A08D7045B0817
:101E6000D8045C08D9045708D4045808D504590884
:101E7000D60454082100E400200055082100E500A4
:101E8000200056082100E6002E082000D400D501CD
:101E9000D60121002D082000D700D801D901083033
:101EA000D735D80DD90D890B502F21002C082000D3
:101EB000DA00DB01DC011030DA35DB0DDC0D890BDB
:101EC0005C2F5A08D7045B08D8045C08D90457086B
:101ED000D4045808D5045908D60454082100DC005D
:101EE000200055082100DD00200056082100DE00FA
:101EF0002608F0002708F1002808F20064082000F6
:101F0000D400210065082000D500210066082000CB
:101F1000D600210023092000D70021002409200039
:101F2000D800210025092000D900D70A0319D80AB2
:101F30000319D90A5708D4075808D53D5908D63D82
:101F40005408F3005508F4005608F50088310420C1
:101F50008E31083070072100D2000030713DD3006F
:101F60000030723DD400D41FB62FB72FB92FBA015D
:101F7000DA2F5408803AFF000030803A7F02031DB8
:101F8000C72F00305302031DC72F30305202031CED
:101F9000CA2FCB2FD22F2F302000D400540821007D
:101FA000BA00DA2F52082000D40054082100BA00E9
:101FB000DA2FDA2F5F083F392000D40054082100BF
:101FC000AF003A082000D4005408A30021002F08D5
:101FD0008931BE218E3121005008803AFF00660809
:101FE000803A7F02031DFA2F65084F02031DFA2F66
:101FF00064084E020318FE2F8031F3288031FA283E
:10200000FF3FFF3FFF3FFF3FFF3FFF3FFF3FFF3FE0
:10201000FF3FFF3FFF3FFF3FFF3FFF3FFF3FFF3FD0
:10202000FF3FFF3FFF3FFF3FFF3FFF3FFF3FFF3FC0
:10203000FF3FFF3FFF3FFF3FFF3FFF3FFF3FFF3FB0
:10259000640080010131890BC92A0034240016141B
:1025A000D12A1618D42AD52AD12AD62A08002400DE
:1025B0001615DA2A1619DD2ADE2ADA2ADF2A080099
:1025C00022000C128E150E168C1621000C128E1184
:1025D0000E128C1208002000911124009614F02A8B
:1025E0009618F32AF42AF02AF52A08007A087904C2
:1025F00078040319FC2AFD2A002B8030FA06002BF0
:10260000012B080024000E148E1421000E148E14C9
:102610004F30240092009401283095000800F0000B
:1026200020009111700824009100162B1419192B09
:102630001A2B162B1B2B0800F2009231CE2293315D
:10264000AE3093310F239331720893310F239331BE
:10265000710893310F2393319231D72293310800BF
:10266000DD01DE012100EA01EB01EC01ED01EE01EB
:10267000EF01203084000130850032309231C822D1
:10268000933120008E310B2EF900F801472B791C75
:102690004A2B4B2B502B7608F7007708F807502B66
:1026A0000310F60D0310F90CF908031D582B592BD4
:1026B000472B5A2B78085C2B0800F0002000911162
:1026C00024009615632B9619662B672B632B682BBA
:1026D0007008031D6C2B6E2B96166F2B9612161618
:1026E000712B161A742B752B712B762B1108782BE6
:1026F0000800F001F10104307102A13003197002E9
:10270000031C832B842B862B952B952B00000130EB
:10271000F0070030F13D04307102A130031970025E
:10272000031C932B942B862B952B08002000A200D2
:10273000FA012008B0389431A6249331FA01200020
:102740002208A1000430A136890BA32B21081038E0
:102750009431A6249331FA01200022080F399431D4
:10276000A624933108002000A700C72B2508A60047
:102770002608A000270880310A009331883187207D
:10278000933101302000A6002608A707C72B270891
:1027900080310A0093310038031DCF2BD02BB62B8C
:1027A000D12B0800F2009231CE229331AE3093311A
:1027B0000F239331720893310F2393319231EB221F
:1027C0009331AF3093310F239331013093315D2337
:1027D0009331F1007108F3009231D72293317308DD
:1027E000F12B08002000C0000E2C3A08BD003D0867
:1027F000A3003B0880310A009331BE003E08A400CC
:102800003C08BF003F08A50040088B31D32393311B
:1028100001302000BD003D08BB070E2C3B08803175
:102820000A0094310038031D162C172CF52B182C98
:102830000800FD01FA1F1D2C1E2C2A2CF809F9098D
:10284000FA09F80A0319F90A0319FA0AFD0103142F
:10285000FD0D2A2C7808F0007908F1007A08F200C2
:102860008E30FB007B08F3007D08FC007C08F40040
:102870009631FD2694317008F8007108F90072084D
:10288000FA00422C08008E302000A4002408A50085
:10289000552C0130A336A20CA10CA00C890B4A2C9C
:1028A0000130A4002408A507552CFF302305031D83
:1028B0005A2C5B2C492C5C2C2008F0002108F100DC
:1028C0002208F2002508A4002408F300F401963140
:1028D000FD26943170082000A0007108A100720844
:1028E000A200722C0800FC0004309331D2239431F2
:1028F000F90006309331D2239431FF3A013E790733
:10290000FA007A08FB007B08031D872CA32C7C08A7
:10291000F9007908F1000630FA007A08F200073071
:102920009531192594310330F9007C088600870120
:10293000790881050330F9007C08033E8600870191
:1029400079088105A32C7B08A52C0800FC00220037
:102950008C127A08031DAD2CAF2C0C16B02C0C1267
:10296000FD0108307D02031CB62CB72CB92CD82CE5
:10297000D82C00000030FC1B0130FB00FB0DFB0DD0
:10298000FB0D22000E087B06F7397B068E00000047
:1029900022000E120E1600000310FC0D0130FB0089
:1029A0007B08FD0708307D02031CD72CD82CB92CDE
:1029B00022008C160800710870040319E02CE12C29
:1029C000112DF5010314F50DEF2C0130F035F10D4B
:1029D000890BE62C0130F4007408F507EF2CF11F89
:1029E000F22CF32CE52CF52CF52C71087302031D49
:1029F000FB2C70087202031CFE2CFF2C042D7008A7
:102A0000F2027108F33B042D0130F136F00C890B12
:102A1000052D0130F502031D0E2D0F2DF52C112D66
:102A2000112D7308F101F1077208F001F007182D5C
:102A30000800F7009231CE229531AE3093310F234A
:102A40009531770893310F2395319231EB229531EF
:102A5000AF3093310F239531F8014C2D7208FF3EB2
:102A6000F300FF3003180030F40078087306740494
:102A700000300319013093315D239531F50078085A
:102A80007107F6007608860087017508810001301D
:102A9000F3007308F8074C2D72087802031C512DBF
:102AA000522D2E2D532D9231D7229531080093317E
:102AB000792395312000A50108302502031C612DE2
:102AC000622D642D942D942D2508A3002308A000C9
:102AD00000309331962395312000A40180302402E8
:102AE000031C732D742D762D892D892DFA01031465
:102AF000FA0D00309431A624953101302000A30056
:102B00002308A40780302402031C872D882D762DEE
:102B1000892D0130A3002308A50708302502031CD6
:102B2000922D932D642D942D08002000B3018E303A
:102B3000FB007B08B200B11F9E2D9F2DBB2DAE095F
:102B4000AF09B009B109AE0A0319AF0A0319B00AF7
:102B50000319B10AB3010314B30DBB2DBB2D013012
:102B6000B136B00CAF0CAE0C890BB02D0130FB00B0
:102B70007B08B207BB2DFF303105031DC02DC12DD1
:102B8000AF2DC22D2E08F0002F08F1003008F20002
:102B90003208FB007B08F3003308FC007C08F400DB
:102BA0009631FD26953170082000AE007108AF0007
:102BB0007208B000DB2D0800FF309331D22395312D
:102BC000153A0319E42DE52DE72D2E2E2E2E40303B
:102BD000F4007408F100093093311C239531F5019C
:102BE0007508FF3A031DF52DF62DF82D062E062E3D
:102BF0009331792395310130F4007408F507750895
:102C0000FF3A031D042E052EF82D062E4030F40049
:102C10007408F100083093311C2395310330F4001F
:102C20007408F100093093311C2395312730F400EA
:102C30007408F1000A3093311C2395311F30F400E1
:102C40007408F1000C3093311C2395311F30F400CF
:102C50007408F1000D3093311C23953108000030C9
:102C6000FC000030FB000030FA000030F90073086F
:102C700072047104700403193E2E3F2E872EFD014D
:102C80000314FD0D4F2E0130F035F10DF20DF30D53
:102C9000890B442E0130F8007808FD074F2EF31FF2
:102CA000522E532E432E552E552E0130F935FA0D46
:102CB000FB0DFC0D890B562E73087702031D6A2E3F
:102CC00072087602031D6A2E71087502031D6A2EB2
:102CD00070087402031C6D2E6E2E782E7008F4029C
:102CE0007108F53B7208F63B7308F73B7914782EB0
:102CF0000130F336F20CF10CF00C890B792E013017
:102D0000FD02031D842E852E552E872E872E7C08CE
:102D1000F3007B08F2007A08F1007908F000902EA9
:102D20000800F601F11F952E962E9F2EF009F1094D
:102D3000F00A0319F10AF6010314F60D9F2EF31F92
:102D4000A22EA32EAD2EF209F309F20A0319F30AFB
:102D50000130F4007408F606AD2EF701F801710891
:102D600070040319B42EB52EEB2EF5010314F50DE6
:102D7000C32E0130F035F10D890BBA2E0130F4006D
:102D80007408F507C32EF11FC62EC72EB92EC92E03
:102D9000C92E0130F735F80D890BCA2E7108730260
:102DA000031DD42E70087202031CD72ED82EDE2EDF
:102DB0007008F2027108F33B7714DE2E0130F13611
:102DC000F00C890BDF2E0130F502031DE82EE92EF1
:102DD000C92EEB2EEB2E7608031DEF2EF52EF709EC
:102DE000F809F70A0319F80AF52E7808F101F10736
:102DF0007708F001F007FC2E08007308031D012F6F
:102E0000092F720871047004031D072F082F1D2F4E
:102E1000092F0030F0000030F1000030F2006F2F79
:102E20006F2F1D2F0130F5007508F3070130F236C2
:102E3000F10CF00C890B172F1D2FFE307205031DAE
:102E4000222F232F122F392F392F0130F50075082B
:102E5000F3070130F007003003180130F1070030AC
:102E600003180130F2070130F236F10CF00C890B37
:102E7000342FFF307205031D3E2F3F2F252F4A2F81
:102E80004A2F0130F3020130F035F10DF20D890BBC
:102E9000442F4A2FF11F4D2F4E2F412F7318512FC2
:102EA000522F582FFF30F0057F30F105FF30F2052B
:102EB0000310F30C7308F500F601F7011030F53537
:102EC000F60DF70D890B5F2F7508F0047608F104F5
:102ED0007708F2047408031D6E2F6F2FF217080095
:102EE00023008C018E0124008E018C01210095139A
:102EF00099101910191799161916991199178E12F8
:102F000025009E101E10193020009B000C3025005B
:102F1000910020009C141C141C15250093131313FE
:102F20009315131593101310161096101611961171
:102F30002000991318101813981318169816970153
:102F40009601210011140B179231E0229731FA01FA
:102F5000AE309431A6249731FA01A0309431A624E2
:102F60009731FA01C8309431A6249731FA01A33081
:102F70009431A6249731FA012C309431A62497314C
:102F8000933179239731FA012E309431A624973169
:102F9000933179239731FA012F309431A624973158
:102FA000FA0123309431A6249731FA01813094310B
:102FB000A6249731FA011C309431A6249731FA01E6
:102FC000A4309431A6249731FA0140309431A624DC
:102FD0009731FA01A6309431A6249731FA01AF3027
:102FE0009431A62497319331792397319531572520
:102FF00097319331022397319531DC2597310800C1
:10300000FF3FFF3FFF3FFF3FFF3FFF3FFF3FFF3FD0
:10301000FF3FFF3FFF3FFF3FFF3FFF3FFF3FFF3FC0
:10302000FF3FFF3FFF3FFF3FFF3FFF3FFF3FFF3FB0
:10303000FF3FFF3FFF3FFF3FFF3FFF3FFF3FFF3FA0
:020000040001F9
:04000E00FC3FFFFFB5
:00000001FF
