:020000040000FA
:1000000080311028FF3FFF3F80312000111C09285C
:100010000A280F2811101810250016100F280900A3
:1000200088019031D82800347C34A23492348A3448
:100030007C3400348434FE3480340034E43492342C
:10004000923492348C3444348234923492346C340A
:10005000303428342434FE3420344E348A348A3404
:100060008A34723478349434923492346034023462
:10007000E23412340A3406346C34923492349234BA
:100080006C340C349234923452343C3400340034A6
:100090000034003400341C347E34FC347E341C3490
:1000A000103428344434823400342834283428343A
:1000B0002834283482344434283410340034403412
:1000C00020341034083404340034C034C0340034D4
:1000D0000034F834243422342434F8348234FE34A6
:1000E000923492346C347C3482348234823444349A
:1000F0008234FE34823482347C34FE34923492343E
:1001000082348234FE3412341234023402347C34A9
:100110008234923492347434FE34103410341034F7
:10012000FE3400348234FE3482340034403480346F
:1001300082347E340234FE34103428344434823421
:10014000FE348034803480348034FE3404341834F7
:100150000434FE34FE34043408341034FE347C3469
:100160008234823482347C34FE34123412341234B9
:100170000C347C348234A2344234BC34FE34123425
:10018000323452348C344C34923492349234643459
:1001900002340234FE34023402347E34803480343B
:1001A00080347E340E343034C03430340E34FE3477
:1001B000403430344034FE34C634283410342834CB
:1001C000C63406340834F03408340634C234A23459
:1001D00092348A348634543445344D3450340034A7
:1001E00020342034203400342200E9010230690236
:1001F000031CFB28FC28FE281E291E290330210091
:10020000DA005A08F600220069088731E7278031B2
:100210006A3E8600013087000030C03F0030C13F99
:100220000030C23F01302100DA005A082200E907FD
:1002300002306902031C1D291E29FE28E9010A302B
:100240006902031C24292529272951295129033012
:100250002100DA005A08F600220069088731E727F2
:100260008031A03E860087010030C03F0030C13F92
:100270000030C23F220069080907C03E860087019E
:100280000030C03F0030C13F01302100DA005A0881
:100290002200E9070A306902031C4F295029272947
:1002A00051290030C1000030C2000030C300FF30CF
:1002B000C400FF30C5007F30C6000030C7000030EA
:1002C000C8000030C900FF30CA00FF30CB007F30CB
:1002D000CC000030CD000030CE000030CF00FF3029
:1002E000D500FF30D6007F30D7000030B20000309C
:1002F000B1000030B0000030AF000030B600003078
:10030000B5000030B4000030B300D901DA01DB01E0
:100310000030A3008030A4000130A5004030A600CA
:100320000030A7000030A80093311923803122004B
:10033000DF01E001D001BA01E701E80168302100E6
:10034000DA005A082000D2003B302100DB005B08B5
:100350002000D30003302100DC005C082000D40022
:10036000673083317B2380312200E7010330210095
:10037000DA005A082200E80068302100DA005A0842
:100380002000D2004F302100DB005B082000D300AA
:1003900003302100DC005C082000D400673083318A
:1003A0007B23803105302100DA005A082000A000AC
:1003B0000A3091314F2180312000A0012030963148
:1003C000C926803105302100DA005A082000A0003B
:1003D0000B3091314F2180312000A0013230963115
:1003E000C92680312200E70106302100DA005A08D0
:1003F0002200E80068302100DA005A082000E900F5
:10040000EB302100DB005B082000EA000230210015
:10041000DC005C082000EB0067309131AA218031BC
:1004200006302100DA005A082000A0006430913123
:100430004F2180312000A0014F309631C9268031F4
:100440006A302100DA005A082200E7000630210055
:10045000DA005A082200E80068302100DA005A0861
:100460002000D20043302100DB005B082000D300D5
:1004700002302100DC005C082000D40067308331AA
:100480007B2380312200D4010314D40D9031FE204F
:1004900080318431882C20004508CB004608CC00F0
:1004A0004708CD0003104C0D4D0DCE004E08D10075
:1004B0004808CB004908CC004A08CD0003104C0D79
:1004C0004D0DCE004E08D0005108031D682A792A30
:1004D0005008510203186D2A6E2A812A5103FF3AEF
:1004E0005007CB0019304B02031C772A782A812A47
:1004F000792A4808C5004908C6004A08C7007A2B6F
:100500007A2B5008031D852A952A5108500203189A
:100510008A2A8B2A962A5003FF3A5107CB001930BA
:100520004B02031C942A952A962A7A2B0630CB007C
:100530004B08CF00C71F9D2A9E2A9F2ACF17CA1F8C
:10054000A22AA32AA42A4F17C617FF30C505FF30D9
:10055000C6050030C705C917FF30C805FF30C905FB
:100560000030CA05500851020318B72AB82AE52AF4
:10057000B92A0130C835C90DCA0D890BBA2A013014
:10058000D002500851060319C62AC72ADD2A0130B5
:10059000CF024F080739031DCE2ACF2AB92ADD2AF8
:1005A000DD2ADD2A0130C736C60CC50C890BD32ADB
:1005B0000130CB004B08D107DD2A51085006031D3E
:1005C000E22AE32AD22A182B182B510850020318CA
:1005D000EA2AEB2A182BEC2A0130C535C60DC70DC7
:1005E000890BED2A0130D102500851060319F92A6E
:1005F000FA2A102B0130CF024F080739031D012BB7
:10060000022BEC2A102B102B102B0130CA36C90CF0
:10061000C80C890B062B0130CB004B08D007102BE0
:1006200051085006031D152B162B052B182B182BC4
:10063000CF1F1B2B1C2B2D2BFF30C506FF30C606F2
:10064000FF30C7060130C507003003180130C60768
:10065000003003180130C7072D2B4F1F302B312BD3
:10066000422BFF30C806FF30C906FF30CA060130F2
:10067000C807003003180130C907003003180130E3
:10068000CA07422BCF014508C8074608C93D47089D
:10069000CA3DCA1F4C2B4D2B612BFF30C806FF30C3
:1006A000C906FF30CA060130C80700300318013000
:1006B000C907003003180130CA07CF010314CF0D5A
:1006C000612B4808F0004908F1004A08F20051087F
:1006D000CB004B08F3004F08CC004C08F4009531D8
:1006E000D325823170082000C5007108C600720849
:1006F000C7007A2B08002000E3005308203A031DAE
:10070000822B832B882B3A30D5005508D300882BB9
:100710003030D30263088600013087000108D5001D
:100720005508E40052088600013087000108D50012
:100730005508E200E50105306502031CA02BA12B42
:10074000A32B532C532C0530D5005508F600530825
:100750008731E7278331143E2000650780310A0086
:100760008331D6005608E100E801362CE601620824
:10077000D5005508A000640891314F218331200035
:10078000E70108306702031CC62BC72BC92B152CA9
:10079000152C6108D500D6010130D7000030D800F3
:1007A0005408D900DA015908F0005A08F100670826
:1007B000DB00DC016808DD00DE010330DD35DE0D25
:1007C000890BDE2B5B085D07F2005C085E3DF300E1
:1007D0009431F82483317008890A2000F12BD73531
:1007E000D80D890BEF2B55085705DF005608580523
:1007F000E00060085F040319FE2BFF2B0A2C013078
:10080000D500670A042CD535890B032C5508D60072
:100810005608E6040130D5005508E707083067029E
:10082000031C132C142CC92B152CFA010314FA0DDC
:100830006608883104208331FA010314FA0D200080
:100840006608883104208331FA010314FA0D200070
:10085000660888310420833101302000D500550816
:10086000E2070130D5005508E807362C5408680225
:10087000031C3B2C3C2CB62B3D2C5208860001302F
:1008800087000108D5005508E2005408D500550836
:10089000E4070130D5005508E50705306502031C63
:1008A000522C532CA32BE8016F2C520886000130E8
:1008B000870001086807D5005508A0006408913139
:1008C0004F218331FA010314FA0D003088310420DE
:1008D000833101302000D5005508E8076F2C5408FB
:1008E0006802031C742C752C552C762C0530D50011
:1008F0005508F60054088731E7278331013E200070
:10090000D60063088600013087005608810708007A
:10091000293093315A2384312100DA005A08220009
:10092000E900E908031D952C962C982C882C882C1E
:10093000640022002B082100DA00DB01DC01220028
:100940002A082100DD00DE01DF010830DD35DE0D83
:10095000DF0D890BA62C220029082100E000E1010F
:10096000E2011030E035E10DE20D890BB22C600898
:10097000DD046108DE046208DF045D08DA045E0855
:10098000DB045F08DC045A082200E40021005B0855
:100990002200E50021005C082200E6002E0821006C
:1009A000DA00DB01DC0122002D082100DD00DE0180
:1009B000DF010830DD35DE0DDF0D890BDA2C22007A
:1009C0002C082100E000E101E2011030E035E10DEA
:1009D000E20D890BE62C6008DD046108DE04620884
:1009E000DF045D08DA045E08DB045F08DC045A08F3
:1009F0002200DC0021005B082200DD0021005C08F1
:100A00002200DE002608F0002708F1002808F20086
:100A100064082100DA00220065082100DB002200C2
:100A200066082100DC00220023092100DD002200ED
:100A300024092100DE00220025092100DF00DD0A53
:100A40000319DE0A0319DF0A5D08DA075E08DB3DD9
:100A50005F08DC3D5A08F3005B08F4005C08F50011
:100A6000963146268431083070072200D1000030CC
:100A7000713DD2000030723DD300D31F402D412D77
:100A8000432DB901642D5308803AFF000030803AAD
:100A90007F02031D512D00305202031D512D3030B5
:100AA0005102031C542D552D5C2D2F302100DA00EE
:100AB0005A082200B900642D51082100DA005A08B2
:100AC0002200B900642D642D5F083F392100DA004F
:100AD0005A082200D80039082100DA005A082000FC
:100AE000A3002200580887312327843122004F08B1
:100AF000803AFF006608803A7F02031D852D650855
:100B00004E02031D852D64084D020318892D88317E
:100B1000F1288831F8282000ED006430F000003022
:100B2000F1006A082100D400D5015408F2005508EC
:100B3000F3009431F824853170082100D60056085E
:100B40002000EF000A30F0000030F1006A082100B8
:100B5000D400D5015408F2005508F3009431F8246C
:100B6000853170082100D6007108D7000A30D800FE
:100B70005808F60020006F088731E7278531FF3AD3
:100B8000013E21005607D90059082000EE006430CC
:100B90002100D4005408F60020006F088731E727B1
:100BA00085312100D5000A30D6005608F600200015
:100BB0006E088731E727853121005507FF3A013E4E
:100BC00020006A072100D70057082000EC003030D1
:100BD0002100D40054082000EF076F08303A031DAD
:100BE000F22DF32DFA2D3A302100D40054082000C4
:100BF000EF00FA2D30302100D40054082000EE0719
:100C00006F083A3A031D052E062E132E6E08303A51
:100C1000031D0B2E0C2E132E3A302100D400540845
:100C20002000EE00132E69082100D4005408200093
:100C3000D2006F082100D50055082000D3006B08B2
:100C40002100D60056082000D4006D0883317B2394
:100C50008531200069082100D40054082000D2000A
:100C60006E082100D50055082000D3006B08210034
:100C7000D60056082000D4006D0883317B238531CF
:100C8000200069082100D40054082000D2006C081C
:100C9000303E2100D50055082000D3006B0821000C
:100CA000D60056082000D4006D0883317B2385319F
:100CB000080020003508BB003608BC003708BD001E
:100CC00003103C0D3D0DBE003E08BF00BF08031DD4
:100CD0006A2E6B2E732E0030B5000030B600003047
:100CE000B700222F222F3808BB003908BC003A0871
:100CF000BD0003103C0D3D0DBE003E08C400C408FD
:100D0000031D832E842E8C2E0030B5000030B600DB
:100D10000030B700222F222F44087B3EBB003B0847
:100D2000BF073508BB003608BC003708BD001030CF
:100D3000BD36BC0CBB0C890B982E3B08BE003E0890
:100D4000C4003808BB003908BC003A08BD001030A8
:100D5000BD36BC0CBB0C890BA82E3B08BE003E0860
:100D6000C4068030BB003B08C405B617B917FF3076
:100D7000B805FF30B9050030BA050030C0000030BA
:100D8000C1000030C2000730BB003B08C300C82EC2
:100D9000351CCB2ECC2ED32E3808C0073908C13DC8
:100DA0003A08C23DD32E0130B736B60CB50C890BCC
:100DB000D42E0130B835B90DBA0D890BDA2E0130B9
:100DC000C302031DE42EE52EC82EE62E0930BB001B
:100DD0003B08C300EB2E351CEE2EEF2EF62E380806
:100DE000C0073908C13D3A08C23DF62E0130B7367A
:100DF000B60CB50C890BF72E0130C236C10CC00CF5
:100E0000890BFD2E0130C302031D072F082FEB2E87
:100E1000092F4008F0004108F1004208F2003F08A5
:100E2000BB003B08F3004408BC003C08F4009531CB
:100E3000D325863170082000B5007108B60072080D
:100E4000B700222F08002000A900A908031D292FA0
:100E50002A2F342F2308A400A50124082100BE0056
:100E6000200025082100BF0020002308A400A501C0
:100E7000250821003F02031D412F200024082100E6
:100E80003E020318442F452F522F20002308A400B0
:100E90002408A70021003E08013E2000A4002408E9
:100EA000A8007C2F20002308A400A50121003F08F2
:100EB00020002502031D602F21003E08200024028F
:100EC0000318632F642F702F2308A4002408A800A0
:100ED00021003E08FF3E2000A4002408A7007C2F2C
:100EE0002308A4002408A80021003E082000A40034
:100EF0002408A7007C2F7C2FAB0106302B02031C9B
:100F0000822F832F852FDC2FDC2FA601AC01083028
:100F10002C02031C8C2F8D2F8F2FBF2FBF2F2B0345
:100F2000FF3AA4000330A435890B932F2C03FF3A1A
:100F300024072F3EA5002508AA0028082A02031C22
:100F4000A22FA32FB42F2A082702031CA82FA92FF2
:100F5000B42F0130A4002C0AAE2FA435890BAD2F7D
:100F60002408A5002508A6040130A4002408AC0725
:100F700008302C02031CBD2FBE2F8F2FBF2F2B0834
:100F8000A4002408A0002908403E91314F21873158
:100F9000FA010314FA0D2000260888310420873155
:100FA00001302000A4002408AB0706302B02031CEC
:100FB000DA2FDB2F852FDC2F2308A400A5012408BE
:100FC0002100BE00200025082100BF000800F90014
:100FD000F801EA2F791CED2FEE2FF32F7608F7009A
:100FE0007708F807F32F0310F60D0310F90CF90832
:100FF000031DFB2FFC2FEA2FFD2F7808FF2F080081
:10100000FF3FFF3FFF3FFF3FFC0022008C127A08AA
:10101000031D0B280D280C160E280C12FD0108309C
:101020007D02031C142815281728362836280000AE
:101030000030FC1B0130FB00FB0DFB0DFB0D220003
:101040000E087B06F7397B068E00000022000E1288
:101050000E1600000310FC0D0130FB007B08FD079D
:1010600008307D02031C35283628172822008C16EC
:10107000080020004808CB004908CC004A08CD00F1
:1010800003104C0D4D0DCE004E08D300D308031DA8
:101090004A284B2853280030C5000030C6000030D5
:1010A000C700F028F0284508CB004608CC004708C8
:1010B000CD0003104C0D4D0DCE004E08D400D408C9
:1010C000031D632864286C280030C5000030C6006A
:1010D0000030C700F028F0280030D0000030D100E8
:1010E0000030D20089305407CB004B08D3024808A7
:1010F000CB004908CC004A08CD001030CD36CC0CCE
:10110000CB0C890B7E284B08CE004E08D400450836
:10111000CB004608CC004708CD001030CD36CC0CB3
:10112000CB0C890B8E284B08CE004E08D40680309D
:10113000CB004B08D405C917FF30C805FF30C905DF
:101140000030CA05C617FF30C505FF30C6050030A0
:10115000C7051830CB004B08CF00AE280130D03582
:10116000D10DD20D890BAF2847084A02031DBE28B6
:1011700046084902031DBE2845084802031CC12831
:10118000C228CA284508C8024608C93B4708CA3BC6
:101190005014CA280130C835C90DCA0D890BCB2897
:1011A0000130CF02031DD528D628AE28D7285008F5
:1011B000F0005108F1005208F2005308CB004B0830
:1011C000F3005408CC004C08F4009531D325883145
:1011D00070082000C5007108C6007208C700F0281A
:1011E00008006408CD006508CE006608CF00F82826
:1011F0006608803AFF005708803A7F02031D0629DF
:1012000056086502031D06295508640203180929BA
:101210000A2911296408D5006508D6006608D70098
:1012200011296608803AFF000030803A7F02031DD2
:101230001F2940306502031D1F2901306402031C71
:1012400022292329CC2A5E08803AFF000030803A08
:101250007F02031D312940305D02031D3129013019
:101260005C02031C34293529CC2A50082100DA00FD
:101270005A082200BA00B701B801E9010230690238
:10128000031C4329442946290F2A0F2A6908031DF4
:101290004A29952903302100DA005A08F600220075
:1012A0006903FF3A5F0701398731E72788316A3ED2
:1012B000860001308700403F2100DB00413FDC0019
:1012C000423FDD000330DE005E08F60022006908C0
:1012D000013EFF3A013E5F0701398731E727883138
:1012E0006A3E860001308700403F2100DF00413F19
:1012F000E000423FE100DF09E009E109DF0A0319EC
:10130000E00A0319E10A5F08DB076008DC3D6108B9
:10131000DD3D5B082200BB0021005C082200BC0010
:1013200021005D082200BD00D02964082100DA00F8
:10133000220065082100DB00220066082100DC0095
:101340000330DD005D08F60022005F08FF3E013932
:101350008731E72788316A3E860001308700403FA9
:101360002100DE00413FDF00423FE000DE09DF09EF
:10137000E009DE0A0319DF0A0319E00A5E08DA074A
:101380005F08DB3D6008DC3D5A082200BB002100FD
:101390005B082200BC0021005C082200BD00D029AF
:1013A0003D08803AFF000030803A7F02031DDE29AD
:1013B00000303C02031DDE290B303B02031CE129F7
:1013C000E229E92901302100DA005A082200B70792
:1013D000022A3D08803AFF00FF30803A7F02031D59
:1013E000F729FF303C02031DF729E2303B020318C6
:1013F000FA29FB29022A01302100DA005A082200CA
:10140000B807022A01302100DA005A082200E90751
:1014100002306902031C0D2A0E2A46290F2A3708BA
:10142000023A031D142A152A192AD0010314D00DDB
:10143000262A3808023A031D1E2A1F2A262A0230AD
:101440002100DA005A082200D000262A6408210070
:10145000DA00220065082100DB0022006608210076
:10146000DC000030DC1BFF30DD005A082200AF0733
:1014700021005B082200B03D21005C082200B13D44
:1014800021005D082200B23D4308803AFF00660853
:10149000803A7F02031D522A65084202031D522A28
:1014A000640841020318552A562A5D2A6408C100BF
:1014B0006508C2006608C3005D2A6608803AFF001E
:1014C0004608803A7F02031D6B2A45086502031D0A
:1014D0006B2A4408640203186E2A6F2A752A64086E
:1014E000C4006508C5006608C6005C082100DA0073
:1014F00022005D082100DB0022005E082100DC00E4
:101500000030DC1BFF30DD005A082200B307210049
:101510005B082200B43D21005C082200B53D21009B
:101520005D082200B63D4908803AFF005E08803A17
:101530007F02031DA12A5D084802031DA12A5C0841
:1015400047020318A42AA52AAC2A5C08C7005D0834
:10155000C8005E08C900AC2A5E08803AFF004C084B
:10156000803A7F02031DBA2A4B085D02031DBA2A86
:101570004A085C020318BD2ABE2AC52A5C08CA00B4
:101580005D08CB005E08CC00C52A01302100DA00DE
:101590005A082200D907192BDA01DB01D408031DF0
:1015A000D22AD32A172B10302100DA005A08220041
:1015B000E700E80168302100DA005A082000E9005D
:1015C000F0302100DB005B082000EA00033021003E
:1015D000DC005C082000EB0067309131AA218831E3
:1015E00010302100DA005A082200E7000330210001
:1015F000DA005A082200E80068302100DA005A08B0
:101600002000E900F0302100DB005B082000EA0048
:1016100003302100DC005C082000EB0067309131D2
:10162000AA2188312200D4010314D40D172BBA014A
:10163000192B03302100DA005A08F60022005F0857
:1016400001398731E72788316A3E860001308700FB
:1016500022006408C03F6508C13F6608C23F5008C9
:10166000023A031D342B352B752F3A08013A031D1E
:101670003A2B3B2B752F25001614200018148B17BE
:101680002200E701E80168302100DA005A08200052
:10169000D2003A302100DB005B082000D300033089
:1016A0002100DC005C082000D400673083317B23FC
:1016B0008831220059082100DA00DB01DC01DD015C
:1016C0005D08F3005C08F2005B08F1005A08F000C6
:1016D00022003208F7003108F6003008F5002F0824
:1016E000F40094319624883173082000A300720816
:1016F000A2007108A1007008A0009131FB2188317F
:10170000200020082200BE00200021082200BF0087
:10171000200022082200C0003E082000C500220050
:101720003F082000C600220040082000C700220019
:1017300041082100DA00220042082100DB002200DB
:1017400043082100DC00220044092100DD002200C2
:1017500045092100DE00220046092100DF00DD0AE4
:101760000319DE0A0319DF0A5D08DA075E08DB3DAC
:101770005F08DC3D5A08F8005B08F9005C08FA00D5
:101780009131D121883178082000C8007908C9003A
:101790007A08CA00883139208831200045082200A3
:1017A000BE00200046082200BF002000470822009B
:1017B000C00059082100DA00DB01DC01DD015D0811
:1017C000F3005C08F2005B08F1005A08F000220008
:1017D0003608F7003508F6003408F5003308F40041
:1017E00094319624883173082000A3007208A20067
:1017F0007108A1007008A0009131FB218831200000
:1018000020082200E100200021082200E200200040
:1018100022082200E30061082000C50022006208BF
:101820002000C600220063082000C70022004708ED
:101830002100DA00220048082100DB0022004908CC
:101840002100DC0022004A092100DD0022004B09B2
:101850002100DE0022004C092100DF00DD0A03190F
:10186000DE0A0319DF0A5D08DA075E08DB3D5F0860
:10187000DC3D5A08F8005B08F9005C08FA00913179
:10188000D121883178082000C8007908C9007A0879
:10189000CA00883139208831200045082200E10043
:1018A000200046082200E200200047082200E30052
:1018B00003302100DA005A08F60022005B08F30129
:1018C000F3075A08F201F2070A30F0000030F10085
:1018D00092315D22883170088731E7278831A03E38
:1018E0008600870122003E082000C50022003F0834
:1018F0002000C600220040082000C7002200610826
:101900002000C800220062082000C90022006308ED
:101910002000CA0088313920883120004508C03FA6
:101920004608C13F4708C23F0A30F0000030F100CE
:1019300022005B08F301F3075A08F201F207923123
:101940005D22883170080907C03E860087012200A9
:101950005F08C03F6008C13F0130DA070030DB3D5F
:1019600000305B020F3003195A02031CB82CB92C4B
:10197000562E00302000C8001630C9004430CA007E
:1019800022005A08FF3EF200FF305B3DF3000A30B0
:10199000F0000030F10092315D22883170080907B3
:1019A000C03E8600870122005A08F63EF200FF3052
:1019B0005B3DF3000A30F0000030F10092315D220F
:1019C000883170080907C03E84008501003F21006E
:1019D000DA00013FDB00DA09DB09DA0A0319DB0A66
:1019E000403F5A072000AE00413F21005B3D2000F0
:1019F000AF00B001B10193319E23883120002E0841
:101A0000B8002F08B9003008BA00CD30B5004C300E
:101A1000B6003D30B70086315926883120003508A0
:101A2000C5003608C6003708C7008831392088311C
:101A300020004508A0004608A1004708A2009731F1
:101A400061278831200020082100DC005C0822008A
:101A5000D90010302100DA005A082200E700E8011E
:101A600068302100DA005A082000E90022005908F5
:101A70002100DB005B082000EA0003302100DC00CD
:101A80005C082000EB00673085318B258831003001
:101A90002200E1000030E2000030E300E9010A30FA
:101AA0006902031C542D552D572D932D932D033072
:101AB0002100DA005A08F600220069088731E7277A
:101AC0008831A03E86008701403F2000C500413F8D
:101AD000C600423FC700220061082000C800220063
:101AE00062082000C900220063082000CA00823179
:101AF0004B228831200045082200E10020004608E2
:101B00002200E200200047082200E300013021000B
:101B1000DA005A082200E9070A306902031C912DF5
:101B2000922D572D932D00302000C5002030C60087
:101B30004130C700220061082000C800220062086E
:101B40002000C900220063082000CA008831392023
:101B50008831200045082200E100200046082200CC
:101B6000E200200047082200E30061082000B800DE
:101B7000220062082000B900220063082000BA0099
:101B8000220061082000B500220062082000B60093
:101B9000220063082000B7008631592688312000D2
:101BA0003508B8003608B9003708BA004530B50026
:101BB000CC30B6003F30B70086315926883120003E
:101BC0003508C8003608C9003708CA002200610875
:101BD0002000B800220062082000B900220063083B
:101BE0002000BA00A330B5000A30B6004230B7007A
:101BF00086315926883120003508F8003608F9006A
:101C00003708FA009031B220883178082000C500EA
:101C10007908C6007A08C70082314B22883120003B
:101C20004508C8004608C9004708CA006130C50019
:101C3000E130C6004230C70082314B22883120009B
:101C40004508A0004608A1004708A2009731612777
:101C50008831200020082100DA005A082200D9002B
:101C600010302100DA005A082200E700033021007A
:101C7000DA005A082200E80068302100DA005A0829
:101C80002000E900220059082100DB005B08200049
:101C9000EA0003302100DC005C082000EB00673024
:101CA00085318B2588312200D401A02ED408031D54
:101CB0005A2E5B2EA02E10302100DA005A08220086
:101CC000E700E80168302100DA005A082000E90046
:101CD000F0302100DB005B082000EA000330210027
:101CE000DC005C082000EB0067309131AA218831CC
:101CF00010302100DA005A082200E70003302100EA
:101D0000DA005A082200E80068302100DA005A0898
:101D10002000E900F0302100DB005B082000EA0031
:101D200003302100DC005C082000EB0067309131BB
:101D3000AA2188312200D4010314D40DA02EA02E94
:101D400058302100DA005A08F500693092312B2210
:101D50008831003A0319AD2EAE2E312F32302100DA
:101D6000DA005A082200E70006302100DA005A089B
:101D70002200E80068302100DA005A082000E9005B
:101D8000220069082100DB005B082000EA00023025
:101D90002100DC005C082000EB0067309331E52374
:101DA000883168302100DA005A082000D200403023
:101DB0002100DB005B082000D30002302100DC00A2
:101DC0005C082000D400673083317B238831683081
:101DD0002100DA005A082000D20022005808913170
:101DE0006C21883120002E08B8002F08B900300877
:101DF000BA000030B5002030B6003F30B700863161
:101E00005926883120003508C8003608C90037082F
:101E1000CA000030C5004030C6004230C7008231E1
:101E20004B22883120004508A0004608A100470841
:101E3000A200973161278831200020082100DB00B3
:101E40005B082000D30002302100DC005C08200089
:101E5000D400673083317B2388319031FE20883174
:101E6000312F2200E701E80168302100DA005A082A
:101E70002000D2003B302100DB005B082000D300B3
:101E800003302100DC005C082000D400673083317F
:101E90007B23883100302200B2000030B1000030D6
:101EA000B0000030AF000030B6000030B5000030A8
:101EB000B4000030B300D9010030C1000030C200CE
:101EC0000030C300FF30C400FF30C5007F30C600C3
:101ED0000030C7000030C8000030C900FF30CA0021
:101EE000FF30CB007F30CC00752F0130DF07003092
:101EF000E03D3F305F052100DA0000302200600540
:101F00002100DB005B085A04031D872F892F8431D1
:101F1000882C22005508A3005608A4005708A500E5
:101F20004D082100DA0022004E082100DB002200CB
:101F30004F082100DC00220055092100DD002200AD
:101F400056092100DE00220057092100DF00DD0ACA
:101F50000319DE0A0319DF0A5D08DA075E08DB3DB4
:101F60005F08DC3D5A08F3005B08F4005C08F500EC
:101F70003030F0000030F1000030F200963146269B
:101F8000883170082100E0007108E1007208E20069
:101F90000630E035E10DE20D890BC92F6008220003
:101FA000A000210061082200A10021006208220097
:101FB000A2003030F0000030F1000030F2002008C4
:101FC000F3002108F4002208F500963146268831F6
:101FD00070082200A6007108A7007208A80000304F
:101FE000CD000030CE000030CF00FF30D500FF30F4
:101FF000D6007F30D700872F872F872F803110287A
:10200000FF3FFF3FFF3FFF3FFF3FFF3FFF3FFF3FE0
:10201000FF3FFF3FFF3FFF3FFF3FFF3FFF3FFF3FD0
:10202000FF3FFF3FFF3FFF3FFF3FFF3FFF3FFF3FC0
:10203000FF3FFF3FFF3FFF3FFF3FFF3FFF3FFF3FB0
:10204000FF3FFF3FFF3FFF3FFF3FFF3FFF3FFF3FA0
:10205000FF3FFF3FFF3FFF3FFF3FFF3FFF3FFF3F90
:10206000FF3FFF3FFF3FFF3FFF3FFF3FFF3FFF3F80
:10207000FF3FFF3FFF3FFF3FFF3FFF3FFF3FFF3F70
:10208000FF3FFF3FFF3FFF3FFF3FFF3FFF3FFF3F60
:10209000FF3FFF3FFF3FFF3FFF3FFF3FFF3FFF3F50
:1020A000FF3FFF3FFF3FFF3FFF3FFF3FFF3FFF3F40
:1020B000FF3FFF3FFF3FFF3FFF3FFF3FFF3FFF3F30
:1020C000FF3FFF3FFF3FFF3FFF3FFF3FFF3FFF3F20
:1020D000FF3FFF3FFF3FFF3FFF3FFF3FFF3FFF3F10
:1020E000FF3FFF3FFF3FFF3FFF3FFF3FFF3FFF3F00
:1020F000FF3FFF3FFF3FFF3FFF3FFF3FFF3FFF3FF0
:10210000FF3FFF3FFF3FFF3FFF3FFF3FFF3FFF3FDF
:10211000FF3FFF3FFF3FFF3FFF3FFF3FFF3F6400A9
:1021200080010131890B902800342400161498286E
:1021300016189B289C2898289D280800240016150E
:10214000A1281619A428A528A128A628080020003F
:10215000911124009614AC289618AF28B028AC280A
:10216000B12808007A08790478040319B828B92836
:10217000BC288030FA06BC28BD28080024000E14B4
:102180008E1421000E148E1413302400920094013A
:10219000283095000800F0002000911170082400FC
:1021A0009100D2281419D528D628D228D72808007B
:1021B000A030840000308500343090318F20903181
:1021C0002200EA01EB01EC01ED01EE01EF0120003C
:1021D0008031F428F30090319520903173089031CC
:1021E000CB20903171089031CB2090317208903122
:1021F000CB20903190319E20903108000330F400C4
:102200007408F1000230F5007508F200AE3090312C
:10221000EA2090312130F4007408F100F201031437
:10222000F20DAE309031EA2090310800F00020002D
:102230009111240096151C2996191F2920291C2963
:1022400021297008031D2529272996162829961269
:1022500016162A29161A2D292E292A292F2911085E
:1022600031290800F001F10104307102A130031995
:102270007002031C3C293D293F294E294E290000AC
:102280000130F0070030F13D04307102A130031934
:102290007002031C4C294D293F294E2908002000BB
:1022A000A200FA012008B038883104209131FA01E7
:1022B00020002208A1000430A136890B5C292108E6
:1022C0001038883104209131FA01200022080F399A
:1022D0008831042091310800FB007B082000B10008
:1022E000B201B3013108F0003208F1003308F20006
:1022F0008E30B4003408F300F4019531D3259131C8
:1023000070082000AE007108AF007208B000882984
:102310000800F40090319520913174089031CB2061
:10232000913171089031CB2091319031A7209131BA
:10233000740801389031CB20913101309131162150
:102340009131F2007208F30090319E2091317308B0
:10235000A92908002000EF00C6296908EC006C08D4
:10236000D2006A0880310A009131ED006D08D30077
:102370006B08EE006E08D4006F0883317B23913127
:1023800001302000EC006C08EA07C6296A08803199
:102390000A0091310038031DCE29CF29AD29D0295B
:1023A0000800FD01FA1FD529D629E229F809F90903
:1023B000FA09F80A0319F90A0319FA0AFD010314C4
:1023C000FD0DE2297808F0007908F1007A08F200A2
:1023D0008E30FB007B08F3007D08FC007C08F400D5
:1023E0009531D32591317008F8007108F900720811
:1023F000FA00FA2908008E302000A4002408A50065
:102400000D2A0130A336A20CA10CA00C890B022AC4
:102410000130A4002408A5070D2AFF302305031D61
:10242000122A132A012A142A2008F0002108F10098
:102430002208F2002508A4002408F300F4019531D5
:10244000D325913170082000A0007108A100720806
:10245000A2002A2A0800F800F1010314F10DAE30A1
:102460009131892192310239F6007608F900790814
:10247000031D3B2A5A2A1F30F6007608F100AE30C1
:10248000913189219231F700780886000130870068
:10249000770881002030F6007608F100AE309131E7
:1024A00089219231F700750886000130870077088E
:1024B00081005A2A79085C2A0800710870040319FF
:1024C000622A632A932AF5010314F50D712A01305B
:1024D000F035F10D890B682A0130F4007408F50716
:1024E000712AF11F742A752A672A772A772A7108B8
:1024F0007302031D7D2A70087202031C802A812A40
:10250000862A7008F2027108F33B862A0130F13600
:10251000F00C890B872A0130F502031D902A912ABD
:10252000772A932A932A7308F101F1077208F001C0
:10253000F0079A2A08009131322192312000A5013A
:1025400008302502031CA52AA62AA82AD82AD82A98
:102550002508A3002308A000003091314F219231BB
:102560002000A40180302402031CB72AB82ABA2A0A
:10257000CD2ACD2AFA010314FA0D00308831042047
:10258000923101302000A3002308A40780302402E8
:10259000031CCB2ACC2ABA2ACD2A0130A300230857
:1025A000A50708302502031CD62AD72AA82AD82A2C
:1025B0000800F80090319520923178089031CB20B6
:1025C000923171089031CB2092319031A720923115
:1025D000780801389031CB209231F9010E2B730825
:1025E000FF3EF400FF3003180030F5007908740650
:1025F0007504003003190130913116219231F60033
:1026000079087207F700770886000130870076089E
:1026100081000130F4007408F9070E2B7308790269
:10262000031C132B142BEF2A152B90319E20923173
:10263000080023008C018E0124008E018C012100F2
:1026400095139910191019179916191699119917A8
:102650008E1225009E101E10193020009B000C3099
:102660002500910020009C141C141C1525009313B8
:1026700013139315131593101310161096101611AB
:1026800096112000991318101813981318169816FD
:1026900097019601210011140B179031BE20933140
:1026A00095316425933194313924933192319B22B1
:1026B000933108002000A1000430FA007A08F100EC
:1026C000AE30913189219331FB000630FC007C084B
:1026D000F100AE30913189219331FF3A013E7B0701
:1026E000FD007D082000A0002008031D782B9B2BF7
:1026F0000730FA007A08F1002108FB007B08F2009D
:102700000630FC007C08F300AE309231D9229331C0
:102710000330FA00200021088600013087007A0883
:1027200081050330FA002108033E8600013087004E
:102730007A0881059B2B20089D2B08002000B301FF
:102740008E30FB007B08B200B11FA72BA82BC42B37
:10275000AE09AF09B009B109AE0A0319AF0A0319EE
:10276000B00A0319B10AB3010314B30DC42BC42B6F
:102770000130B136B00CAF0CAE0C890BB92B013067
:10278000FB007B08B207C42BFF303105031DC92BAA
:10279000CA2BB82BCB2B2E08F0002F08F1003008E5
:1027A000F2003208FB007B08F3003308FC007C08D1
:1027B000F4009531D325933170082000AE007108E4
:1027C000AF007208B000E42B08002100D5000A30E9
:1027D000F0000030F10020006A08EC00ED016C0808
:1027E000F2006D08F3009431F82493317008200052
:1027F000EE006E082100D6000A302000EC006C08C4
:10280000F600210056088731E7279331FF3A013E51
:1028100020006A07ED006D082100D400200069083F
:10282000EC006C08D20021005608303E2000ED007C
:102830006D08D3006B08EE006E08D4002100550827
:1028400083317B23933120006908EC006C08D200AF
:1028500021005408303E2000ED006D08D3006B08C5
:10286000EE006E08D4002100550883317B2393319C
:10287000080022000C128E150E168C1621000C1268
:102880008E110E128C12FA01AE3088310420943170
:10289000FA01A030883104209431FA01C83088311F
:1028A00004209431FA01A330883104209431FA01D4
:1028B0002C30883104209431913132219431FA0145
:1028C0002E30883104209431913132219431FA0133
:1028D0002F30883104209431FA01233088310420CC
:1028E0009431FA018130883104209431FA011C308E
:1028F000883104209431FA01A430883104209431C5
:10290000FA014030883104209431FA01A630883130
:1029100004209431FA01AF30883104209431913190
:102920003221943192319B22943108000030FC0016
:102930000030FB000030FA000030F9007308720428
:10294000710470040319A52CA62CEE2CFD010314B0
:10295000FD0DB62C0130F035F10DF20DF30D890BA4
:10296000AB2C0130F8007808FD07B62CF31FB92C0A
:10297000BA2CAA2CBC2CBC2C0130F935FA0DFB0D5D
:10298000FC0D890BBD2C73087702031DD12C720836
:102990007602031DD12C71087502031DD12C70081D
:1029A0007402031CD42CD52CDF2C7008F40271089F
:1029B000F53B7208F63B7308F73B7914DF2C0130C6
:1029C000F336F20CF10CF00C890BE02C0130FD0217
:1029D000031DEB2CEC2CBC2CEE2CEE2C7C08F30015
:1029E0007B08F2007A08F1007908F000F72C080063
:1029F000F601F11FFC2CFD2C062DF009F109F00A5F
:102A00000319F10AF6010314F60D062DF31F092D23
:102A10000A2D142DF209F309F20A0319F30A013001
:102A2000F4007408F606142DF701F801710870041B
:102A300003191B2D1C2D522DF5010314F50D2A2D04
:102A40000130F035F10D890B212D0130F4007408AF
:102A5000F5072A2DF11F2D2D2E2D202D302D302D57
:102A60000130F735F80D890B312D71087302031D04
:102A70003B2D70087202031C3E2D3F2D452D700822
:102A8000F2027108F33B7714452D0130F136F00C5A
:102A9000890B462D0130F502031D4F2D502D302D91
:102AA000522D522D7608031D562D5C2DF709F8097D
:102AB000F70A0319F80A5C2D7808F101F107770885
:102AC000F001F007632D0800FF30F5007508F100F4
:102AD000AE30913189219531153A0319702D712D40
:102AE000732DD22DD22D0930F5007508F10040303C
:102AF000F6007608F200AE309031EA209531F70109
:102B00007708FF3A031D852D862D882D962D962D4D
:102B10009131322195310130F5007508F7077708BA
:102B2000FF3A031D942D952D882D962D0830F50024
:102B30007508F1004030F6007608F200AE309031B2
:102B4000EA2095310930F5007508F1000330F600F0
:102B50007608F200AE309031EA2095310A30F50067
:102B60007508F1002730F6007608F200AE3090319B
:102B7000EA2095310C30F5007508F1001F30F600A1
:102B80007608F200AE309031EA2095310D30F50034
:102B90007508F1001F30F6007608F200AE30903173
:102BA000EA20953108007308031DD72DDF2D720828
:102BB00071047004031DDD2DDE2DF32DDF2D00309B
:102BC000F0000030F1000030F200452E452EF32DCC
:102BD0000130F5007508F3070130F236F10CF00C06
:102BE000890BED2DF32DFE307205031DF82DF92D07
:102BF000E82D0F2E0F2E0130F5007508F307013078
:102C0000F007003003180130F107003003180130DD
:102C1000F2070130F236F10CF00C890B0A2EFF306E
:102C20007205031D142E152EFB2D202E202E013093
:102C3000F3020130F035F10DF20D890B1A2E202E22
:102C4000F11F232E242E172E7318272E282E2E2EFA
:102C5000FF30F0057F30F105FF30F2050310F30C73
:102C60007308F500F601F7011030F535F60DF70D94
:102C7000890B352E7508F0047608F1047708F20404
:102C80007408031D442E452EF2170800F801F21FA8
:102C90004A2E4B2E572EF009F109F209F00A0319BA
:102CA000F10A0319F20AF8010314F80D572EF51F63
:102CB0005A2E5B2E682EF309F409F509F30A03195D
:102CC000F40A0319F50A0130F6007608F806682EB2
:102CD0000030F9000030FA000030FB007208710487
:102CE00070040319742E752EB42EF7010314F70D1A
:102CF000842E0130F035F10DF20D890B7A2E013062
:102D0000F6007608F707842EF21F872E882E792E7C
:102D10008A2E8A2E0130F935FA0DFB0D890B8B2E88
:102D200072087502031D9A2E71087402031D9A2EF3
:102D300070087302031C9D2E9E2EA62E7008F302AF
:102D40007108F43B7208F53B7914A62E0130F23677
:102D5000F10CF00C890BA72E0130F702031DB12EE8
:102D6000B22E8A2EB42EB42E7808031DB82EC12E92
:102D7000F909FA09FB09F90A0319FA0A0319FB0A06
:102D8000C12E7908F0007A08F1007B08F200C82E05
:102D900008002000A2002208203A031DD02ED12EC8
:102DA000D62E3A30A1002108A200D62E3030A20241
:102DB0002008031DDC2E1E2FA301A4012408803A45
:102DC000FF0080307F02031DE72E05302302031C25
:102DD000EA2EEB2EED2E162F162FFA010314FA0D04
:102DE00005302000A1002108F60022088731E727DE
:102DF0009631143E2000230780310A009631FF3AB5
:102E000088310420963101302000A3070030A43D12
:102E10002408803AFF0080307F02031D112F053007
:102E20002302031C142F152FED2E162FFA01031465
:102E3000FA0DFF30883104209631602F2000A30165
:102E4000A4012408803AFF0080307F02031D2A2F4E
:102E500005302302031C2D2F2E2F302F582F582FD3
:102E6000FA010314FA0D05302000A1002108F60034
:102E700022088731E7279631143E2000230780314E
:102E80000A00973188310420963101302000A307D1
:102E90000030A43D2408803AFF0080307F02031DEB
:102EA000532F05302302031C562F572F302F582F36
:102EB000FA010314FA0D0030883104209631602F96
:102EC000080020002008A4002108A5002208A60070
:102ED0000310250D260DA7002708AD00AD08031D22
:102EE000722F732F7D2F0030A3000030A20000301E
:102EF000A1000030A000FF2FFF2F2008A400210810
:102F0000A5002208A6001730A636A50CA40C890B34
:102F1000842F2408A7002708A800A117FF30A005C8
:102F2000FF30A1050030A2052008A9002108AA0051
:102F30002208AB00AC018E30AD02AD1FA02FA12F37
:102F4000C42F2D08803A8F3E0318A72FA82FB32F28
:102F50000030A3000030A2000030A1000030A0002B
:102F6000FF2FFF2FB32F0130AC36AB0CAA0CA90CEE
:102F7000890BB42F0130A4002408AD07031DC12F15
:102F8000C22FB32FE62FE62F18302D02031CC92FB6
:102F9000CA2FDF2F0030A3000030A2000030A100B4
:102FA0000030A000FF2FFF2FDF2F0130A935AA0D21
:102FB000AB0DAC0D890BD62F0130AD02DF2FAD0864
:102FC000031DE32FE42FD52FE62FE62F2808031D3E
:102FD000EA2FF62FA909AA09AB09AC09A90A031916
:102FE000AA0A0319AB0A0319AC0AF62F2C08A3008E
:102FF0002B08A2002A08A1002908A000FF2F080022
:10300000FF3FFF3FFF3FFF3FFF3FFF3FFF3FFF3FD0
:10301000FF3FFF3FFF3FFF3FFF3FFF3FFF3FFF3FC0
:10302000FF3FFF3FFF3FFF3FFF3FFF3FFF3FFF3FB0
:10303000FF3FFF3FFF3FFF3FFF3FFF3FFF3FFF3FA0
:020000040001F9
:04000E00FC3FFFFFB5
:00000001FF
