:020000040000FA
:1000000080311028FF3FFF3F80312000111C09285C
:100010000A280F2811101810250016100F280900A3
:1000200088019031FF2800347C34A23492348A3421
:100030007C3400348434FE3480340034E43492342C
:10004000923492348C3444348234923492346C340A
:10005000303428342434FE3420344E348A348A3404
:100060008A34723478349434923492346034023462
:10007000E23412340A3406346C34923492349234BA
:100080006C340C349234923452343C3400340034A6
:100090000034003400341C347E34FC347E341C3490
:1000A000103428344434823400342834283428343A
:1000B0002834283482344434283410340034403412
:1000C00020341034083404340034C034C0340034D4
:1000D0000034F834243422342434F8348234FE34A6
:1000E000923492346C347C3482348234823444349A
:1000F0008234FE34823482347C34FE34923492343E
:1001000082348234FE3412341234023402347C34A9
:100110008234923492347434FE34103410341034F7
:10012000FE3400348234FE3482340034403480346F
:1001300082347E340234FE34103428344434823421
:10014000FE348034803480348034FE3404341834F7
:100150000434FE34FE34043408341034FE347C3469
:100160008234823482347C34FE34123412341234B9
:100170000C347C348234A2344234BC34FE34123425
:10018000323452348C344C34923492349234643459
:1001900002340234FE34023402347E34803480343B
:1001A00080347E340E343034C03430340E34FE3477
:1001B000403430344034FE34C634283410342834CB
:1001C000C63406340834F03408340634C234A23459
:1001D00092348A348634543445344D3450340034A7
:1001E00020342034203400346608803AFF00570859
:1001F000803A7F02031D022956086502031D022969
:10020000550864020318052906290D296408D5003C
:100210006508D6006608D7000D296608803AFF00F9
:100220000030803A7F02031D1B2940306502031D08
:100230001B2901306402031C1E291F29C82A5E08DD
:10024000803AFF000030803A7F02031D2D294030A4
:100250005D02031D2D2901305C02031C3029312968
:10026000C82A50082100DA005A082200BA00B70153
:10027000B801E90102306902031C3F2940294229E3
:100280000B2A0B2A6908031D4629912903302100F6
:10029000DA005A08F60022006903FF3A5F070139C5
:1002A00091313D2180316A3E860001308700403F18
:1002B0002100DB00413FDC00423FDD000330DE0077
:1002C0005E08F60022006908013EFF3A013E5F0722
:1002D000013991313D2180316A3E8600013087002D
:1002E000403F2100DF00413FE000423FE100DF09E5
:1002F000E009E109DF0A0319E00A0319E10A5F08CE
:10030000DB076008DC3D6108DD3D5B082200BB00C7
:1003100021005C082200BC0021005D082200BD0015
:10032000CC2964082100DA00220065082100DB00E6
:10033000220066082100DC000330DD005D08F600C5
:1003400022005F08FF3E013991313D2180316A3E34
:10035000860001308700403F2100DE00413FDF0082
:10036000423FE000DE09DF09E009DE0A0319DF0A87
:100370000319E00A5E08DA075F08DB3D6008DC3D30
:100380005A082200BB0021005B082200BC002100AB
:100390005C082200BD00CC293D08803AFF000030F7
:1003A000803A7F02031DDA2900303C02031DDA295E
:1003B0000B303B02031CDD29DE29E5290130210039
:1003C000DA005A082200B707FE293D08803AFF00EC
:1003D000FF30803A7F02031DF329FF303C02031DEA
:1003E000F329E2303B020318F629F729FE290130F0
:1003F0002100DA005A082200B807FE290130210046
:10040000DA005A082200E90702306902031C092AAF
:100410000A2A42290B2A3708023A031D102A112AF8
:10042000152AD0010314D00D222A3808023A031DE0
:100430001A2A1B2A222A02302100DA005A08220036
:10044000D000222A64082100DA0022006508210079
:10045000DB00220066082100DC000030DC1BFF30DE
:10046000DD005A082200AF0721005B082200B03DE2
:1004700021005C082200B13D21005D082200B23D50
:100480004308803AFF006608803A7F02031D4E2A27
:1004900065084202031D4E2A640841020318512ACE
:1004A000522A592A6408C1006508C2006608C300C0
:1004B000592A6608803AFF004608803A7F02031DE9
:1004C000672A45086502031D672A44086402031869
:1004D0006A2A6B2A712A6408C4006508C500660888
:1004E000C6005C082100DA0022005D082100DB0064
:1004F00022005E082100DC000030DC1BFF30DD0044
:100500005A082200B30721005B082200B43D2100F5
:100510005C082200B53D21005D082200B63D490877
:10052000803AFF005E08803A7F02031D9D2A5D0825
:100530004802031D9D2A5C0847020318A02AA12A2D
:10054000A82A5C08C7005D08C8005E08C900A82A80
:100550005E08803AFF004C08803A7F02031DB62AED
:100560004B085D02031DB62A4A085C020318B92A2B
:10057000BA2AC12A5C08CA005D08CB005E08CC001C
:10058000C12A01302100DA005A082200D907152BB0
:10059000DA01DB01D408031DCE2ACF2A132B103039
:1005A0002100DA005A082200E700E8016830210043
:1005B000DA005A082000E900F0302100DB005B0877
:1005C0002000EA0003302100DC005C082000EB0082
:1005D00067309131EA21803110302100DA005A0869
:1005E0002200E70003302100DA005A082200E80068
:1005F00068302100DA005A082000E900F0302100BC
:10060000DB005B082000EA0003302100DC005C080E
:100610002000EB0067309131EA2180312200D401C3
:100620000314D40D132BBA01152B03302100DA006B
:100630005A08F60022005F08013991313D218031CE
:100640006A3E86000130870022006408C03F6508CA
:10065000C13F6608C23F5008023A031D302B312BC0
:10066000712F3A08013A031D362B372B712F2500C5
:100670001614200018148B172200E701E8016830D7
:100680002100DA005A082000D2003A302100DB00B5
:100690005B082000D30003302100DC005C08200050
:1006A000D40067308C316C2480312200590821003D
:1006B000DA00DB01DC01DD015D08F3005C08F2001B
:1006C0005B08F1005A08F00022003208F7003108F8
:1006D000F6003008F5002F08F4008831042080313E
:1006E00073082000A3007208A2007108A10070081E
:1006F000A000923169228031200020082200BE0033
:10070000200021082200BF00200022082200C00093
:100710003E082000C50022003F082000C60022003D
:1007200040082000C700220041082100DA00220012
:1007300042082100DB00220043082100DC002200E7
:1007400044092100DD00220045092100DE002200CD
:1007500046092100DF00DD0A0319DE0A0319DF0A5A
:100760005D08DA075E08DB3D5F08DC3D5A08F800EB
:100770005B08F9005C08FA00923112228031780897
:100780002000C8007908C9007A08CA0089311421FC
:100790008031200045082200BE00200046082200CB
:1007A000BF00200047082200C00059082100DA00DD
:1007B000DB01DC01DD015D08F3005C08F2005B0891
:1007C000F1005A08F00022003608F7003508F6005C
:1007D0003408F5003308F4008831042080317308B0
:1007E0002000A3007208A2007108A1007008A000F8
:1007F000923169228031200020082200E10020008F
:1008000021082200E200200022082200E300610803
:100810002000C500220062082000C60022006308F4
:100820002000C700220047082100DA002200480803
:100830002100DB00220049082100DC0022004A09D7
:100840002100DD0022004B092100DE0022004C09BE
:100850002100DF00DD0A0319DE0A0319DF0A5D0843
:10086000DA075E08DB3D5F08DC3D5A08F8005B08EC
:10087000F9005C08FA0092311222803178082000D9
:10088000C8007908C9007A08CA008931142180316A
:10089000200045082200E100200046082200E20076
:1008A000200047082200E30003302100DA005A0844
:1008B000F60022005B08F301F3075A08F201F20781
:1008C0000A30F0000030F1009231CB228031700804
:1008D00091313D218031A03E8600870122003E08F3
:1008E0002000C50022003F082000C600220040086A
:1008F0002000C700220061082000C8002200620812
:100900002000C900220063082000CA008931142198
:10091000803120004508C03F4608C13F4708C23F1C
:100920000A30F0000030F10022005B08F301F30709
:100930005A08F201F2079231CB2280317008090780
:10094000C03E8600870122005F08C03F6008C13FAB
:100950000130DA070030DB3D00305B020F30031955
:100960005A02031CB42CB52C522E00302000C800B3
:100970001630C9004430CA0022005A08FF3EF20077
:10098000FF305B3DF3000A30F0000030F10092319F
:10099000CB22803170080907C03E86008701220003
:1009A0005A08F63EF200FF305B3DF3000A30F000DB
:1009B0000030F1009231CB22803170080907C03E2F
:1009C00084008501003F2100DA00013FDB00DA09E5
:1009D000DB09DA0A0319DB0A403F5A072000AE00A0
:1009E000413F21005B3D2000AF00B001B1019331D8
:1009F000CE23803120002E08B8002F08B90030081F
:100A0000BA00CD30B5004C30B6003D30B70089316A
:100A1000CC21803120003508C5003608C6003708D3
:100A2000C70089311421803120004508A000460804
:100A3000A1004708A20097316127803120002008DB
:100A40002100DC005C082200D90010302100DA000F
:100A50005A082200E700E80168302100DA005A084D
:100A60002000E900220059082100DB005B0820007B
:100A7000EA0003302100DC005C082000EB00673056
:100A80008A319622803100302200E1000030E200FD
:100A90000030E300E9010A306902031C502D512D9A
:100AA000532D8F2D8F2D03302100DA005A08F600C8
:100AB0002200690891313D218031A03E86008701E6
:100AC000403F2000C500413FC600423FC700220012
:100AD00061082000C800220062082000C90022002E
:100AE00063082000CA008D317F2580312000450831
:100AF0002200E100200046082200E2002000470812
:100B00002200E30001302100DA005A082200E90740
:100B10000A306902031C8D2D8E2D532D8F2D003030
:100B20002000C5002030C6004130C7002200610807
:100B30002000C800220062082000C90022006308CB
:100B40002000CA008931142180312000450822008C
:100B5000E100200046082200E200200047082200B1
:100B6000E30061082000B800220062082000B900FC
:100B7000220063082000BA00220061082000B500AE
:100B8000220062082000B600220063082000B7009F
:100B90008931CC21803120003508B8003608B900F1
:100BA0003708BA004530B500CC30B6003F30B7004A
:100BB0008931CC21803120003508C8003608C900B1
:100BC0003708CA00220061082000B800220062082D
:100BD0002000B900220063082000BA00A330B5004D
:100BE0000A30B6004230B7008931CC218031200074
:100BF0003508F8003608F9003708FA009031D92096
:100C0000803178082000C5007908C6007A08C7003E
:100C10008D317F25803120004508C8004608C90075
:100C20004708CA006130C500E130C6004230C70045
:100C30008D317F25803120004508A0004608A100A5
:100C40004708A20097316127803120002008210049
:100C5000DA005A082200D90010302100DA005A08C0
:100C60002200E70003302100DA005A082200E800E1
:100C700068302100DA005A082000E90022005908F3
:100C80002100DB005B082000EA0003302100DC00CB
:100C90005C082000EB0067308A3196228031220008
:100CA000D4019C2ED408031D562E572E9C2E103096
:100CB0002100DA005A082200E700E801683021002C
:100CC000DA005A082000E900F0302100DB005B0860
:100CD0002000EA0003302100DC005C082000EB006B
:100CE00067309131EA21803110302100DA005A0852
:100CF0002200E70003302100DA005A082200E80051
:100D000068302100DA005A082000E900F0302100A4
:100D1000DB005B082000EA0003302100DC005C08F7
:100D20002000EB0067309131EA2180312200D401AC
:100D30000314D40D9C2E9C2E58302100DA005A0842
:100D4000F5006930923199228031003A0319A92EB9
:100D5000AA2E2D2F32302100DA005A082200E70097
:100D600006302100DA005A082200E800683021002D
:100D7000DA005A082000E900220069082100DB009F
:100D80005B082000EA0002302100DC005C08200043
:100D9000EB00673094311524803168302100DA008F
:100DA0005A082000D20040302100DB005B08200000
:100DB000D30002302100DC005C082000D400673042
:100DC0008C316C24803168302100DA005A08200010
:100DD000D200220058089131AC21803120002E0829
:100DE000B8002F08B9003008BA000030B500203034
:100DF000B6003F30B7008931CC2180312000350862
:100E0000C8003608C9003708CA000030C5004030A5
:100E1000C6004230C7008D317F2580312000450853
:100E2000A0004608A1004708A20097316127803141
:100E3000200020082100DB005B082000D3000230E6
:100E40002100DC005C082000D40067308C316C2469
:100E500080319131252180312D2F2200E701E801D9
:100E600068302100DA005A082000D2003B3021000F
:100E7000DB005B082000D30003302100DC005C08AD
:100E80002000D40067308C316C2480310030220087
:100E9000B2000030B1000030B0000030AF000030D0
:100EA000B6000030B5000030B4000030B300D90106
:100EB0000030C1000030C2000030C300FF30C40069
:100EC000FF30C5007F30C6000030C7000030C800CA
:100ED0000030C900FF30CA00FF30CB007F30CC00AB
:100EE000712F0130DF070030E03D3F305F0521000A
:100EF000DA000030220060052100DB005B085A04A4
:100F0000031D832F852F8B31642B22005508A300EE
:100F10005608A4005708A5004D082100DA00220059
:100F20004E082100DB0022004F082100DC002200D7
:100F300055092100DD00220056092100DE002200B3
:100F400057092100DF00DD0A0319DE0A0319DF0A51
:100F50005D08DA075E08DB3D5F08DC3D5A08F300F8
:100F60005B08F4005C08F5003030F0000030F10060
:100F70000030F2009631DE26803170082100E0005A
:100F80007108E1007208E2000630E035E10DE20D83
:100F9000890BC52F60082200A000210061082200F3
:100FA000A100210062082200A2003030F0000030D1
:100FB000F1000030F2002008F3002108F4002208BC
:100FC000F5009631DE26803170082200A6007108F7
:100FD000A7007208A8000030CD000030CE0000301D
:100FE000CF00FF30D500FF30D6007F30D700832FF1
:100FF000832F832F80311028FF3FFF3FFF3FFF3FAC
:10100000FF3FFF3FFF3FFF3F0030FC000030FB0091
:101010000030FA000030F9007308720471047004A3
:101020000319132814285C28FD010314FD0D24283E
:101030000130F035F10DF20DF30D890B1928013057
:10104000F8007808FD072428F31F272828281828E7
:101050002A282A280130F935FA0DFB0DFC0D890BE1
:101060002B2873087702031D3F2872087602031DA0
:101070003F2871087502031D3F2870087402031C85
:10108000422843284D287008F4027108F53B720885
:10109000F63B7308F73B79144D280130F336F20C18
:1010A000F10CF00C890B4E280130FD02031D59286C
:1010B0005A282A285C285C287C08F3007B08F20068
:1010C0007A08F1007908F00065280800FA00FA08AB
:1010D000031D6B286C2874287408F500F601750848
:1010E0002100BE007608BF007408F500F6017608FE
:1010F00021003F02031D7E2875083E020318812847
:1011000082288C287408F5007508F8003E08013E16
:10111000F5007508F900AD287408F500F6013F08E0
:101120007602031D95283E08750203189828992811
:10113000A3287408F5007508F9003E08FF3EF50085
:101140007508F800AD287408F5007508F9003E0828
:10115000F5007508F800AD28AD28FC0106307C02CA
:10116000031CB328B428B6280B290B29F701FD016D
:1011700008307D02031CBD28BE28C028F028F028B6
:101180007C03FF3AF5000330F535890BC4287D0355
:10119000FF3A75072F3EF6007608FB0079087B02C0
:1011A000031CD328D428E5287B087802031CD928FF
:1011B000DA28E5280130F5007D0ADF28F535890BAE
:1011C000DE287508F6007608F7040130F50075088A
:1011D000FD0708307D02031CEE28EF28C028F02808
:1011E0007C08F5007508F1007A08403E92313C22F7
:1011F0008831F1010314F10D770891318F21883185
:101200000130F5007508FC0706307C02031C092933
:101210000A29B6280B297408F500F6017508210083
:10122000BE007608BF00080020004808CB0049082F
:10123000CC004A08CD0003104C0D4D0DCE004E08D9
:10124000D300D308031D252926292E290030C500E7
:101250000030C6000030C700CB29CB294508CB00A1
:101260004608CC004708CD0003104C0D4D0DCE00B4
:101270004E08D400D408031D3E293F2947290030D9
:10128000C5000030C6000030C700CB29CB29003094
:10129000D0000030D1000030D20089305407CB009C
:1012A0004B08D3024808CB004908CC004A08CD00BF
:1012B0001030CD36CC0CCB0C890B59294B08CE0005
:1012C0004E08D4004508CB004608CC004708CD00A6
:1012D0001030CD36CC0CCB0C890B69294B08CE00D5
:1012E0004E08D4068030CB004B08D405C917FF3018
:1012F000C805FF30C9050030CA05C617FF30C5054F
:10130000FF30C6050030C7051830CB004B08CF00B2
:1013100089290130D035D10DD20D890B8A29470892
:101320004A02031D992946084902031D99294508C7
:101330004802031C9C299D29A5294508C802460886
:10134000C93B4708CA3B5014A5290130C835C90D0F
:10135000CA0D890BA6290130CF02031DB029B1297E
:101360008929B2295008F0005108F1005208F20012
:101370005308CB004B08F3005408CC004C08F40091
:101380009531F725893170082000C5007108C60025
:101390007208C700CB29080020003508BB003608BA
:1013A000BC003708BD0003103C0D3D0DBE003E08DB
:1013B000BF00BF08031DDD29DE29E6290030B50086
:1013C0000030B6000030B700952A952A3808BB00D7
:1013D0003908BC003A08BD0003103C0D3D0DBE00AD
:1013E0003E08C400C408031DF629F729FF29003070
:1013F000B5000030B6000030B700952A952A4408A1
:101400007B3EBB003B08BF073508BB003608BC006D
:101410003708BD001030BD36BC0CBB0C890B0B2A45
:101420003B08BE003E08C4003808BB003908BC00B9
:101430003A08BD001030BD36BC0CBB0C890B1B2A12
:101440003B08BE003E08C4068030BB003B08C40514
:10145000B617B917FF30B805FF30B9050030BA0527
:101460000030C0000030C1000030C2000730BB00B7
:101470003B08C3003B2A351C3E2A3F2A462A38082F
:10148000C0073908C13D3A08C23D462A0130B73687
:10149000B60CB50C890B472A0130B835B90DBA0D19
:1014A000890B4D2A0130C302031D572A582A3B2AB3
:1014B000592A0930BB003B08C3005E2A351C612A4B
:1014C000622A692A3808C0073908C13D3A08C23D76
:1014D000692A0130B736B60CB50C890B6A2A01307F
:1014E000C236C10CC00C890B702A0130C302031D27
:1014F0007A2A7B2A5E2A7C2A4008F0004108F10003
:101500004208F2003F08BB003B08F3004408BC005F
:101510003C08F4009531F725893170082000B500AA
:101520007108B6007208B700952A08002000ED0087
:101530006430F0000030F1006A082100D400D501C9
:101540005408F2005508F30095311C258A317008C3
:101550002100D60056082000EF000A30F0000030CD
:10156000F1006A082100D400D5015408F2005508A2
:10157000F30095311C258A3170082100D6007108CE
:10158000D7000A30D8005808F60020006F089131C3
:101590003D218A31FF3A013E21005607D900590802
:1015A0002000EE0064302100D4005408F600200032
:1015B0006F0891313D218A312100D5000A30D600D3
:1015C0005608F60020006E0891313D218A31210035
:1015D0005507FF3A013E20006A072100D70057084F
:1015E0002000EC0030302100D40054082000EF0728
:1015F0006F08303A031DFD2AFE2A052B3A302100E0
:10160000D40054082000EF00052B30302100D40016
:1016100054082000EE076F083A3A031D102B112BD7
:101620001E2B6E08303A031D162B172B1E2B3A303B
:101630002100D40054082000EE001E2B6908210070
:10164000D40054082000D2006F082100D5005508AE
:101650002000D3006B082100D60056082000D400DB
:101660006D088C316C248A31200069082100D40077
:1016700054082000D2006E082100D5005508200033
:10168000D3006B082100D60056082000D4006D0856
:101690008C316C248A31200069082100D400540860
:1016A0002000D2006C08303E2100D50055082000F3
:1016B000D3006B082100D60056082000D4006D0826
:1016C0008C316C248A310800293093318A238B3184
:1016D0002100DA005A082200E900E908031D712BF5
:1016E000722B742B642B642B640022002B082100C6
:1016F000DA00DB01DC0122002A082100DD00DE0126
:10170000DF010830DD35DE0DDF0D890B822B220075
:1017100029082100E000E101E2011030E035E10D8F
:10172000E20D890B8E2B6008DD046108DE0462087F
:10173000DF045D08DA045E08DB045F08DC045A0895
:101740002200E40021005B082200E50021005C0883
:101750002200E6002E082100DA00DB01DC01220075
:101760002D082100DD00DE01DF010830DD35DE0D52
:10177000DF0D890BB62B22002C082100E000E101CF
:10178000E2011030E035E10DE20D890BC22B60085B
:10179000DD046108DE046208DF045D08DA045E0827
:1017A000DB045F08DC045A082200DC0021005B082F
:1017B0002200DD0021005C082200DE002608F00087
:1017C0002708F1002808F20064082100DA0022004E
:1017D00065082100DB00220066082100DC002200F1
:1017E00023092100DD00220024092100DE0022005F
:1017F00025092100DF00DD0A0319DE0A0319DF0ACB
:101800005D08DA075E08DB3D5F08DC3D5A08F3003F
:101810005B08F4005C08F5009631DE268B31083059
:1018200070072200D1000030713DD2000030723DBF
:10183000D300D31F1C2C1D2C1F2CB901402C530886
:10184000803AFF000030803A7F02031D2D2C0030CB
:101850005202031D2D2C30305102031C302C312C30
:10186000382C2F302100DA005A082200B900402C11
:1018700051082100DA005A082200B900402C402CFF
:101880005F083F392100DA005A082200D8003908E1
:101890002100DA005A08F400220058088831662036
:1018A0008B3122004F08803AFF006608803A7F02A1
:1018B000031D602C65084E02031D602C64084D0258
:1018C0000318632C652C8031F4286408CD0065086A
:1018D000CE006608CF00632C2000E3005308203AB6
:1018E000031D732C742C792C3A30D5005508D30085
:1018F000792C3030D302630886000130870001085C
:10190000D5005508E4005208860001308700010820
:10191000D5005508E200E50105306502031C912C55
:10192000922C942C4A2D4A2D0530D5005508F600EE
:10193000530891313D218C31143E200065078031E0
:101940000A008C31D6005608E100E8012D2DE60191
:101950006208D5005508F100640892313C228C31B0
:101960002000E70108306702031CB72CB82CBA2C02
:10197000062D062D6108D500D6010130D7000030B4
:10198000D8005408D900DA015908F0005A08F100CB
:101990006708DB00DC016808DD00DE010330DD35AF
:1019A000DE0D890BCF2C5B085D07F2005C085E3D05
:1019B000F30095311C258C317008890A2000E22C37
:1019C000D735D80D890BE02C55085705DF00560890
:1019D0005805E00060085F040319EF2CF02CFB2C85
:1019E0000130D500670AF52CD535890BF42C550844
:1019F000D6005608E6040130D5005508E707083040
:101A00006702031C042D052DBA2C062D9031BC2035
:101A10008C3178309031F2208C3140309031F2208E
:101A20008C31200066089031F2208C31200066084D
:101A30009031F2208C31200066089031F2208C31F8
:101A40009031C5208C3101302000D5005508E207C7
:101A50000130D5005508E8072D2D54086802031CF5
:101A6000322D332DA72C342D5208860001308700EB
:101A70000108D5005508E2005408D5005508E407D0
:101A80000130D5005508E50705306502031C492DD6
:101A90004A2D942CE801662D5208860001308700FB
:101AA00001086807D5005508F100640892313C220E
:101AB0008C31F1010314F10D003091318F218C3103
:101AC00001302000D5005508E807662D540868024B
:101AD000031C6B2D6C2D4C2D6D2D0530D50055083C
:101AE000F600540891313D218C31013E2000D60092
:101AF000630886000130870056088107080020002F
:101B00004508CB004608CC004708CD0003104C0D1B
:101B10004D0DCE004E08D1004808CB004908CC003E
:101B20004A08CD0003104C0D4D0DCE004E08D000DC
:101B30005108031D9C2DAD2D500851020318A12DF5
:101B4000A22DB52D5103FF3A5007CB0019304B029F
:101B5000031CAB2DAC2DB52DAD2D4808C500490893
:101B6000C6004A08C700AE2EAE2E5008031DB92D80
:101B7000C92D510850020318BE2DBF2DCA2D500388
:101B8000FF3A5107CB0019304B02031CC82DC92D59
:101B9000CA2DAE2E0630CB004B08CF00C71FD12D6B
:101BA000D22DD32DCF17CA1FD62DD72DD82D4F17F5
:101BB000C617FF30C505FF30C6050030C705C91779
:101BC000FF30C805FF30C9050030CA055008510272
:101BD0000318EB2DEC2D192EED2D0130C835C90D54
:101BE000CA0D890BEE2D0130D002500851060319A1
:101BF000FA2DFB2D112E0130CF024F080739031D9E
:101C0000022E032EED2D112E112E112E0130C7366E
:101C1000C60CC50C890B072E0130CB004B08D10731
:101C2000112E51085006031D162E172E062E4C2E6F
:101C30004C2E5108500203181E2E1F2E4C2E202E03
:101C40000130C535C60DC70D890B212E0130D102DB
:101C50005008510603192D2E2E2E442E0130CF028E
:101C60004F080739031D352E362E202E442E442EC4
:101C7000442E0130CA36C90CC80C890B3A2E0130EB
:101C8000CB004B08D007442E51085006031D492EA7
:101C90004A2E392E4C2E4C2ECF1F4F2E502E612EF9
:101CA000FF30C506FF30C606FF30C7060130C50746
:101CB000003003180130C607003003180130C70791
:101CC000612E4F1F642E652E762EFF30C806FF3022
:101CD000C906FF30CA060130C807003003180130BA
:101CE000C907003003180130CA07762ECF01450816
:101CF000C8074608C93D4708CA3DCA1F802E812E25
:101D0000952EFF30C806FF30C906FF30CA060130E5
:101D1000C807003003180130C9070030031801302C
:101D2000CA07CF010314CF0D952E4808F0004908CB
:101D3000F1004A08F2005108CB004B08F3004F08AD
:101D4000CC004C08F4009531F7258D317008200047
:101D5000C5007108C6007208C700AE2E0800220038
:101D6000E90102306902031CB62EB72EB92ED92E16
:101D7000D92E03302100DA005A08F6002200690843
:101D800091313D218E316A3E86000130870000305E
:101D9000C03F0030C13F0030C23F01302100DA00B7
:101DA0005A082200E90702306902031CD82ED92EF6
:101DB000B92EE9010A306902031CDF2EE02EE22E63
:101DC0000C2F0C2F03302100DA005A08F6002200F5
:101DD000690891313D218E31A03E86008701003097
:101DE000C03F0030C13F0030C23F220069080907F0
:101DF000C03E860087010030C03F0030C13F013047
:101E00002100DA005A082200E9070A306902031C9F
:101E10000A2F0B2FE22E0C2F0030C1000030C20021
:101E20000030C300FF30C400FF30C5007F30C60063
:101E30000030C7000030C8000030C900FF30CA00C1
:101E4000FF30CB007F30CC000030CD000030CE0022
:101E50000030CF00FF30D500FF30D6007F30D700F4
:101E60000030B2000030B1000030B0000030AF00F0
:101E70000030B6000030B5000030B4000030B300D0
:101E8000D901DA01DB010030A3008030A400013069
:101E9000A5004030A6000030A7000030A800933114
:101EA00049238E312200DF01E001D001BA01E701B0
:101EB000E80168302100DA005A082000D2003B30E7
:101EC0002100DB005B082000D30003302100DC0090
:101ED0005C082000D40067308C316C248E312200E5
:101EE000E70103302100DA005A082200E8006830D8
:101EF0002100DA005A082000D2004F302100DB0018
:101F00005B082000D30003302100DC005C082000C7
:101F1000D40067308C316C248E3105302100DA001A
:101F20005A08F1000A3092313C228E31FA012030F9
:101F300096316A268E3105302100DA005A08F10008
:101F40000B3092313C228E31FA01323096316A26C2
:101F50008E312200E70106302100DA005A08220003
:101F6000E80068302100DA005A082000E900EB3070
:101F70002100DB005B082000EA0002302100DC00C9
:101F80005C082000EB0067309131EA218E31063089
:101F90002100DA005A08F100643092313C228E317F
:101FA000FA014F3096316A268E316A302100DA000C
:101FB0005A082200E70006302100DA005A08220001
:101FC000E80068302100DA005A082000D2004330CF
:101FD0002100DB005B082000D30002302100DC0080
:101FE0005C082000D40067308C316C248E312200D4
:101FF000D4010314D40D913125218E318B31642B02
:10200000FF3FFF3FFF3FFF3FFF3FFF3FFF3FFF3FE0
:10201000FF3FFF3FFF3FFF3FFF3FFF3FFF3FFF3FD0
:10202000FF3FFF3FFF3FFF3FFF3FFF3FFF3FFF3FC0
:10203000FF3FFF3FFF3FFF3FFF3FFF3FFF3FFF3FB0
:10204000FF3FFF3FFF3FFF3FFF3FFF3FFF3FFF3FA0
:10205000FF3FFF3FFF3FFF3FFF3FFF3FFF3FFF3F90
:10206000FF3FFF3FFF3FFF3FFF3FFF3FFF3FFF3F80
:10207000FF3FFF3FFF3FFF3FFF3FFF3FFF3FFF3F70
:10208000FF3FFF3FFF3FFF3FFF3FFF3FFF3FFF3F60
:10209000FF3FFF3FFF3FFF3FFF3FFF3FFF3FFF3F50
:1020A000FF3FFF3FFF3FFF3FFF3FFF3FFF3FFF3F40
:1020B000FF3FFF3FFF3FFF3FFF3FFF3FFF3FFF3F30
:1020C000FF3FFF3FFF3FFF3FFF3FFF3FFF3FFF3F20
:1020D000FF3FFF3FFF3FFF3FFF3FFF3FFF3FFF3F10
:1020E000FF3FFF3FFF3FFF3FFF3FFF3FFF3FFF3F00
:1020F000FF3FFF3FFF3FFF3FFF3FFF3FFF3FFF3FF0
:10210000FF3FFF3FFF3FFF3FFF3FFF3FFF3FFF3FDF
:10211000FF3FFF3FFF3FFF3FFF3FFF3FFF3FFF3FCF
:10212000FF3FFF3FFF3FFF3FFF3FFF3FFF3FFF3FBF
:10213000FF3FFF3FFF3FFF3FFF3FFF3FFF3FFF3FAF
:10214000FF3FFF3FFF3FFF3FFF3FFF3FFF3FFF3F9F
:10215000FF3FFF3FFF3FFF3FFF3FFF3FFF3FFF3F8F
:10216000FF3FFF3FFF3FFF3FFF3FFF3F6400800116
:102170000131890BB728003424001614BF28161823
:10218000C228C328BF28C428080024001615C82860
:102190001619CB28CC28C828CD280800200091117A
:1021A00024009614D3289618D628D728D328D828C0
:1021B00008007A08790478040319DF28E028E32866
:1021C0008030FA06E328E428080024000E148E1458
:1021D00021000E148E141330240092009401283034
:1021E00095000800F0002000911170082400910073
:1021F000F9281419FC28FD28F928FE280800A03029
:1022000084000030850034309031B62090312200B7
:10221000EA01EB01EC01ED01EE01EF0120008E314E
:10222000AF2EF3009031BC20913173089031F22031
:10223000913171089031F220913172089031F22081
:1022400091319031C520913108000330F4007408B9
:10225000F1000230F5007508F200AE309131112125
:1022600091312130F4007408F100F2010314F20DF1
:10227000AE309131112191310800F900F801402967
:10228000791C4329442949297608F7007708F8077B
:1022900049290310F60D0310F90CF908031D512903
:1022A000522940295329780855290800F0002000B8
:1022B0009111240096155C2996195F2960295C29E3
:1022C00061297008031D65296729961668299612E9
:1022D00016166A29161A6D296E296A296F2911089E
:1022E00071290800F001F10104307102A1300319D5
:1022F0007002031C7C297D297F298E298E290000EC
:102300000130F0070030F13D04307102A1300319B3
:102310007002031C8C298D297F298E290800F20068
:102320009031BC20913178309031F2209131710898
:10233000031D9B29A02940309031F2209131A4291E
:1023400000309031F220913172089031F2209131B9
:102350009031C52091310800FB007B082000B100BE
:10236000B201B3013108F0003208F1003308F20085
:102370008E30B4003408F300F4019531F725913123
:1023800070082000AE007108AF007208B000C829C4
:102390000800F4009031BC20913174089031F22093
:1023A000913171089031F22091319031CE209131EC
:1023B000740801389031F220913101309131562169
:1023C0009131F2007208F3009031C5209131730809
:1023D000E9290800FD00062A20006908EC006C08C5
:1023E000D2006A0880310A009131ED006D08D300F7
:1023F0006B08EE006E08D4007D088C316C2491319E
:1024000001302000EC006C08EA07062A20006A0868
:1024100080310A0092310038031D0F2A102AEC295E
:10242000112A0800FD01FA1F162A172A232AF80983
:10243000F909FA09F80A0319F90A0319FA0AFD0158
:102440000314FD0D232A7808F0007908F1007A08BA
:10245000F2008E30FB007B08F3007D08FC007C0856
:10246000F4009531F72592317008F8007108F900F1
:102470007208FA003B2A0800F3009031BC20923128
:1024800078309031F220923100309031F220923148
:1024900020309031F220923100309031F220923190
:1024A0007108B0389031F22092317308F200043094
:1024B000F236890B582A720810389031F220923186
:1024C00073080F399031F22092319031C52092314A
:1024D00008008E302000A4002408A5007B2A0130CB
:1024E000A336A20CA10CA00C890B702A0130A40009
:1024F0002408A5077B2AFF302305031D802A812A93
:102500006F2A822A2008F0002108F1002208F20038
:102510002508A4002408F300F4019531F725923131
:1025200070082000A0007108A1007208A200982A7B
:102530000800F800F1010314F10DAE309131C9210A
:1025400092310239F6007608F9007908031DA92AAC
:10255000C82A1F30F6007608F100AE309131C9214B
:102560009231F700780886000130870077088100F3
:102570002030F6007608F100AE309131C921923159
:10258000F700750886000130870077088100C82AA7
:102590007908CA2A0800710870040319D02AD12AC0
:1025A000012BF5010314F50DDF2A0130F035F10D93
:1025B000890BD62A0130F4007408F507DF2AF11FD1
:1025C000E22AE32AD52AE52AE52A71087302031DC7
:1025D000EB2A70087202031CEE2AEF2AF42A700814
:1025E000F2027108F33BF42A0130F136F00C890B4A
:1025F000F52A0130F502031DFE2AFF2AE52A012BE8
:10260000012B7308F101F1077208F001F007082BA4
:102610000800F8009031BC20933178089031F22006
:10262000933171089031F22093319031CE20933163
:10263000780801389031F2209331F9013E2B73086C
:10264000FF3EF400FF3003180030F50079087406EF
:102650007504003003190130913156219331F60091
:1026600079087207F700770886000130870076083E
:1026700081000130F4007408F9073E2B73087902D9
:10268000031C432B442B1F2B452B9031C52093312A
:10269000080023008C018E0124008E018C01210092
:1026A0009513991019101917991619169911991748
:1026B0008E1225009E101E10193020009B000C3039
:1026C0002500910020009C141C141C152500931358
:1026D000131393151315931013101610961016114B
:1026E000961120009913181018139813181698169D
:1026F00097019601210011140B179031E5209331B9
:102700009531882593319431692493319431C024D3
:10271000933108002000A1000430FA007A08F1008B
:10272000AE309131C9219331FB000630FC007C08AA
:10273000F100AE309131C9219331FF3A013E7B0760
:10274000FD007D082000A0002008031DA82BCB2B36
:102750000730FA007A08F1002108FB007B08F2003C
:102760000630FC007C08F300AE309331092393312E
:102770000330FA00200021088600013087007A0823
:1027800081050330FA002108033E860001308700EE
:102790007A088105CB2B2008CD2B08002000B3013F
:1027A0008E30FB007B08B200B11FD72BD82BF42B47
:1027B000AE09AF09B009B109AE0A0319AF0A03198E
:1027C000B00A0319B10AB3010314B30DF42BF42BAF
:1027D0000130B136B00CAF0CAE0C890BE92B0130D7
:1027E000FB007B08B207F42BFF303105031DF92BEA
:1027F000FA2BE82BFB2B2E08F0002F08F1003008F5
:10280000F2003208FB007B08F3003308FC007C0870
:10281000F4009531F725933170082000AE0071085F
:10282000AF007208B000142C08002100D5000A3057
:10283000F0000030F10020006A08EC00ED016C08A7
:10284000F2006D08F30095311C25943170082000CA
:10285000EE006E082100D6000A302000EC006C0863
:10286000F6002100560891313D219431FF3A013E96
:1028700020006A07ED006D082100D40020006908DF
:10288000EC006C08D20021005608303E2000ED001C
:102890006D08D3006B08EE006E08D40021005508C7
:1028A0008C316C24943120006908EC006C08D20053
:1028B00021005408303E2000ED006D08D3006B0865
:1028C000EE006E08D400210055088C316C24943140
:1028D00008009031BC20943178309031F22094314E
:1028E00000309031F2209431A8309031F2209431B0
:1028F0003F309031F2209431D3309031F220943136
:1029000000309031F220943140309031F2209431F7
:10291000A1309031F2209431C8309031F2209431BE
:10292000DA309031F220943112309031F22094312B
:1029300081309031F22094317F309031F220943107
:10294000A4309031F2209431A6309031F2209431AD
:10295000D5309031F220943180309031F220943192
:102960008D309031F220943114309031F220943136
:10297000AF309031F22094319031C520943108006D
:102980009031BC20943178309031F2209431003075
:102990009031F220943120309031F2209431003087
:1029A0009031F220943121309031F2209431003076
:1029B0009031F22094317F309031F22094312230E6
:1029C0009031F220943100309031F2209431073070
:1029D0009031F22094319031C52094319031BC2057
:1029E000943178309031F220943140309031F2209F
:1029F0009431F101F20104307202003003197102C6
:102A0000031C032D042D062D182D182D0030903198
:102A1000F22094310130F1070030F23D04307202AF
:102A2000003003197102031C162D172D062D182DC9
:102A30009031C52094310800F601F11F202D212D81
:102A40002A2DF009F109F00A0319F10AF60103141D
:102A5000F60D2A2DF31F2D2D2E2D382DF209F309F9
:102A6000F20A0319F30A0130F4007408F606382D4F
:102A7000F701F8017108700403193F2D402D762DE0
:102A8000F5010314F50D4E2D0130F035F10D890BD4
:102A9000452D0130F4007408F5074E2DF11F512D1E
:102AA000522D442D542D542D0130F735F80D890B3E
:102AB000552D71087302031D5F2D70087202031CEF
:102AC000622D632D692D7008F2027108F33B7714B3
:102AD000692D0130F136F00C890B6A2D0130F502B9
:102AE000031D732D742D542D762D762D7608031D20
:102AF0007A2D802DF709F809F70A0319F80A802DB5
:102B00007808F101F1077708F001F007872D080038
:102B1000FF30F5007508F100AE309131C9219531D3
:102B2000153A0319942D952D972DF62DF62D093074
:102B3000F5007508F1004030F6007608F200AE307E
:102B4000913111219531F7017708FF3A031DA92D25
:102B5000AA2DAC2DBA2DBA2D9131722195310130AB
:102B6000F5007508F7077708FF3A031DB82DB92D52
:102B7000AC2DBA2D0830F5007508F1004030F60094
:102B80007608F200AE309131112195310930F5000F
:102B90007508F1000330F6007608F200AE3091318E
:102BA000112195310A30F5007508F1002730F60043
:102BB0007608F200AE309131112195310C30F500DC
:102BC0007508F1001F30F6007608F200AE30913142
:102BD000112195310D30F5007508F1001F30F60018
:102BE0007608F200AE30913111219531080073085A
:102BF000031DFB2D032E720871047004031D012EAA
:102C0000022E172E032E0030F0000030F1000030AD
:102C1000F200692E692E172E0130F5007508F307B2
:102C20000130F236F10CF00C890B112E172EFE300C
:102C30007205031D1C2E1D2E0C2E332E332E01303B
:102C4000F5007508F3070130F00700300318013074
:102C5000F107003003180130F2070130F236F10CB1
:102C6000F00C890B2E2EFF307205031D382E392EE5
:102C70001F2E442E442E0130F3020130F035F10DA9
:102C8000F20D890B3E2E442EF11F472E482E3B2E6F
:102C900073184B2E4C2E522EFF30F0057F30F1056D
:102CA000FF30F2050310F30C7308F500F601F7018D
:102CB0001030F535F60DF70D890B592E7508F00417
:102CC0007608F1047708F2047408031D682E692E53
:102CD000F2170800FC009031BC209631783090311A
:102CE000F220963140309031F22096317C08203A23
:102CF000031D7B2E7C2E812E3A30FB007B08FC00CE
:102D0000812E3030FC027A08031D872EB12EFD0182
:102D100005307D02031C8D2E8E2E902EAC2EAC2EF7
:102D20000530FB007B08F6007C0891313D2196318F
:102D3000143E7D0780310A009631FF3A9031F2202F
:102D400096310130FB007B08FD0705307D02031C36
:102D5000AA2EAB2E902EAC2EFF309031F220963161
:102D6000DA2EFD0105307D02031CB72EB82EBA2ED7
:102D7000D52ED52E0530FB007B08F6007C0891315E
:102D80003D219631143E7D0780310A009631903105
:102D9000F22096310130FB007B08FD0705307D02F3
:102DA000031CD32ED42EBA2ED52E00309031F22013
:102DB0009631DA2E9031C52096310800F801F21FC5
:102DC000E22EE32EEF2EF009F109F209F00A0319C1
:102DD000F10A0319F20AF8010314F80DEF2EF51F9A
:102DE000F22EF32E002FF309F409F509F30A031963
:102DF000F40A0319F50A0130F6007608F806002FE8
:102E00000030F9000030FA000030FB007208710455
:102E1000700403190C2F0D2F4C2FF7010314F70D1D
:102E20001C2F0130F035F10DF20D890B122F0130FE
:102E3000F6007608F7071C2FF21F1F2F202F112FE7
:102E4000222F222F0130F935FA0DFB0D890B232F8C
:102E500072087502031D322F71087402031D322F90
:102E600070087302031C352F362F3E2F7008F302B3
:102E70007108F43B7208F53B79143E2F0130F236AD
:102E8000F10CF00C890B3F2F0130F702031D492F85
:102E90004A2F222F4C2F4C2F7808031D502F592FCB
:102EA000F909FA09FB09F90A0319FA0A0319FB0AD5
:102EB000592F7908F0007A08F1007B08F200602FA2
:102EC000080020002008A4002108A5002208A60070
:102ED0000310250D260DA7002708AD00AD08031D22
:102EE000722F732F7D2F0030A3000030A20000301E
:102EF000A1000030A000FF2FFF2F2008A400210810
:102F0000A5002208A6001730A636A50CA40C890B34
:102F1000842F2408A7002708A800A117FF30A005C8
:102F2000FF30A1050030A2052008A9002108AA0051
:102F30002208AB00AC018E30AD02AD1FA02FA12F37
:102F4000C42F2D08803A8F3E0318A72FA82FB32F28
:102F50000030A3000030A2000030A1000030A0002B
:102F6000FF2FFF2FB32F0130AC36AB0CAA0CA90CEE
:102F7000890BB42F0130A4002408AD07031DC12F15
:102F8000C22FB32FE62FE62F18302D02031CC92FB6
:102F9000CA2FDF2F0030A3000030A2000030A100B4
:102FA0000030A000FF2FFF2FDF2F0130A935AA0D21
:102FB000AB0DAC0D890BD62F0130AD02DF2FAD0864
:102FC000031DE32FE42FD52FE62FE62F2808031D3E
:102FD000EA2FF62FA909AA09AB09AC09A90A031916
:102FE000AA0A0319AB0A0319AC0AF62F2C08A3008E
:102FF0002B08A2002A08A1002908A000FF2F080022
:10300000FF3FFF3FFF3FFF3FFF3FFF3FFF3FFF3FD0
:10301000FF3FFF3FFF3FFF3FFF3FFF3FFF3FFF3FC0
:10302000FF3FFF3FFF3FFF3FFF3FFF3FFF3FFF3FB0
:10303000FF3FFF3FFF3FFF3FFF3FFF3FFF3FFF3FA0
:020000040001F9
:04000E00FC3FFFFFB5
:00000001FF
